{
  "_format": "hh-sol-artifact-1",
  "contractName": "NFT",
  "sourceName": "contracts/NFT.sol",
  "abi": [
    {
      "inputs": [],
      "stateMutability": "nonpayable",
      "type": "constructor"
    },
    {
      "anonymous": false,
      "inputs": [
        {
          "indexed": true,
          "internalType": "address",
          "name": "owner",
          "type": "address"
        },
        {
          "indexed": true,
          "internalType": "address",
          "name": "approved",
          "type": "address"
        },
        {
          "indexed": true,
          "internalType": "uint256",
          "name": "tokenId",
          "type": "uint256"
        }
      ],
      "name": "Approval",
      "type": "event"
    },
    {
      "anonymous": false,
      "inputs": [
        {
          "indexed": true,
          "internalType": "address",
          "name": "owner",
          "type": "address"
        },
        {
          "indexed": true,
          "internalType": "address",
          "name": "operator",
          "type": "address"
        },
        {
          "indexed": false,
          "internalType": "bool",
          "name": "approved",
          "type": "bool"
        }
      ],
      "name": "ApprovalForAll",
      "type": "event"
    },
    {
      "anonymous": false,
      "inputs": [
        {
          "indexed": true,
          "internalType": "address",
          "name": "previousOwner",
          "type": "address"
        },
        {
          "indexed": true,
          "internalType": "address",
          "name": "newOwner",
          "type": "address"
        }
      ],
      "name": "OwnershipTransferred",
      "type": "event"
    },
    {
      "anonymous": false,
      "inputs": [
        {
          "indexed": true,
          "internalType": "address",
          "name": "from",
          "type": "address"
        },
        {
          "indexed": true,
          "internalType": "address",
          "name": "to",
          "type": "address"
        },
        {
          "indexed": true,
          "internalType": "uint256",
          "name": "tokenId",
          "type": "uint256"
        }
      ],
      "name": "Transfer",
      "type": "event"
    },
    {
      "inputs": [
        {
          "internalType": "address",
          "name": "to",
          "type": "address"
        },
        {
          "internalType": "uint256",
          "name": "tokenId",
          "type": "uint256"
        }
      ],
      "name": "approve",
      "outputs": [],
      "stateMutability": "nonpayable",
      "type": "function"
    },
    {
      "inputs": [
        {
          "internalType": "address",
          "name": "owner",
          "type": "address"
        }
      ],
      "name": "balanceOf",
      "outputs": [
        {
          "internalType": "uint256",
          "name": "",
          "type": "uint256"
        }
      ],
      "stateMutability": "view",
      "type": "function"
    },
    {
      "inputs": [
        {
          "internalType": "uint256",
          "name": "tokenId",
          "type": "uint256"
        }
      ],
      "name": "getApproved",
      "outputs": [
        {
          "internalType": "address",
          "name": "",
          "type": "address"
        }
      ],
      "stateMutability": "view",
      "type": "function"
    },
    {
      "inputs": [
        {
          "internalType": "address",
          "name": "owner",
          "type": "address"
        },
        {
          "internalType": "address",
          "name": "operator",
          "type": "address"
        }
      ],
      "name": "isApprovedForAll",
      "outputs": [
        {
          "internalType": "bool",
          "name": "",
          "type": "bool"
        }
      ],
      "stateMutability": "view",
      "type": "function"
    },
    {
      "inputs": [],
      "name": "name",
      "outputs": [
        {
          "internalType": "string",
          "name": "",
          "type": "string"
        }
      ],
      "stateMutability": "view",
      "type": "function"
    },
    {
      "inputs": [],
      "name": "owner",
      "outputs": [
        {
          "internalType": "address",
          "name": "",
          "type": "address"
        }
      ],
      "stateMutability": "view",
      "type": "function"
    },
    {
      "inputs": [
        {
          "internalType": "uint256",
          "name": "tokenId",
          "type": "uint256"
        }
      ],
      "name": "ownerOf",
      "outputs": [
        {
          "internalType": "address",
          "name": "",
          "type": "address"
        }
      ],
      "stateMutability": "view",
      "type": "function"
    },
    {
      "inputs": [],
      "name": "renounceOwnership",
      "outputs": [],
      "stateMutability": "nonpayable",
      "type": "function"
    },
    {
      "inputs": [
        {
          "internalType": "uint256",
          "name": "tokenId",
          "type": "uint256"
        }
      ],
      "name": "safeMint",
      "outputs": [],
      "stateMutability": "nonpayable",
      "type": "function"
    },
    {
      "inputs": [
        {
          "internalType": "address",
          "name": "from",
          "type": "address"
        },
        {
          "internalType": "address",
          "name": "to",
          "type": "address"
        },
        {
          "internalType": "uint256",
          "name": "tokenId",
          "type": "uint256"
        }
      ],
      "name": "safeTransferFrom",
      "outputs": [],
      "stateMutability": "nonpayable",
      "type": "function"
    },
    {
      "inputs": [
        {
          "internalType": "address",
          "name": "from",
          "type": "address"
        },
        {
          "internalType": "address",
          "name": "to",
          "type": "address"
        },
        {
          "internalType": "uint256",
          "name": "tokenId",
          "type": "uint256"
        },
        {
          "internalType": "bytes",
          "name": "data",
          "type": "bytes"
        }
      ],
      "name": "safeTransferFrom",
      "outputs": [],
      "stateMutability": "nonpayable",
      "type": "function"
    },
    {
      "inputs": [
        {
          "internalType": "address",
          "name": "operator",
          "type": "address"
        },
        {
          "internalType": "bool",
          "name": "approved",
          "type": "bool"
        }
      ],
      "name": "setApprovalForAll",
      "outputs": [],
      "stateMutability": "nonpayable",
      "type": "function"
    },
    {
      "inputs": [
        {
          "internalType": "bytes4",
          "name": "interfaceId",
          "type": "bytes4"
        }
      ],
      "name": "supportsInterface",
      "outputs": [
        {
          "internalType": "bool",
          "name": "",
          "type": "bool"
        }
      ],
      "stateMutability": "view",
      "type": "function"
    },
    {
      "inputs": [],
      "name": "symbol",
      "outputs": [
        {
          "internalType": "string",
          "name": "",
          "type": "string"
        }
      ],
      "stateMutability": "view",
      "type": "function"
    },
    {
      "inputs": [
        {
          "internalType": "uint256",
          "name": "tokenId",
          "type": "uint256"
        }
      ],
      "name": "tokenURI",
      "outputs": [
        {
          "internalType": "string",
          "name": "",
          "type": "string"
        }
      ],
      "stateMutability": "view",
      "type": "function"
    },
    {
      "inputs": [
        {
          "internalType": "address",
          "name": "from",
          "type": "address"
        },
        {
          "internalType": "address",
          "name": "to",
          "type": "address"
        },
        {
          "internalType": "uint256",
          "name": "tokenId",
          "type": "uint256"
        }
      ],
      "name": "transferFrom",
      "outputs": [],
      "stateMutability": "nonpayable",
      "type": "function"
    },
    {
      "inputs": [
        {
          "internalType": "address",
          "name": "newOwner",
          "type": "address"
        }
      ],
      "name": "transferOwnership",
      "outputs": [],
      "stateMutability": "nonpayable",
      "type": "function"
    }
  ],
  "bytecode": "0x60806040523480156200001157600080fd5b506040518060400160405280600b81526020017f436f696e444358204e46540000000000000000000000000000000000000000008152506040518060400160405280600381526020017f545454000000000000000000000000000000000000000000000000000000000081525081600090816200008f919062000412565b508060019081620000a1919062000412565b505050620000c4620000b8620000ca60201b60201c565b620000d260201b60201c565b620004f9565b600033905090565b6000600660009054906101000a900473ffffffffffffffffffffffffffffffffffffffff16905081600660006101000a81548173ffffffffffffffffffffffffffffffffffffffff021916908373ffffffffffffffffffffffffffffffffffffffff1602179055508173ffffffffffffffffffffffffffffffffffffffff168173ffffffffffffffffffffffffffffffffffffffff167f8be0079c531659141344cd1fd0a4f28419497f9722a3daafe3b4186f6b6457e060405160405180910390a35050565b600081519050919050565b7f4e487b7100000000000000000000000000000000000000000000000000000000600052604160045260246000fd5b7f4e487b7100000000000000000000000000000000000000000000000000000000600052602260045260246000fd5b600060028204905060018216806200021a57607f821691505b60208210810362000230576200022f620001d2565b5b50919050565b60008190508160005260206000209050919050565b60006020601f8301049050919050565b600082821b905092915050565b6000600883026200029a7fffffffffffffffffffffffffffffffffffffffffffffffffffffffffffffffff826200025b565b620002a686836200025b565b95508019841693508086168417925050509392505050565b6000819050919050565b6000819050919050565b6000620002f3620002ed620002e784620002be565b620002c8565b620002be565b9050919050565b6000819050919050565b6200030f83620002d2565b620003276200031e82620002fa565b84845462000268565b825550505050565b600090565b6200033e6200032f565b6200034b81848462000304565b505050565b5b8181101562000373576200036760008262000334565b60018101905062000351565b5050565b601f821115620003c2576200038c8162000236565b62000397846200024b565b81016020851015620003a7578190505b620003bf620003b6856200024b565b83018262000350565b50505b505050565b600082821c905092915050565b6000620003e760001984600802620003c7565b1980831691505092915050565b6000620004028383620003d4565b9150826002028217905092915050565b6200041d8262000198565b67ffffffffffffffff811115620004395762000438620001a3565b5b62000445825462000201565b6200045282828562000377565b600060209050601f8311600181146200048a576000841562000475578287015190505b620004818582620003f4565b865550620004f1565b601f1984166200049a8662000236565b60005b82811015620004c4578489015182556001820191506020850194506020810190506200049d565b86831015620004e45784890151620004e0601f891682620003d4565b8355505b6001600288020188555050505b505050505050565b6128b380620005096000396000f3fe608060405234801561001057600080fd5b506004361061010b5760003560e01c806370a08231116100a2578063a22cb46511610071578063a22cb465146102a4578063b88d4fde146102c0578063c87b56dd146102dc578063e985e9c51461030c578063f2fde38b1461033c5761010b565b806370a082311461022e578063715018a61461025e5780638da5cb5b1461026857806395d89b41146102865761010b565b806323b872dd116100de57806323b872dd146101aa57806331c864e8146101c657806342842e0e146101e25780636352211e146101fe5761010b565b806301ffc9a71461011057806306fdde0314610140578063081812fc1461015e578063095ea7b31461018e575b600080fd5b61012a60048036038101906101259190611a49565b610358565b6040516101379190611a91565b60405180910390f35b61014861043a565b6040516101559190611b3c565b60405180910390f35b61017860048036038101906101739190611b94565b6104cc565b6040516101859190611c02565b60405180910390f35b6101a860048036038101906101a39190611c49565b610512565b005b6101c460048036038101906101bf9190611c89565b610629565b005b6101e060048036038101906101db9190611b94565b610689565b005b6101fc60048036038101906101f79190611c89565b61069e565b005b61021860048036038101906102139190611b94565b6106be565b6040516102259190611c02565b60405180910390f35b61024860048036038101906102439190611cdc565b610744565b6040516102559190611d18565b60405180910390f35b6102666107fb565b005b61027061080f565b60405161027d9190611c02565b60405180910390f35b61028e610839565b60405161029b9190611b3c565b60405180910390f35b6102be60048036038101906102b99190611d5f565b6108cb565b005b6102da60048036038101906102d59190611ed4565b6108e1565b005b6102f660048036038101906102f19190611b94565b610943565b6040516103039190611b3c565b60405180910390f35b61032660048036038101906103219190611f57565b6109ab565b6040516103339190611a91565b60405180910390f35b61035660048036038101906103519190611cdc565b610a3f565b005b60007f80ac58cd000000000000000000000000000000000000000000000000000000007bffffffffffffffffffffffffffffffffffffffffffffffffffffffff1916827bffffffffffffffffffffffffffffffffffffffffffffffffffffffff1916148061042357507f5b5e139f000000000000000000000000000000000000000000000000000000007bffffffffffffffffffffffffffffffffffffffffffffffffffffffff1916827bffffffffffffffffffffffffffffffffffffffffffffffffffffffff1916145b80610433575061043282610ac2565b5b9050919050565b60606000805461044990611fc6565b80601f016020809104026020016040519081016040528092919081815260200182805461047590611fc6565b80156104c25780601f10610497576101008083540402835291602001916104c2565b820191906000526020600020905b8154815290600101906020018083116104a557829003601f168201915b5050505050905090565b60006104d782610b2c565b6004600083815260200190815260200160002060009054906101000a900473ffffffffffffffffffffffffffffffffffffffff169050919050565b600061051d826106be565b90508073ffffffffffffffffffffffffffffffffffffffff168373ffffffffffffffffffffffffffffffffffffffff160361058d576040517f08c379a000000000000000000000000000000000000000000000000000000000815260040161058490612069565b60405180910390fd5b8073ffffffffffffffffffffffffffffffffffffffff166105ac610b77565b73ffffffffffffffffffffffffffffffffffffffff1614806105db57506105da816105d5610b77565b6109ab565b5b61061a576040517f08c379a0000000000000000000000000000000000000000000000000000000008152600401610611906120fb565b60405180910390fd5b6106248383610b7f565b505050565b61063a610634610b77565b82610c38565b610679576040517f08c379a00000000000000000000000000000000000000000000000000000000081526004016106709061218d565b60405180910390fd5b610684838383610ccd565b505050565b610691610fc6565b61069b3382611044565b50565b6106b9838383604051806020016040528060008152506108e1565b505050565b6000806106ca83611062565b9050600073ffffffffffffffffffffffffffffffffffffffff168173ffffffffffffffffffffffffffffffffffffffff160361073b576040517f08c379a0000000000000000000000000000000000000000000000000000000008152600401610732906121f9565b60405180910390fd5b80915050919050565b60008073ffffffffffffffffffffffffffffffffffffffff168273ffffffffffffffffffffffffffffffffffffffff16036107b4576040517f08c379a00000000000000000000000000000000000000000000000000000000081526004016107ab9061228b565b60405180910390fd5b600360008373ffffffffffffffffffffffffffffffffffffffff1673ffffffffffffffffffffffffffffffffffffffff168152602001908152602001600020549050919050565b610803610fc6565b61080d600061109f565b565b6000600660009054906101000a900473ffffffffffffffffffffffffffffffffffffffff16905090565b60606001805461084890611fc6565b80601f016020809104026020016040519081016040528092919081815260200182805461087490611fc6565b80156108c15780601f10610896576101008083540402835291602001916108c1565b820191906000526020600020905b8154815290600101906020018083116108a457829003601f168201915b5050505050905090565b6108dd6108d6610b77565b8383611165565b5050565b6108f26108ec610b77565b83610c38565b610931576040517f08c379a00000000000000000000000000000000000000000000000000000000081526004016109289061218d565b60405180910390fd5b61093d848484846112d1565b50505050565b606061094e82610b2c565b600061095861132d565b9050600081511161097857604051806020016040528060008152506109a3565b806109828461134d565b6040516020016109939291906122e7565b6040516020818303038152906040525b915050919050565b6000600560008473ffffffffffffffffffffffffffffffffffffffff1673ffffffffffffffffffffffffffffffffffffffff16815260200190815260200160002060008373ffffffffffffffffffffffffffffffffffffffff1673ffffffffffffffffffffffffffffffffffffffff16815260200190815260200160002060009054906101000a900460ff16905092915050565b610a47610fc6565b600073ffffffffffffffffffffffffffffffffffffffff168173ffffffffffffffffffffffffffffffffffffffff1603610ab6576040517f08c379a0000000000000000000000000000000000000000000000000000000008152600401610aad9061237d565b60405180910390fd5b610abf8161109f565b50565b60007f01ffc9a7000000000000000000000000000000000000000000000000000000007bffffffffffffffffffffffffffffffffffffffffffffffffffffffff1916827bffffffffffffffffffffffffffffffffffffffffffffffffffffffff1916149050919050565b610b358161141b565b610b74576040517f08c379a0000000000000000000000000000000000000000000000000000000008152600401610b6b906121f9565b60405180910390fd5b50565b600033905090565b816004600083815260200190815260200160002060006101000a81548173ffffffffffffffffffffffffffffffffffffffff021916908373ffffffffffffffffffffffffffffffffffffffff160217905550808273ffffffffffffffffffffffffffffffffffffffff16610bf2836106be565b73ffffffffffffffffffffffffffffffffffffffff167f8c5be1e5ebec7d5bd14f71427d1e84f3dd0314c0f7b2291e5b200ac8c7c3b92560405160405180910390a45050565b600080610c44836106be565b90508073ffffffffffffffffffffffffffffffffffffffff168473ffffffffffffffffffffffffffffffffffffffff161480610c865750610c8581856109ab565b5b80610cc457508373ffffffffffffffffffffffffffffffffffffffff16610cac846104cc565b73ffffffffffffffffffffffffffffffffffffffff16145b91505092915050565b8273ffffffffffffffffffffffffffffffffffffffff16610ced826106be565b73ffffffffffffffffffffffffffffffffffffffff1614610d43576040517f08c379a0000000000000000000000000000000000000000000000000000000008152600401610d3a9061240f565b60405180910390fd5b600073ffffffffffffffffffffffffffffffffffffffff168273ffffffffffffffffffffffffffffffffffffffff1603610db2576040517f08c379a0000000000000000000000000000000000000000000000000000000008152600401610da9906124a1565b60405180910390fd5b610dbf838383600161145c565b8273ffffffffffffffffffffffffffffffffffffffff16610ddf826106be565b73ffffffffffffffffffffffffffffffffffffffff1614610e35576040517f08c379a0000000000000000000000000000000000000000000000000000000008152600401610e2c9061240f565b60405180910390fd5b6004600082815260200190815260200160002060006101000a81549073ffffffffffffffffffffffffffffffffffffffff02191690556001600360008573ffffffffffffffffffffffffffffffffffffffff1673ffffffffffffffffffffffffffffffffffffffff168152602001908152602001600020600082825403925050819055506001600360008473ffffffffffffffffffffffffffffffffffffffff1673ffffffffffffffffffffffffffffffffffffffff16815260200190815260200160002060008282540192505081905550816002600083815260200190815260200160002060006101000a81548173ffffffffffffffffffffffffffffffffffffffff021916908373ffffffffffffffffffffffffffffffffffffffff160217905550808273ffffffffffffffffffffffffffffffffffffffff168473ffffffffffffffffffffffffffffffffffffffff167fddf252ad1be2c89b69c2b068fc378daa952ba7f163c4a11628f55a4df523b3ef60405160405180910390a4610fc18383836001611462565b505050565b610fce610b77565b73ffffffffffffffffffffffffffffffffffffffff16610fec61080f565b73ffffffffffffffffffffffffffffffffffffffff1614611042576040517f08c379a00000000000000000000000000000000000000000000000000000000081526004016110399061250d565b60405180910390fd5b565b61105e828260405180602001604052806000815250611468565b5050565b60006002600083815260200190815260200160002060009054906101000a900473ffffffffffffffffffffffffffffffffffffffff169050919050565b6000600660009054906101000a900473ffffffffffffffffffffffffffffffffffffffff16905081600660006101000a81548173ffffffffffffffffffffffffffffffffffffffff021916908373ffffffffffffffffffffffffffffffffffffffff1602179055508173ffffffffffffffffffffffffffffffffffffffff168173ffffffffffffffffffffffffffffffffffffffff167f8be0079c531659141344cd1fd0a4f28419497f9722a3daafe3b4186f6b6457e060405160405180910390a35050565b8173ffffffffffffffffffffffffffffffffffffffff168373ffffffffffffffffffffffffffffffffffffffff16036111d3576040517f08c379a00000000000000000000000000000000000000000000000000000000081526004016111ca90612579565b60405180910390fd5b80600560008573ffffffffffffffffffffffffffffffffffffffff1673ffffffffffffffffffffffffffffffffffffffff16815260200190815260200160002060008473ffffffffffffffffffffffffffffffffffffffff1673ffffffffffffffffffffffffffffffffffffffff16815260200190815260200160002060006101000a81548160ff0219169083151502179055508173ffffffffffffffffffffffffffffffffffffffff168373ffffffffffffffffffffffffffffffffffffffff167f17307eab39ab6107e8899845ad3d59bd9653f200f220920489ca2b5937696c31836040516112c49190611a91565b60405180910390a3505050565b6112dc848484610ccd565b6112e8848484846114c3565b611327576040517f08c379a000000000000000000000000000000000000000000000000000000000815260040161131e9061260b565b60405180910390fd5b50505050565b60606040518060a001604052806068815260200161281660689139905090565b60606000600161135c8461164a565b01905060008167ffffffffffffffff81111561137b5761137a611da9565b5b6040519080825280601f01601f1916602001820160405280156113ad5781602001600182028036833780820191505090505b509050600082602001820190505b600115611410578080600190039150507f3031323334353637383961626364656600000000000000000000000000000000600a86061a8153600a85816114045761140361262b565b5b049450600085036113bb575b819350505050919050565b60008073ffffffffffffffffffffffffffffffffffffffff1661143d83611062565b73ffffffffffffffffffffffffffffffffffffffff1614159050919050565b50505050565b50505050565b611472838361179d565b61147f60008484846114c3565b6114be576040517f08c379a00000000000000000000000000000000000000000000000000000000081526004016114b59061260b565b60405180910390fd5b505050565b60006114e48473ffffffffffffffffffffffffffffffffffffffff166119ba565b1561163d578373ffffffffffffffffffffffffffffffffffffffff1663150b7a0261150d610b77565b8786866040518563ffffffff1660e01b815260040161152f94939291906126af565b6020604051808303816000875af192505050801561156b57506040513d601f19601f820116820180604052508101906115689190612710565b60015b6115ed573d806000811461159b576040519150601f19603f3d011682016040523d82523d6000602084013e6115a0565b606091505b5060008151036115e5576040517f08c379a00000000000000000000000000000000000000000000000000000000081526004016115dc9061260b565b60405180910390fd5b805181602001fd5b63150b7a0260e01b7bffffffffffffffffffffffffffffffffffffffffffffffffffffffff1916817bffffffffffffffffffffffffffffffffffffffffffffffffffffffff191614915050611642565b600190505b949350505050565b600080600090507a184f03e93ff9f4daa797ed6e38ed64bf6a1f01000000000000000083106116a8577a184f03e93ff9f4daa797ed6e38ed64bf6a1f010000000000000000838161169e5761169d61262b565b5b0492506040810190505b6d04ee2d6d415b85acef810000000083106116e5576d04ee2d6d415b85acef810000000083816116db576116da61262b565b5b0492506020810190505b662386f26fc10000831061171457662386f26fc10000838161170a5761170961262b565b5b0492506010810190505b6305f5e100831061173d576305f5e10083816117335761173261262b565b5b0492506008810190505b61271083106117625761271083816117585761175761262b565b5b0492506004810190505b60648310611785576064838161177b5761177a61262b565b5b0492506002810190505b600a8310611794576001810190505b80915050919050565b600073ffffffffffffffffffffffffffffffffffffffff168273ffffffffffffffffffffffffffffffffffffffff160361180c576040517f08c379a000000000000000000000000000000000000000000000000000000000815260040161180390612789565b60405180910390fd5b6118158161141b565b15611855576040517f08c379a000000000000000000000000000000000000000000000000000000000815260040161184c906127f5565b60405180910390fd5b61186360008383600161145c565b61186c8161141b565b156118ac576040517f08c379a00000000000000000000000000000000000000000000000000000000081526004016118a3906127f5565b60405180910390fd5b6001600360008473ffffffffffffffffffffffffffffffffffffffff1673ffffffffffffffffffffffffffffffffffffffff16815260200190815260200160002060008282540192505081905550816002600083815260200190815260200160002060006101000a81548173ffffffffffffffffffffffffffffffffffffffff021916908373ffffffffffffffffffffffffffffffffffffffff160217905550808273ffffffffffffffffffffffffffffffffffffffff16600073ffffffffffffffffffffffffffffffffffffffff167fddf252ad1be2c89b69c2b068fc378daa952ba7f163c4a11628f55a4df523b3ef60405160405180910390a46119b6600083836001611462565b5050565b6000808273ffffffffffffffffffffffffffffffffffffffff163b119050919050565b6000604051905090565b600080fd5b600080fd5b60007fffffffff0000000000000000000000000000000000000000000000000000000082169050919050565b611a26816119f1565b8114611a3157600080fd5b50565b600081359050611a4381611a1d565b92915050565b600060208284031215611a5f57611a5e6119e7565b5b6000611a6d84828501611a34565b91505092915050565b60008115159050919050565b611a8b81611a76565b82525050565b6000602082019050611aa66000830184611a82565b92915050565b600081519050919050565b600082825260208201905092915050565b60005b83811015611ae6578082015181840152602081019050611acb565b60008484015250505050565b6000601f19601f8301169050919050565b6000611b0e82611aac565b611b188185611ab7565b9350611b28818560208601611ac8565b611b3181611af2565b840191505092915050565b60006020820190508181036000830152611b568184611b03565b905092915050565b6000819050919050565b611b7181611b5e565b8114611b7c57600080fd5b50565b600081359050611b8e81611b68565b92915050565b600060208284031215611baa57611ba96119e7565b5b6000611bb884828501611b7f565b91505092915050565b600073ffffffffffffffffffffffffffffffffffffffff82169050919050565b6000611bec82611bc1565b9050919050565b611bfc81611be1565b82525050565b6000602082019050611c176000830184611bf3565b92915050565b611c2681611be1565b8114611c3157600080fd5b50565b600081359050611c4381611c1d565b92915050565b60008060408385031215611c6057611c5f6119e7565b5b6000611c6e85828601611c34565b9250506020611c7f85828601611b7f565b9150509250929050565b600080600060608486031215611ca257611ca16119e7565b5b6000611cb086828701611c34565b9350506020611cc186828701611c34565b9250506040611cd286828701611b7f565b9150509250925092565b600060208284031215611cf257611cf16119e7565b5b6000611d0084828501611c34565b91505092915050565b611d1281611b5e565b82525050565b6000602082019050611d2d6000830184611d09565b92915050565b611d3c81611a76565b8114611d4757600080fd5b50565b600081359050611d5981611d33565b92915050565b60008060408385031215611d7657611d756119e7565b5b6000611d8485828601611c34565b9250506020611d9585828601611d4a565b9150509250929050565b600080fd5b600080fd5b7f4e487b7100000000000000000000000000000000000000000000000000000000600052604160045260246000fd5b611de182611af2565b810181811067ffffffffffffffff82111715611e0057611dff611da9565b5b80604052505050565b6000611e136119dd565b9050611e1f8282611dd8565b919050565b600067ffffffffffffffff821115611e3f57611e3e611da9565b5b611e4882611af2565b9050602081019050919050565b82818337600083830152505050565b6000611e77611e7284611e24565b611e09565b905082815260208101848484011115611e9357611e92611da4565b5b611e9e848285611e55565b509392505050565b600082601f830112611ebb57611eba611d9f565b5b8135611ecb848260208601611e64565b91505092915050565b60008060008060808587031215611eee57611eed6119e7565b5b6000611efc87828801611c34565b9450506020611f0d87828801611c34565b9350506040611f1e87828801611b7f565b925050606085013567ffffffffffffffff811115611f3f57611f3e6119ec565b5b611f4b87828801611ea6565b91505092959194509250565b60008060408385031215611f6e57611f6d6119e7565b5b6000611f7c85828601611c34565b9250506020611f8d85828601611c34565b9150509250929050565b7f4e487b7100000000000000000000000000000000000000000000000000000000600052602260045260246000fd5b60006002820490506001821680611fde57607f821691505b602082108103611ff157611ff0611f97565b5b50919050565b7f4552433732313a20617070726f76616c20746f2063757272656e74206f776e6560008201527f7200000000000000000000000000000000000000000000000000000000000000602082015250565b6000612053602183611ab7565b915061205e82611ff7565b604082019050919050565b6000602082019050818103600083015261208281612046565b9050919050565b7f4552433732313a20617070726f76652063616c6c6572206973206e6f7420746f60008201527f6b656e206f776e6572206f7220617070726f76656420666f7220616c6c000000602082015250565b60006120e5603d83611ab7565b91506120f082612089565b604082019050919050565b60006020820190508181036000830152612114816120d8565b9050919050565b7f4552433732313a2063616c6c6572206973206e6f7420746f6b656e206f776e6560008201527f72206f7220617070726f76656400000000000000000000000000000000000000602082015250565b6000612177602d83611ab7565b91506121828261211b565b604082019050919050565b600060208201905081810360008301526121a68161216a565b9050919050565b7f4552433732313a20696e76616c696420746f6b656e2049440000000000000000600082015250565b60006121e3601883611ab7565b91506121ee826121ad565b602082019050919050565b60006020820190508181036000830152612212816121d6565b9050919050565b7f4552433732313a2061646472657373207a65726f206973206e6f74206120766160008201527f6c6964206f776e65720000000000000000000000000000000000000000000000602082015250565b6000612275602983611ab7565b915061228082612219565b604082019050919050565b600060208201905081810360008301526122a481612268565b9050919050565b600081905092915050565b60006122c182611aac565b6122cb81856122ab565b93506122db818560208601611ac8565b80840191505092915050565b60006122f382856122b6565b91506122ff82846122b6565b91508190509392505050565b7f4f776e61626c653a206e6577206f776e657220697320746865207a65726f206160008201527f6464726573730000000000000000000000000000000000000000000000000000602082015250565b6000612367602683611ab7565b91506123728261230b565b604082019050919050565b600060208201905081810360008301526123968161235a565b9050919050565b7f4552433732313a207472616e736665722066726f6d20696e636f72726563742060008201527f6f776e6572000000000000000000000000000000000000000000000000000000602082015250565b60006123f9602583611ab7565b91506124048261239d565b604082019050919050565b60006020820190508181036000830152612428816123ec565b9050919050565b7f4552433732313a207472616e7366657220746f20746865207a65726f2061646460008201527f7265737300000000000000000000000000000000000000000000000000000000602082015250565b600061248b602483611ab7565b91506124968261242f565b604082019050919050565b600060208201905081810360008301526124ba8161247e565b9050919050565b7f4f776e61626c653a2063616c6c6572206973206e6f7420746865206f776e6572600082015250565b60006124f7602083611ab7565b9150612502826124c1565b602082019050919050565b60006020820190508181036000830152612526816124ea565b9050919050565b7f4552433732313a20617070726f766520746f2063616c6c657200000000000000600082015250565b6000612563601983611ab7565b915061256e8261252d565b602082019050919050565b6000602082019050818103600083015261259281612556565b9050919050565b7f4552433732313a207472616e7366657220746f206e6f6e20455243373231526560008201527f63656976657220696d706c656d656e7465720000000000000000000000000000602082015250565b60006125f5603283611ab7565b915061260082612599565b604082019050919050565b60006020820190508181036000830152612624816125e8565b9050919050565b7f4e487b7100000000000000000000000000000000000000000000000000000000600052601260045260246000fd5b600081519050919050565b600082825260208201905092915050565b60006126818261265a565b61268b8185612665565b935061269b818560208601611ac8565b6126a481611af2565b840191505092915050565b60006080820190506126c46000830187611bf3565b6126d16020830186611bf3565b6126de6040830185611d09565b81810360608301526126f08184612676565b905095945050505050565b60008151905061270a81611a1d565b92915050565b600060208284031215612726576127256119e7565b5b6000612734848285016126fb565b91505092915050565b7f4552433732313a206d696e7420746f20746865207a65726f2061646472657373600082015250565b6000612773602083611ab7565b915061277e8261273d565b602082019050919050565b600060208201905081810360008301526127a281612766565b9050919050565b7f4552433732313a20746f6b656e20616c7265616479206d696e74656400000000600082015250565b60006127df601c83611ab7565b91506127ea826127a9565b602082019050919050565b6000602082019050818103600083015261280e816127d2565b905091905056fe68747470733a2f2f636f696e6463782e73332e616d617a6f6e6177732e636f6d2f7374617469632f696d616765732f34643061313536632d306631352d346465312d623033332d3763653466356538626236622f636f6d706c6574655f6465706f7369742e737667a26469706673582212201260c2a4a6ef5f4ce6259027e50dbdbd98e596955daf6e6d2051222548d6da5664736f6c63430008110033",
  "linkReferences": {},
  "deployedLinkReferences": {}
}