{
  "_format": "hh-sol-artifact-1",
  "contractName": "TicTacToe",
  "sourceName": "contracts/TicTacToe.sol",
  "abi": [
    {
      "anonymous": false,
      "inputs": [
        {
          "indexed": true,
          "internalType": "uint256",
          "name": "gameId",
          "type": "uint256"
        },
        {
          "components": [
            {
              "components": [
                {
                  "internalType": "address payable",
                  "name": "playerAddress",
                  "type": "address"
                },
                {
                  "internalType": "string",
                  "name": "playerName",
                  "type": "string"
                }
              ],
              "internalType": "struct TicTacToe.Player[2]",
              "name": "players",
              "type": "tuple[2]"
            },
            {
              "internalType": "uint256",
              "name": "activePlayer",
              "type": "uint256"
            },
            {
              "internalType": "bool",
              "name": "isRoomActive",
              "type": "bool"
            },
            {
              "components": [
                {
                  "internalType": "address payable",
                  "name": "playerAddress",
                  "type": "address"
                },
                {
                  "internalType": "string",
                  "name": "playerName",
                  "type": "string"
                }
              ],
              "internalType": "struct TicTacToe.Player",
              "name": "winnerPlayer",
              "type": "tuple"
            },
            {
              "internalType": "uint256[9]",
              "name": "board",
              "type": "uint256[9]"
            },
            {
              "internalType": "uint256",
              "name": "lastPlayedTime",
              "type": "uint256"
            },
            {
              "internalType": "uint8",
              "name": "movedRecorded",
              "type": "uint8"
            },
            {
              "internalType": "enum TicTacToe.GameState",
              "name": "state",
              "type": "uint8"
            }
          ],
          "indexed": false,
          "internalType": "struct TicTacToe.Room",
          "name": "room",
          "type": "tuple"
        }
      ],
      "name": "GameEnded",
      "type": "event"
    },
    {
      "anonymous": false,
      "inputs": [
        {
          "indexed": true,
          "internalType": "uint256",
          "name": "gameId",
          "type": "uint256"
        },
        {
          "components": [
            {
              "components": [
                {
                  "internalType": "address payable",
                  "name": "playerAddress",
                  "type": "address"
                },
                {
                  "internalType": "string",
                  "name": "playerName",
                  "type": "string"
                }
              ],
              "internalType": "struct TicTacToe.Player[2]",
              "name": "players",
              "type": "tuple[2]"
            },
            {
              "internalType": "uint256",
              "name": "activePlayer",
              "type": "uint256"
            },
            {
              "internalType": "bool",
              "name": "isRoomActive",
              "type": "bool"
            },
            {
              "components": [
                {
                  "internalType": "address payable",
                  "name": "playerAddress",
                  "type": "address"
                },
                {
                  "internalType": "string",
                  "name": "playerName",
                  "type": "string"
                }
              ],
              "internalType": "struct TicTacToe.Player",
              "name": "winnerPlayer",
              "type": "tuple"
            },
            {
              "internalType": "uint256[9]",
              "name": "board",
              "type": "uint256[9]"
            },
            {
              "internalType": "uint256",
              "name": "lastPlayedTime",
              "type": "uint256"
            },
            {
              "internalType": "uint8",
              "name": "movedRecorded",
              "type": "uint8"
            },
            {
              "internalType": "enum TicTacToe.GameState",
              "name": "state",
              "type": "uint8"
            }
          ],
          "indexed": false,
          "internalType": "struct TicTacToe.Room",
          "name": "room",
          "type": "tuple"
        }
      ],
      "name": "GameStarted",
      "type": "event"
    },
    {
      "inputs": [
        {
          "internalType": "uint256",
          "name": "gameId",
          "type": "uint256"
        }
      ],
      "name": "CheckGameState",
      "outputs": [
        {
          "internalType": "bool",
          "name": "",
          "type": "bool"
        },
        {
          "internalType": "enum TicTacToe.GameState",
          "name": "",
          "type": "uint8"
        }
      ],
      "stateMutability": "nonpayable",
      "type": "function"
    },
    {
      "inputs": [],
      "name": "GAME_TIMEOUT",
      "outputs": [
        {
          "internalType": "uint256",
          "name": "",
          "type": "uint256"
        }
      ],
      "stateMutability": "view",
      "type": "function"
    },
    {
      "inputs": [],
      "name": "STAKE",
      "outputs": [
        {
          "internalType": "uint256",
          "name": "",
          "type": "uint256"
        }
      ],
      "stateMutability": "view",
      "type": "function"
    },
    {
      "inputs": [],
      "name": "contractBalance",
      "outputs": [
        {
          "internalType": "uint256",
          "name": "",
          "type": "uint256"
        }
      ],
      "stateMutability": "view",
      "type": "function"
    },
    {
      "inputs": [
        {
          "internalType": "uint256",
          "name": "gameId",
          "type": "uint256"
        }
      ],
      "name": "getBoardForRoom",
      "outputs": [
        {
          "internalType": "uint256[9]",
          "name": "",
          "type": "uint256[9]"
        }
      ],
      "stateMutability": "view",
      "type": "function"
    },
    {
      "inputs": [
        {
          "internalType": "uint256",
          "name": "gameId",
          "type": "uint256"
        }
      ],
      "name": "isGameRunning",
      "outputs": [
        {
          "internalType": "bool",
          "name": "",
          "type": "bool"
        }
      ],
      "stateMutability": "view",
      "type": "function"
    },
    {
      "inputs": [
        {
          "components": [
            {
              "internalType": "address payable",
              "name": "playerAddress",
              "type": "address"
            },
            {
              "internalType": "string",
              "name": "playerName",
              "type": "string"
            }
          ],
          "internalType": "struct TicTacToe.Player",
          "name": "player",
          "type": "tuple"
        }
      ],
      "name": "joinRoom",
      "outputs": [],
      "stateMutability": "nonpayable",
      "type": "function"
    },
    {
      "inputs": [
        {
          "internalType": "uint256",
          "name": "gameId",
          "type": "uint256"
        },
        {
          "internalType": "uint8",
          "name": "boardIndex",
          "type": "uint8"
        }
      ],
      "name": "move",
      "outputs": [],
      "stateMutability": "nonpayable",
      "type": "function"
    }
  ],
  "bytecode": "0x60806040526040518061010001604052806040518060600160405280600060ff168152602001600160ff168152602001600260ff1681525081526020016040518060600160405280600360ff168152602001600460ff168152602001600560ff1681525081526020016040518060600160405280600660ff168152602001600760ff168152602001600860ff1681525081526020016040518060600160405280600060ff168152602001600460ff168152602001600860ff1681525081526020016040518060600160405280600260ff168152602001600460ff168152602001600660ff1681525081526020016040518060600160405280600060ff168152602001600360ff168152602001600660ff1681525081526020016040518060600160405280600160ff168152602001600460ff168152602001600760ff1681525081526020016040518060600160405280600260ff168152602001600560ff168152602001600860ff16815250815250600090600862000180929190620001b5565b5060006009556000600a60006101000a81548160ff021916908315150217905550348015620001ae57600080fd5b50620002f9565b8260088101928215620001f7579160200282015b82811115620001f657825182906003620001e59291906200020a565b5091602001919060010190620001c9565b5b509050620002069190620002ab565b5090565b826003601f01602090048101928215620002985791602002820160005b838211156200026757835183826101000a81548160ff021916908360ff160217905550926020019260010160208160000104928301926001030262000227565b8015620002965782816101000a81549060ff021916905560010160208160000104928301926001030262000267565b505b509050620002a79190620002d3565b5090565b5b80821115620002cf5760008181620002c59190620002f2565b50600101620002ac565b5090565b5b80821115620002ee576000816000905550600101620002d4565b5090565b5060009055565b61340680620003096000396000f3fe608060405234801561001057600080fd5b50600436106100885760003560e01c8063440b27ac1161005b578063440b27ac146101015780637b939a1f146101315780638b7afe2e1461016157806396ac5ffc1461017f57610088565b8063099420b61461008d5780630a888461146100ab578063125fdbbc146100c75780632d3e0851146100e5575b600080fd5b6100956101b0565b6040516100a29190611bb2565b60405180910390f35b6100c560048036038101906100c09190611bfb565b6101b6565b005b6100cf610538565b6040516100dc9190611bb2565b60405180910390f35b6100ff60048036038101906100fa9190611ca9565b61053d565b005b61011b60048036038101906101169190611ce9565b610dad565b6040516101289190611d31565b60405180910390f35b61014b60048036038101906101469190611ce9565b610dda565b6040516101589190611df7565b60405180910390f35b610169610efa565b6040516101769190611bb2565b60405180910390f35b61019960048036038101906101949190611ce9565b610f94565b6040516101a7929190611e8a565b60405180910390f35b61012c81565b6101f46040518060400160405280600c81526020017f4a6f696e696e6720726f6f6d000000000000000000000000000000000000000081525061109f565b6101fd33611138565b61021a8160000160208101906102139190611f11565b60646111d1565b600a60009054906101000a900460ff1615610466578060086000600954815260200190815260200160002060000160016002811061025b5761025a611f3e565b5b60020201818161026b9190612417565b905050600160086000600954815260200190815260200160002060050160006101000a81548160ff021916908315150217905550600160086000600954815260200190815260200160002060120160016101000a81548160ff021916908360038111156102db576102da611e13565b5b021790555042600860006009548152602001908152602001600020601101819055506000600a60006101000a81548160ff0219169083151502179055506103206113b2565b6009547f13e9a86b2c91defa4e9dedde156974e3d4a6781c6b4387f4fd1eeec183b7ad0e6008600060095481526020019081526020016000206040516103669190612868565b60405180910390a26104616040518060800160405280604581526020016132f26045913960086000600954815260200190815260200160002060000160086000600954815260200190815260200160002060040154600281106103cc576103cb611f3e565b5b6002020160010180546103de9061211e565b80601f016020809104026020016040519081016040528092919081815260200182805461040a9061211e565b80156104575780601f1061042c57610100808354040283529160200191610457565b820191906000526020600020905b81548152906001019060200180831161043a57829003601f168201915b505050505061140c565b610535565b806008600060096000815461047a906128b9565b91905081905581526020019081526020016000206000016000600281106104a4576104a3611f3e565b5b6002020181816104b49190612417565b9050506001600a60006101000a81548160ff0219169083151502179055506104f36040518060600160405280603081526020016133796030913961109f565b600060086000600954815260200190815260200160002060120160016101000a81548160ff0219169083600381111561052f5761052e611e13565b5b02179055505b50565b606481565b816009541015610582576040517f08c379a00000000000000000000000000000000000000000000000000000000081526004016105799061295e565b60405180910390fd5b600860008381526020019081526020016000206000016000600281106105ab576105aa611f3e565b5b6002020160000160009054906101000a900473ffffffffffffffffffffffffffffffffffffffff1673ffffffffffffffffffffffffffffffffffffffff163373ffffffffffffffffffffffffffffffffffffffff1614806106875750600860008381526020019081526020016000206000016001600281106106305761062f611f3e565b5b6002020160000160009054906101000a900473ffffffffffffffffffffffffffffffffffffffff1673ffffffffffffffffffffffffffffffffffffffff163373ffffffffffffffffffffffffffffffffffffffff16145b6106c6576040517f08c379a00000000000000000000000000000000000000000000000000000000081526004016106bd906129ca565b60405180910390fd5b6008600083815260200190815260200160002060050160009054906101000a900460ff16610729576040517f08c379a000000000000000000000000000000000000000000000000000000000815260040161072090612a36565b60405180910390fd5b6000600860008481526020019081526020016000206008018260ff166009811061075657610755611f3e565b5b015414610798576040517f08c379a000000000000000000000000000000000000000000000000000000000815260040161078f90612ac8565b60405180910390fd5b600860008381526020019081526020016000206000016008600084815260200190815260200160002060040154600281106107d6576107d5611f3e565b5b6002020160000160009054906101000a900473ffffffffffffffffffffffffffffffffffffffff1673ffffffffffffffffffffffffffffffffffffffff163373ffffffffffffffffffffffffffffffffffffffff161461086b576040517f08c379a000000000000000000000000000000000000000000000000000000000815260040161086290612b34565b60405180910390fd5b61012c600860008481526020019081526020016000206011015461088f9190612b54565b4211156109be576109856040518060800160405280604781526020016132ab60479139600860008581526020019081526020016000206000016008600086815260200190815260200160002060040154600281106108f0576108ef611f3e565b5b6002020160010180546109029061211e565b80601f016020809104026020016040519081016040528092919081815260200182805461092e9061211e565b801561097b5780601f106109505761010080835404028352916020019161097b565b820191906000526020600020905b81548152906001019060200180831161095e57829003601f168201915b505050505061140c565b6109bd826002600160086000878152602001908152602001600020600401546109ae9190612b54565b6109b89190612bb7565b6114a8565b5b6000600160086000858152602001908152602001600020600401546109e39190612b54565b905080600860008581526020019081526020016000206008018360ff1660098110610a1157610a10611f3e565b5b018190555060086000848152602001908152602001600020601201600081819054906101000a900460ff1680929190610a4990612be8565b91906101000a81548160ff021916908360ff16021790555050610abd8160086000868152602001908152602001600020600801600980602002604051908101604052809291908260098015610ab3576020028201915b815481526020019060010190808311610a9f575b50505050506116f1565b15610ae757610ae28360086000868152602001908152602001600020600401546114a8565b610d65565b60096008600085815260200190815260200160002060120160009054906101000a900460ff1660ff1603610d6457610b366040518060800160405280604281526020016133376042913961109f565b60006008600085815260200190815260200160002060050160006101000a81548160ff02191690831515021790555060036008600085815260200190815260200160002060120160016101000a81548160ff02191690836003811115610b9f57610b9e611e13565b5b02179055506000733328358128832a260c76a4141e19e2a943cd4b6d90508073ffffffffffffffffffffffffffffffffffffffff1663a9059cbb60086000878152602001908152602001600020600001600060028110610c0257610c01611f3e565b5b6002020160000160009054906101000a900473ffffffffffffffffffffffffffffffffffffffff1660646040518363ffffffff1660e01b8152600401610c49929190612c44565b6020604051808303816000875af1158015610c68573d6000803e3d6000fd5b505050506040513d601f19601f82011682018060405250810190610c8c9190612c99565b508073ffffffffffffffffffffffffffffffffffffffff1663a9059cbb60086000878152602001908152602001600020600001600160028110610cd257610cd1611f3e565b5b6002020160000160009054906101000a900473ffffffffffffffffffffffffffffffffffffffff1660646040518363ffffffff1660e01b8152600401610d19929190612c44565b6020604051808303816000875af1158015610d38573d6000803e3d6000fd5b505050506040513d601f19601f82011682018060405250810190610d5c9190612c99565b505050610da9565b5b600281610d729190612bb7565b6008600085815260200190815260200160002060040181905550426008600085815260200190815260200160002060110181905550505b5050565b60006008600083815260200190815260200160002060050160009054906101000a900460ff169050919050565b610de2611b76565b600073ffffffffffffffffffffffffffffffffffffffff1660086000848152602001908152602001600020600001600060028110610e2357610e22611f3e565b5b6002020160000160009054906101000a900473ffffffffffffffffffffffffffffffffffffffff1673ffffffffffffffffffffffffffffffffffffffff1603610ea1576040517f08c379a0000000000000000000000000000000000000000000000000000000008152600401610e9890612d12565b60405180910390fd5b60086000838152602001908152602001600020600801600980602002604051908101604052809291908260098015610eee576020028201915b815481526020019060010190808311610eda575b50505050509050919050565b600080733328358128832a260c76a4141e19e2a943cd4b6d90508073ffffffffffffffffffffffffffffffffffffffff166370a08231306040518263ffffffff1660e01b8152600401610f4d9190612d53565b602060405180830381865afa158015610f6a573d6000803e3d6000fd5b505050506040513d601f19601f82011682018060405250810190610f8e9190612d83565b91505090565b60008061012c6008600085815260200190815260200160002060110154610fbb9190612b54565b42118015611010575060016003811115610fd857610fd7611e13565b5b6008600085815260200190815260200160002060120160019054906101000a900460ff16600381111561100e5761100d611e13565b5b145b1561104e5761104d8360026001600860008881526020019081526020016000206004015461103e9190612b54565b6110489190612bb7565b6114a8565b5b6008600084815260200190815260200160002060050160009054906101000a900460ff166008600085815260200190815260200160002060120160019054906101000a900460ff1691509150915091565b611135816040516024016110b39190612e2f565b6040516020818303038152906040527f41304fac000000000000000000000000000000000000000000000000000000007bffffffffffffffffffffffffffffffffffffffffffffffffffffffff19166020820180517bffffffffffffffffffffffffffffffffffffffffffffffffffffffff8381831617835250505050611861565b50565b6111ce8160405160240161114c9190612d53565b6040516020818303038152906040527f2c2ecbc2000000000000000000000000000000000000000000000000000000007bffffffffffffffffffffffffffffffffffffffffffffffffffffffff19166020820180517bffffffffffffffffffffffffffffffffffffffffffffffffffffffff8381831617835250505050611861565b50565b6000733328358128832a260c76a4141e19e2a943cd4b6d905061126e8173ffffffffffffffffffffffffffffffffffffffff1663dd62ed3e85306040518363ffffffff1660e01b8152600401611228929190612e51565b602060405180830381865afa158015611245573d6000803e3d6000fd5b505050506040513d601f19601f820116820180604052508101906112699190612d83565b61188a565b818173ffffffffffffffffffffffffffffffffffffffff1663dd62ed3e85306040518363ffffffff1660e01b81526004016112aa929190612e51565b602060405180830381865afa1580156112c7573d6000803e3d6000fd5b505050506040513d601f19601f820116820180604052508101906112eb9190612d83565b101561132c576040517f08c379a000000000000000000000000000000000000000000000000000000000815260040161132390612f38565b60405180910390fd5b8073ffffffffffffffffffffffffffffffffffffffff166323b872dd8430856040518463ffffffff1660e01b815260040161136993929190612f58565b6020604051808303816000875af1158015611388573d6000803e3d6000fd5b505050506040513d601f19601f820116820180604052508101906113ac9190612c99565b50505050565b600242336009546040516020016113cb93929190612ff8565b6040516020818303038152906040528051906020012060001c6113ee9190612bb7565b60086000600954815260200190815260200160002060040181905550565b6114a48282604051602401611422929190613035565b6040516020818303038152906040527f4b5c4277000000000000000000000000000000000000000000000000000000007bffffffffffffffffffffffffffffffffffffffffffffffffffffffff19166020820180517bffffffffffffffffffffffffffffffffffffffffffffffffffffffff8381831617835250505050611861565b5050565b60006008600084815260200190815260200160002060050160006101000a81548160ff0219169083151502179055506008600083815260200190815260200160002060000181600281106114ff576114fe611f3e565b5b60020201600860008481526020019081526020016000206006016000820160009054906101000a900473ffffffffffffffffffffffffffffffffffffffff168160000160006101000a81548173ffffffffffffffffffffffffffffffffffffffff021916908373ffffffffffffffffffffffffffffffffffffffff160217905550600182018160010190816115949190613082565b5090505060026008600084815260200190815260200160002060120160016101000a81548160ff021916908360038111156115d2576115d1611e13565b5b02179055506115e082611923565b817f01a43d39372b50813cdabbc04ebdd28227552f4913ef9b0283bb56bfa516f8a7600860008581526020019081526020016000206040516116229190612868565b60405180910390a26116ed6040518060600160405280602881526020016133a96028913960086000858152602001908152602001600020600601600101805461166a9061211e565b80601f01602080910402602001604051908101604052809291908181526020018280546116969061211e565b80156116e35780601f106116b8576101008083540402835291602001916116e3565b820191906000526020600020905b8154815290600101906020018083116116c657829003601f168201915b505050505061140c565b5050565b600080600090505b60088160ff161015611855576000808260ff166008811061171d5761171c611f3e565b5b0160038060200260405190810160405280929190826003801561177b576020028201916000905b82829054906101000a900460ff1660ff16815260200190600101906020826000010492830192600103820291508084116117445790505b5050505050905084848260006003811061179857611797611f3e565b5b602002015160ff16600981106117b1576117b0611f3e565b5b60200201511480156117f457508484826001600381106117d4576117d3611f3e565b5b602002015160ff16600981106117ed576117ec611f3e565b5b6020020151145b8015611831575084848260026003811061181157611810611f3e565b5b602002015160ff166009811061182a57611829611f3e565b5b6020020151145b156118415760019250505061185b565b50808061184d90612be8565b9150506116f9565b50600090505b92915050565b60008151905060006a636f6e736f6c652e6c6f679050602083016000808483855afa5050505050565b6119208160405160240161189e9190611bb2565b6040516020818303038152906040527ff82c50f1000000000000000000000000000000000000000000000000000000007bffffffffffffffffffffffffffffffffffffffffffffffffffffffff19166020820180517bffffffffffffffffffffffffffffffffffffffffffffffffffffffff8381831617835250505050611861565b50565b600073ffffffffffffffffffffffffffffffffffffffff166008600083815260200190815260200160002060060160000160009054906101000a900473ffffffffffffffffffffffffffffffffffffffff1673ffffffffffffffffffffffffffffffffffffffff16036119cb576040517f08c379a00000000000000000000000000000000000000000000000000000000081526004016119c2906131b6565b60405180910390fd5b6000733328358128832a260c76a4141e19e2a943cd4b6d9050600260646119f291906131d6565b8173ffffffffffffffffffffffffffffffffffffffff166370a08231306040518263ffffffff1660e01b8152600401611a2b9190612d53565b602060405180830381865afa158015611a48573d6000803e3d6000fd5b505050506040513d601f19601f82011682018060405250810190611a6c9190612d83565b1015611aad576040517f08c379a0000000000000000000000000000000000000000000000000000000008152600401611aa49061328a565b60405180910390fd5b8073ffffffffffffffffffffffffffffffffffffffff1663a9059cbb6008600085815260200190815260200160002060060160000160009054906101000a900473ffffffffffffffffffffffffffffffffffffffff1660026064611b1191906131d6565b6040518363ffffffff1660e01b8152600401611b2e929190612c44565b6020604051808303816000875af1158015611b4d573d6000803e3d6000fd5b505050506040513d601f19601f82011682018060405250810190611b719190612c99565b505050565b604051806101200160405280600990602082028036833780820191505090505090565b6000819050919050565b611bac81611b99565b82525050565b6000602082019050611bc76000830184611ba3565b92915050565b600080fd5b600080fd5b600080fd5b600060408284031215611bf257611bf1611bd7565b5b81905092915050565b600060208284031215611c1157611c10611bcd565b5b600082013567ffffffffffffffff811115611c2f57611c2e611bd2565b5b611c3b84828501611bdc565b91505092915050565b611c4d81611b99565b8114611c5857600080fd5b50565b600081359050611c6a81611c44565b92915050565b600060ff82169050919050565b611c8681611c70565b8114611c9157600080fd5b50565b600081359050611ca381611c7d565b92915050565b60008060408385031215611cc057611cbf611bcd565b5b6000611cce85828601611c5b565b9250506020611cdf85828601611c94565b9150509250929050565b600060208284031215611cff57611cfe611bcd565b5b6000611d0d84828501611c5b565b91505092915050565b60008115159050919050565b611d2b81611d16565b82525050565b6000602082019050611d466000830184611d22565b92915050565b600060099050919050565b600081905092915050565b6000819050919050565b611d7581611b99565b82525050565b6000611d878383611d6c565b60208301905092915050565b6000602082019050919050565b611da981611d4c565b611db38184611d57565b9250611dbe82611d62565b8060005b83811015611def578151611dd68782611d7b565b9650611de183611d93565b925050600181019050611dc2565b505050505050565b600061012082019050611e0d6000830184611da0565b92915050565b7f4e487b7100000000000000000000000000000000000000000000000000000000600052602160045260246000fd5b60048110611e5357611e52611e13565b5b50565b6000819050611e6482611e42565b919050565b6000611e7482611e56565b9050919050565b611e8481611e69565b82525050565b6000604082019050611e9f6000830185611d22565b611eac6020830184611e7b565b9392505050565b600073ffffffffffffffffffffffffffffffffffffffff82169050919050565b6000611ede82611eb3565b9050919050565b611eee81611ed3565b8114611ef957600080fd5b50565b600081359050611f0b81611ee5565b92915050565b600060208284031215611f2757611f26611bcd565b5b6000611f3584828501611efc565b91505092915050565b7f4e487b7100000000000000000000000000000000000000000000000000000000600052603260045260246000fd5b60008135611f7a81611ee5565b80915050919050565b60008160001b9050919050565b600073ffffffffffffffffffffffffffffffffffffffff611fb084611f83565b9350801983169250808416831791505092915050565b6000819050919050565b6000611feb611fe6611fe184611eb3565b611fc6565b611eb3565b9050919050565b6000611ffd82611fd0565b9050919050565b600061200f82611ff2565b9050919050565b6000819050919050565b61202982612004565b61203c61203582612016565b8354611f90565b8255505050565b600080fd5b600080fd5b600080fd5b6000808335600160200384360303811261206f5761206e612043565b5b80840192508235915067ffffffffffffffff82111561209157612090612048565b5b6020830192506001820236038313156120ad576120ac61204d565b5b509250929050565b600082905092915050565b7f4e487b7100000000000000000000000000000000000000000000000000000000600052604160045260246000fd5b7f4e487b7100000000000000000000000000000000000000000000000000000000600052602260045260246000fd5b6000600282049050600182168061213657607f821691505b602082108103612149576121486120ef565b5b50919050565b60008190508160005260206000209050919050565b60006020601f8301049050919050565b600082821b905092915050565b6000600883026121b17fffffffffffffffffffffffffffffffffffffffffffffffffffffffffffffffff82612174565b6121bb8683612174565b95508019841693508086168417925050509392505050565b60006121ee6121e96121e484611b99565b611fc6565b611b99565b9050919050565b6000819050919050565b612208836121d3565b61221c612214826121f5565b848454612181565b825550505050565b600090565b612231612224565b61223c8184846121ff565b505050565b5b8181101561226057612255600082612229565b600181019050612242565b5050565b601f8211156122a5576122768161214f565b61227f84612164565b8101602085101561228e578190505b6122a261229a85612164565b830182612241565b50505b505050565b600082821c905092915050565b60006122c8600019846008026122aa565b1980831691505092915050565b60006122e183836122b7565b9150826002028217905092915050565b6122fb83836120b5565b67ffffffffffffffff811115612314576123136120c0565b5b61231e825461211e565b612329828285612264565b6000601f8311600181146123585760008415612346578287013590505b61235085826122d5565b8655506123b8565b601f1984166123668661214f565b60005b8281101561238e57848901358255600182019150602085019450602081019050612369565b868310156123ab57848901356123a7601f8916826122b7565b8355505b6001600288020188555050505b50505050505050565b6123cc8383836122f1565b505050565b6000810160008301806123e381611f6d565b90506123ef8184612020565b50505060018101602083016124048185612052565b61240f8183866123c1565b505050505050565b61242182826123d1565b5050565b600060029050919050565b600081905092915050565b6000819050919050565b60008160001c9050919050565b600073ffffffffffffffffffffffffffffffffffffffff82169050919050565b600061248561248083612445565b612452565b9050919050565b61249581611ed3565b82525050565b600082825260208201905092915050565b600081546124b98161211e565b6124c3818661249b565b945060018216600081146124de57600181146124f457612527565b60ff198316865281151560200286019350612527565b6124fd8561214f565b60005b8381101561251f57815481890152600182019150602081019050612500565b808801955050505b50505092915050565b600060408301600080840154905061254781612472565b612554600087018261248c565b5060018401858303602087015261256b83826124ac565b925050819250505092915050565b60006125858383612530565b905092915050565b6000600282019050919050565b60006125a582612425565b6125af8185612430565b9350836020820285016125c18561243b565b8060005b858110156125fc578484038952816125dd8582612579565b94506125e88361258d565b925060208a019950506001810190506125c5565b50829750879550505050505092915050565b6000819050919050565b600061262b61262683612445565b61260e565b9050919050565b600060ff82169050919050565b600061265261264d83612445565b612632565b9050919050565b61266281611d16565b82525050565b600060099050919050565b600081905092915050565b6000819050919050565b60006126948254612618565b9050919050565b6000600182019050919050565b6126b181612668565b6126bb8184612673565b92506126c68261267e565b8060005b838110156126fe576126db82612688565b6126e58782611d7b565b96506126f08361269b565b9250506001810190506126ca565b505050505050565b600060ff82169050919050565b600061272661272183612445565b612706565b9050919050565b61273681611c70565b82525050565b60008160081c9050919050565b600060ff82169050919050565b60006127696127648361273c565b612749565b9050919050565b61277981611e69565b82525050565b600061020083016000808401858303600087015261279d838261259a565b925050600484015490506127b081612618565b6127bd6020870182611d6c565b50600584015490506127ce8161263f565b6127db6040870182612659565b506006840185830360608701526127f28382612530565b9250506008840161280660808701826126a8565b506011840154905061281781612618565b6128256101a0870182611d6c565b506012840154905061283681612713565b6128446101c087018261272d565b5061284e81612756565b61285c6101e0870182612770565b50819250505092915050565b60006020820190508181036000830152612882818461277f565b905092915050565b7f4e487b7100000000000000000000000000000000000000000000000000000000600052601160045260246000fd5b60006128c482611b99565b91507fffffffffffffffffffffffffffffffffffffffffffffffffffffffffffffffff82036128f6576128f561288a565b5b600182019050919050565b600082825260208201905092915050565b7f526f6f6d20646f6573206e6f7420657869737400000000000000000000000000600082015250565b6000612948601383612901565b915061295382612912565b602082019050919050565b600060208201905081810360008301526129778161293b565b9050919050565b7f556e6b6e6f776e20706c61796572000000000000000000000000000000000000600082015250565b60006129b4600e83612901565b91506129bf8261297e565b602082019050919050565b600060208201905081810360008301526129e3816129a7565b9050919050565b7f47616d65206973204f7665720000000000000000000000000000000000000000600082015250565b6000612a20600c83612901565b9150612a2b826129ea565b602082019050919050565b60006020820190508181036000830152612a4f81612a13565b9050919050565b7f416e6f7468657220506c6179657220616c726561647920706c6179656420746860008201527f6973206d6f76652e2054727920616e6f74686572000000000000000000000000602082015250565b6000612ab2603483612901565b9150612abd82612a56565b604082019050919050565b60006020820190508181036000830152612ae181612aa5565b9050919050565b7f49742773206e6f7420796f7572207475726e2e20506c65617365207761697400600082015250565b6000612b1e601f83612901565b9150612b2982612ae8565b602082019050919050565b60006020820190508181036000830152612b4d81612b11565b9050919050565b6000612b5f82611b99565b9150612b6a83611b99565b9250828201905080821115612b8257612b8161288a565b5b92915050565b7f4e487b7100000000000000000000000000000000000000000000000000000000600052601260045260246000fd5b6000612bc282611b99565b9150612bcd83611b99565b925082612bdd57612bdc612b88565b5b828206905092915050565b6000612bf382611c70565b915060ff8203612c0657612c0561288a565b5b600182019050919050565b6000612c1c82611fd0565b9050919050565b6000612c2e82612c11565b9050919050565b612c3e81612c23565b82525050565b6000604082019050612c596000830185612c35565b612c666020830184611ba3565b9392505050565b612c7681611d16565b8114612c8157600080fd5b50565b600081519050612c9381612c6d565b92915050565b600060208284031215612caf57612cae611bcd565b5b6000612cbd84828501612c84565b91505092915050565b7f47616d6520646f6573206e6f7420657869737400000000000000000000000000600082015250565b6000612cfc601383612901565b9150612d0782612cc6565b602082019050919050565b60006020820190508181036000830152612d2b81612cef565b9050919050565b6000612d3d82611eb3565b9050919050565b612d4d81612d32565b82525050565b6000602082019050612d686000830184612d44565b92915050565b600081519050612d7d81611c44565b92915050565b600060208284031215612d9957612d98611bcd565b5b6000612da784828501612d6e565b91505092915050565b600081519050919050565b60005b83811015612dd9578082015181840152602081019050612dbe565b60008484015250505050565b6000601f19601f8301169050919050565b6000612e0182612db0565b612e0b8185612901565b9350612e1b818560208601612dbb565b612e2481612de5565b840191505092915050565b60006020820190508181036000830152612e498184612df6565b905092915050565b6000604082019050612e666000830185612d44565b612e736020830184612d44565b9392505050565b7f506c6179657220686173206e6f7420676976656e20617574686f72697479207460008201527f6f207472616e7366657220746f6b656e2066726f6d20686973206163636f756e60208201527f742e20506c656173652061736b2068696d20746f20617070726f76652074686560408201527f207472616e736665722e00000000000000000000000000000000000000000000606082015250565b6000612f22606a83612901565b9150612f2d82612e7a565b608082019050919050565b60006020820190508181036000830152612f5181612f15565b9050919050565b6000606082019050612f6d6000830186612d44565b612f7a6020830185612d44565b612f876040830184611ba3565b949350505050565b6000819050919050565b612faa612fa582611b99565b612f8f565b82525050565b60008160601b9050919050565b6000612fc882612fb0565b9050919050565b6000612fda82612fbd565b9050919050565b612ff2612fed82612d32565b612fcf565b82525050565b60006130048286612f99565b6020820191506130148285612fe1565b6014820191506130248284612f99565b602082019150819050949350505050565b6000604082019050818103600083015261304f8185612df6565b905081810360208301526130638184612df6565b90509392505050565b60008154905061307b8161211e565b9050919050565b818103613090575050613168565b6130998261306c565b67ffffffffffffffff8111156130b2576130b16120c0565b5b6130bc825461211e565b6130c7828285612264565b6000601f8311600181146130f657600084156130e4578287015490505b6130ee85826122d5565b865550613161565b601f1984166131048761214f565b965061310f8661214f565b60005b8281101561313757848901548255600182019150600185019450602081019050613112565b868310156131545784890154613150601f8916826122b7565b8355505b6001600288020188555050505b5050505050505b565b7f5468657265206973206e6f2077696e6e65722079657400000000000000000000600082015250565b60006131a0601683612901565b91506131ab8261316a565b602082019050919050565b600060208201905081810360008301526131cf81613193565b9050919050565b60006131e182611b99565b91506131ec83611b99565b92508282026131fa81611b99565b915082820484148315176132115761321061288a565b5b5092915050565b7f596f7520646f206e6f742068617665207375666669656e742062616c616e636560008201527f20746f2072657761726400000000000000000000000000000000000000000000602082015250565b6000613274602a83612901565b915061327f82613218565b604082019050919050565b600060208201905081810360008301526132a381613267565b905091905056fe25732c207361646c7920796f7520686176652065786365656465642074696d6520746f207265636f72642061206d6f7665203a282e20596f75206c6f7374207468652067616d65506c61796572203220616c736f20656e746572656420696e746f2067616d652c204c6574277320626567696e212120616e6420746865207475726e20697320666f72202573416c69617321212049742773206120647261772e2052657475726e696e6720796f75722068617264206561726e656420746f6b656e206261636b20746f20796f752e506c61796572203120656e746572656420696e746f2067616d652c2077616974696e6720666f7220706c617965722032436f6e67726174756c6174696f6e7320257320666f722077696e6e696e67207468652067616d652ea2646970667358221220553b7ff689fdbe24b6c61d54d55beb517b52f393ea083880b59dd65afb6e1e2264736f6c63430008110033",
  "linkReferences": {},
  "deployedLinkReferences": {}
}