{
  "_format": "hh-sol-artifact-1",
  "contractName": "TicTacToe",
  "sourceName": "contracts/TicTacToe.sol",
  "abi": [
    {
      "anonymous": false,
      "inputs": [
        {
          "indexed": true,
          "internalType": "uint256",
          "name": "gameId",
          "type": "uint256"
        },
        {
          "components": [
            {
              "components": [
                {
                  "internalType": "address payable",
                  "name": "playerAddress",
                  "type": "address"
                },
                {
                  "internalType": "string",
                  "name": "playerName",
                  "type": "string"
                }
              ],
              "internalType": "struct TicTacToe.Player[2]",
              "name": "players",
              "type": "tuple[2]"
            },
            {
              "internalType": "uint256",
              "name": "activePlayer",
              "type": "uint256"
            },
            {
              "internalType": "bool",
              "name": "isRoomActive",
              "type": "bool"
            },
            {
              "components": [
                {
                  "internalType": "address payable",
                  "name": "playerAddress",
                  "type": "address"
                },
                {
                  "internalType": "string",
                  "name": "playerName",
                  "type": "string"
                }
              ],
              "internalType": "struct TicTacToe.Player",
              "name": "winnerPlayer",
              "type": "tuple"
            },
            {
              "internalType": "uint256[9]",
              "name": "board",
              "type": "uint256[9]"
            },
            {
              "internalType": "uint256",
              "name": "lastPlayedTime",
              "type": "uint256"
            },
            {
              "internalType": "uint8",
              "name": "movedRecorded",
              "type": "uint8"
            },
            {
              "internalType": "enum TicTacToe.GameState",
              "name": "state",
              "type": "uint8"
            }
          ],
          "indexed": false,
          "internalType": "struct TicTacToe.Room",
          "name": "room",
          "type": "tuple"
        }
      ],
      "name": "GameEnded",
      "type": "event"
    },
    {
      "anonymous": false,
      "inputs": [
        {
          "indexed": true,
          "internalType": "uint256",
          "name": "gameId",
          "type": "uint256"
        },
        {
          "components": [
            {
              "components": [
                {
                  "internalType": "address payable",
                  "name": "playerAddress",
                  "type": "address"
                },
                {
                  "internalType": "string",
                  "name": "playerName",
                  "type": "string"
                }
              ],
              "internalType": "struct TicTacToe.Player[2]",
              "name": "players",
              "type": "tuple[2]"
            },
            {
              "internalType": "uint256",
              "name": "activePlayer",
              "type": "uint256"
            },
            {
              "internalType": "bool",
              "name": "isRoomActive",
              "type": "bool"
            },
            {
              "components": [
                {
                  "internalType": "address payable",
                  "name": "playerAddress",
                  "type": "address"
                },
                {
                  "internalType": "string",
                  "name": "playerName",
                  "type": "string"
                }
              ],
              "internalType": "struct TicTacToe.Player",
              "name": "winnerPlayer",
              "type": "tuple"
            },
            {
              "internalType": "uint256[9]",
              "name": "board",
              "type": "uint256[9]"
            },
            {
              "internalType": "uint256",
              "name": "lastPlayedTime",
              "type": "uint256"
            },
            {
              "internalType": "uint8",
              "name": "movedRecorded",
              "type": "uint8"
            },
            {
              "internalType": "enum TicTacToe.GameState",
              "name": "state",
              "type": "uint8"
            }
          ],
          "indexed": false,
          "internalType": "struct TicTacToe.Room",
          "name": "room",
          "type": "tuple"
        }
      ],
      "name": "GameStarted",
      "type": "event"
    },
    {
      "inputs": [
        {
          "internalType": "uint256",
          "name": "gameId",
          "type": "uint256"
        }
      ],
      "name": "CheckGameState",
      "outputs": [
        {
          "internalType": "bool",
          "name": "",
          "type": "bool"
        },
        {
          "internalType": "enum TicTacToe.GameState",
          "name": "",
          "type": "uint8"
        }
      ],
      "stateMutability": "nonpayable",
      "type": "function"
    },
    {
      "inputs": [],
      "name": "GAME_TIMEOUT",
      "outputs": [
        {
          "internalType": "uint256",
          "name": "",
          "type": "uint256"
        }
      ],
      "stateMutability": "view",
      "type": "function"
    },
    {
      "inputs": [],
      "name": "STAKE",
      "outputs": [
        {
          "internalType": "uint256",
          "name": "",
          "type": "uint256"
        }
      ],
      "stateMutability": "view",
      "type": "function"
    },
    {
      "inputs": [],
      "name": "contractBalance",
      "outputs": [
        {
          "internalType": "uint256",
          "name": "",
          "type": "uint256"
        }
      ],
      "stateMutability": "view",
      "type": "function"
    },
    {
      "inputs": [
        {
          "internalType": "uint256",
          "name": "gameId",
          "type": "uint256"
        }
      ],
      "name": "getBoardForRoom",
      "outputs": [
        {
          "internalType": "uint256[9]",
          "name": "",
          "type": "uint256[9]"
        }
      ],
      "stateMutability": "view",
      "type": "function"
    },
    {
      "inputs": [
        {
          "internalType": "uint256",
          "name": "gameId",
          "type": "uint256"
        }
      ],
      "name": "isGameRunning",
      "outputs": [
        {
          "internalType": "bool",
          "name": "",
          "type": "bool"
        }
      ],
      "stateMutability": "view",
      "type": "function"
    },
    {
      "inputs": [
        {
          "components": [
            {
              "internalType": "address payable",
              "name": "playerAddress",
              "type": "address"
            },
            {
              "internalType": "string",
              "name": "playerName",
              "type": "string"
            }
          ],
          "internalType": "struct TicTacToe.Player",
          "name": "player",
          "type": "tuple"
        }
      ],
      "name": "joinRoom",
      "outputs": [
        {
          "internalType": "uint256",
          "name": "",
          "type": "uint256"
        }
      ],
      "stateMutability": "nonpayable",
      "type": "function"
    },
    {
      "inputs": [
        {
          "internalType": "uint256",
          "name": "gameId",
          "type": "uint256"
        },
        {
          "internalType": "uint8",
          "name": "boardIndex",
          "type": "uint8"
        }
      ],
      "name": "move",
      "outputs": [],
      "stateMutability": "nonpayable",
      "type": "function"
    }
  ],
  "bytecode": "0x60806040526040518061010001604052806040518060600160405280600060ff168152602001600160ff168152602001600260ff1681525081526020016040518060600160405280600360ff168152602001600460ff168152602001600560ff1681525081526020016040518060600160405280600660ff168152602001600760ff168152602001600860ff1681525081526020016040518060600160405280600060ff168152602001600460ff168152602001600860ff1681525081526020016040518060600160405280600260ff168152602001600460ff168152602001600660ff1681525081526020016040518060600160405280600060ff168152602001600360ff168152602001600660ff1681525081526020016040518060600160405280600160ff168152602001600460ff168152602001600760ff1681525081526020016040518060600160405280600260ff168152602001600560ff168152602001600860ff16815250815250600090600862000180929190620001b5565b5060006009556000600a60006101000a81548160ff021916908315150217905550348015620001ae57600080fd5b50620002f9565b8260088101928215620001f7579160200282015b82811115620001f657825182906003620001e59291906200020a565b5091602001919060010190620001c9565b5b509050620002069190620002ab565b5090565b826003601f01602090048101928215620002985791602002820160005b838211156200026757835183826101000a81548160ff021916908360ff160217905550926020019260010160208160000104928301926001030262000227565b8015620002965782816101000a81549060ff021916905560010160208160000104928301926001030262000267565b505b509050620002a79190620002d3565b5090565b5b80821115620002cf5760008181620002c59190620002f2565b50600101620002ac565b5090565b5b80821115620002ee576000816000905550600101620002d4565b5090565b5060009055565b61342380620003096000396000f3fe608060405234801561001057600080fd5b50600436106100885760003560e01c8063440b27ac1161005b578063440b27ac146101155780637b939a1f146101455780638b7afe2e1461017557806396ac5ffc1461019357610088565b8063099420b61461008d5780630a888461146100ab578063125fdbbc146100db5780632d3e0851146100f9575b600080fd5b6100956101c4565b6040516100a29190611bcf565b60405180910390f35b6100c560048036038101906100c09190611c18565b6101ca565b6040516100d29190611bcf565b60405180910390f35b6100e3610555565b6040516100f09190611bcf565b60405180910390f35b610113600480360381019061010e9190611cc6565b61055a565b005b61012f600480360381019061012a9190611d06565b610dca565b60405161013c9190611d4e565b60405180910390f35b61015f600480360381019061015a9190611d06565b610df7565b60405161016c9190611e14565b60405180910390f35b61017d610f17565b60405161018a9190611bcf565b60405180910390f35b6101ad60048036038101906101a89190611d06565b610fb1565b6040516101bb929190611ea7565b60405180910390f35b61012c81565b600061020a6040518060400160405280600c81526020017f4a6f696e696e6720726f6f6d00000000000000000000000000000000000000008152506110bc565b61021333611155565b6102308260000160208101906102299190611f2e565b60646111ee565b600a60009054906101000a900460ff161561047c578160086000600954815260200190815260200160002060000160016002811061027157610270611f5b565b5b6002020181816102819190612434565b905050600160086000600954815260200190815260200160002060050160006101000a81548160ff021916908315150217905550600160086000600954815260200190815260200160002060120160016101000a81548160ff021916908360038111156102f1576102f0611e30565b5b021790555042600860006009548152602001908152602001600020601101819055506000600a60006101000a81548160ff0219169083151502179055506103366113cf565b6009547f13e9a86b2c91defa4e9dedde156974e3d4a6781c6b4387f4fd1eeec183b7ad0e60086000600954815260200190815260200160002060405161037c9190612885565b60405180910390a261047760405180608001604052806045815260200161330f6045913960086000600954815260200190815260200160002060000160086000600954815260200190815260200160002060040154600281106103e2576103e1611f5b565b5b6002020160010180546103f49061213b565b80601f01602080910402602001604051908101604052809291908181526020018280546104209061213b565b801561046d5780601f106104425761010080835404028352916020019161046d565b820191906000526020600020905b81548152906001019060200180831161045057829003601f168201915b5050505050611429565b61054b565b8160086000600960008154610490906128d6565b91905081905581526020019081526020016000206000016000600281106104ba576104b9611f5b565b5b6002020181816104ca9190612434565b9050506001600a60006101000a81548160ff021916908315150217905550610509604051806060016040528060308152602001613396603091396110bc565b600060086000600954815260200190815260200160002060120160016101000a81548160ff0219169083600381111561054557610544611e30565b5b02179055505b6009549050919050565b606481565b81600954101561059f576040517f08c379a00000000000000000000000000000000000000000000000000000000081526004016105969061297b565b60405180910390fd5b600860008381526020019081526020016000206000016000600281106105c8576105c7611f5b565b5b6002020160000160009054906101000a900473ffffffffffffffffffffffffffffffffffffffff1673ffffffffffffffffffffffffffffffffffffffff163373ffffffffffffffffffffffffffffffffffffffff1614806106a457506008600083815260200190815260200160002060000160016002811061064d5761064c611f5b565b5b6002020160000160009054906101000a900473ffffffffffffffffffffffffffffffffffffffff1673ffffffffffffffffffffffffffffffffffffffff163373ffffffffffffffffffffffffffffffffffffffff16145b6106e3576040517f08c379a00000000000000000000000000000000000000000000000000000000081526004016106da906129e7565b60405180910390fd5b6008600083815260200190815260200160002060050160009054906101000a900460ff16610746576040517f08c379a000000000000000000000000000000000000000000000000000000000815260040161073d90612a53565b60405180910390fd5b6000600860008481526020019081526020016000206008018260ff166009811061077357610772611f5b565b5b0154146107b5576040517f08c379a00000000000000000000000000000000000000000000000000000000081526004016107ac90612ae5565b60405180910390fd5b600860008381526020019081526020016000206000016008600084815260200190815260200160002060040154600281106107f3576107f2611f5b565b5b6002020160000160009054906101000a900473ffffffffffffffffffffffffffffffffffffffff1673ffffffffffffffffffffffffffffffffffffffff163373ffffffffffffffffffffffffffffffffffffffff1614610888576040517f08c379a000000000000000000000000000000000000000000000000000000000815260040161087f90612b51565b60405180910390fd5b61012c60086000848152602001908152602001600020601101546108ac9190612b71565b4211156109db576109a26040518060800160405280604781526020016132c8604791396008600085815260200190815260200160002060000160086000868152602001908152602001600020600401546002811061090d5761090c611f5b565b5b60020201600101805461091f9061213b565b80601f016020809104026020016040519081016040528092919081815260200182805461094b9061213b565b80156109985780601f1061096d57610100808354040283529160200191610998565b820191906000526020600020905b81548152906001019060200180831161097b57829003601f168201915b5050505050611429565b6109da826002600160086000878152602001908152602001600020600401546109cb9190612b71565b6109d59190612bd4565b6114c5565b5b600060016008600085815260200190815260200160002060040154610a009190612b71565b905080600860008581526020019081526020016000206008018360ff1660098110610a2e57610a2d611f5b565b5b018190555060086000848152602001908152602001600020601201600081819054906101000a900460ff1680929190610a6690612c05565b91906101000a81548160ff021916908360ff16021790555050610ada8160086000868152602001908152602001600020600801600980602002604051908101604052809291908260098015610ad0576020028201915b815481526020019060010190808311610abc575b505050505061170e565b15610b0457610aff8360086000868152602001908152602001600020600401546114c5565b610d82565b60096008600085815260200190815260200160002060120160009054906101000a900460ff1660ff1603610d8157610b53604051806080016040528060428152602001613354604291396110bc565b60006008600085815260200190815260200160002060050160006101000a81548160ff02191690831515021790555060036008600085815260200190815260200160002060120160016101000a81548160ff02191690836003811115610bbc57610bbb611e30565b5b02179055506000733328358128832a260c76a4141e19e2a943cd4b6d90508073ffffffffffffffffffffffffffffffffffffffff1663a9059cbb60086000878152602001908152602001600020600001600060028110610c1f57610c1e611f5b565b5b6002020160000160009054906101000a900473ffffffffffffffffffffffffffffffffffffffff1660646040518363ffffffff1660e01b8152600401610c66929190612c61565b6020604051808303816000875af1158015610c85573d6000803e3d6000fd5b505050506040513d601f19601f82011682018060405250810190610ca99190612cb6565b508073ffffffffffffffffffffffffffffffffffffffff1663a9059cbb60086000878152602001908152602001600020600001600160028110610cef57610cee611f5b565b5b6002020160000160009054906101000a900473ffffffffffffffffffffffffffffffffffffffff1660646040518363ffffffff1660e01b8152600401610d36929190612c61565b6020604051808303816000875af1158015610d55573d6000803e3d6000fd5b505050506040513d601f19601f82011682018060405250810190610d799190612cb6565b505050610dc6565b5b600281610d8f9190612bd4565b6008600085815260200190815260200160002060040181905550426008600085815260200190815260200160002060110181905550505b5050565b60006008600083815260200190815260200160002060050160009054906101000a900460ff169050919050565b610dff611b93565b600073ffffffffffffffffffffffffffffffffffffffff1660086000848152602001908152602001600020600001600060028110610e4057610e3f611f5b565b5b6002020160000160009054906101000a900473ffffffffffffffffffffffffffffffffffffffff1673ffffffffffffffffffffffffffffffffffffffff1603610ebe576040517f08c379a0000000000000000000000000000000000000000000000000000000008152600401610eb590612d2f565b60405180910390fd5b60086000838152602001908152602001600020600801600980602002604051908101604052809291908260098015610f0b576020028201915b815481526020019060010190808311610ef7575b50505050509050919050565b600080733328358128832a260c76a4141e19e2a943cd4b6d90508073ffffffffffffffffffffffffffffffffffffffff166370a08231306040518263ffffffff1660e01b8152600401610f6a9190612d70565b602060405180830381865afa158015610f87573d6000803e3d6000fd5b505050506040513d601f19601f82011682018060405250810190610fab9190612da0565b91505090565b60008061012c6008600085815260200190815260200160002060110154610fd89190612b71565b4211801561102d575060016003811115610ff557610ff4611e30565b5b6008600085815260200190815260200160002060120160019054906101000a900460ff16600381111561102b5761102a611e30565b5b145b1561106b5761106a8360026001600860008881526020019081526020016000206004015461105b9190612b71565b6110659190612bd4565b6114c5565b5b6008600084815260200190815260200160002060050160009054906101000a900460ff166008600085815260200190815260200160002060120160019054906101000a900460ff1691509150915091565b611152816040516024016110d09190612e4c565b6040516020818303038152906040527f41304fac000000000000000000000000000000000000000000000000000000007bffffffffffffffffffffffffffffffffffffffffffffffffffffffff19166020820180517bffffffffffffffffffffffffffffffffffffffffffffffffffffffff838183161783525050505061187e565b50565b6111eb816040516024016111699190612d70565b6040516020818303038152906040527f2c2ecbc2000000000000000000000000000000000000000000000000000000007bffffffffffffffffffffffffffffffffffffffffffffffffffffffff19166020820180517bffffffffffffffffffffffffffffffffffffffffffffffffffffffff838183161783525050505061187e565b50565b6000733328358128832a260c76a4141e19e2a943cd4b6d905061128b8173ffffffffffffffffffffffffffffffffffffffff1663dd62ed3e85306040518363ffffffff1660e01b8152600401611245929190612e6e565b602060405180830381865afa158015611262573d6000803e3d6000fd5b505050506040513d601f19601f820116820180604052508101906112869190612da0565b6118a7565b818173ffffffffffffffffffffffffffffffffffffffff1663dd62ed3e85306040518363ffffffff1660e01b81526004016112c7929190612e6e565b602060405180830381865afa1580156112e4573d6000803e3d6000fd5b505050506040513d601f19601f820116820180604052508101906113089190612da0565b1015611349576040517f08c379a000000000000000000000000000000000000000000000000000000000815260040161134090612f55565b60405180910390fd5b8073ffffffffffffffffffffffffffffffffffffffff166323b872dd8430856040518463ffffffff1660e01b815260040161138693929190612f75565b6020604051808303816000875af11580156113a5573d6000803e3d6000fd5b505050506040513d601f19601f820116820180604052508101906113c99190612cb6565b50505050565b600242336009546040516020016113e893929190613015565b6040516020818303038152906040528051906020012060001c61140b9190612bd4565b60086000600954815260200190815260200160002060040181905550565b6114c1828260405160240161143f929190613052565b6040516020818303038152906040527f4b5c4277000000000000000000000000000000000000000000000000000000007bffffffffffffffffffffffffffffffffffffffffffffffffffffffff19166020820180517bffffffffffffffffffffffffffffffffffffffffffffffffffffffff838183161783525050505061187e565b5050565b60006008600084815260200190815260200160002060050160006101000a81548160ff02191690831515021790555060086000838152602001908152602001600020600001816002811061151c5761151b611f5b565b5b60020201600860008481526020019081526020016000206006016000820160009054906101000a900473ffffffffffffffffffffffffffffffffffffffff168160000160006101000a81548173ffffffffffffffffffffffffffffffffffffffff021916908373ffffffffffffffffffffffffffffffffffffffff160217905550600182018160010190816115b1919061309f565b5090505060026008600084815260200190815260200160002060120160016101000a81548160ff021916908360038111156115ef576115ee611e30565b5b02179055506115fd82611940565b817f01a43d39372b50813cdabbc04ebdd28227552f4913ef9b0283bb56bfa516f8a76008600085815260200190815260200160002060405161163f9190612885565b60405180910390a261170a6040518060600160405280602881526020016133c6602891396008600085815260200190815260200160002060060160010180546116879061213b565b80601f01602080910402602001604051908101604052809291908181526020018280546116b39061213b565b80156117005780601f106116d557610100808354040283529160200191611700565b820191906000526020600020905b8154815290600101906020018083116116e357829003601f168201915b5050505050611429565b5050565b600080600090505b60088160ff161015611872576000808260ff166008811061173a57611739611f5b565b5b01600380602002604051908101604052809291908260038015611798576020028201916000905b82829054906101000a900460ff1660ff16815260200190600101906020826000010492830192600103820291508084116117615790505b505050505090508484826000600381106117b5576117b4611f5b565b5b602002015160ff16600981106117ce576117cd611f5b565b5b602002015114801561181157508484826001600381106117f1576117f0611f5b565b5b602002015160ff166009811061180a57611809611f5b565b5b6020020151145b801561184e575084848260026003811061182e5761182d611f5b565b5b602002015160ff166009811061184757611846611f5b565b5b6020020151145b1561185e57600192505050611878565b50808061186a90612c05565b915050611716565b50600090505b92915050565b60008151905060006a636f6e736f6c652e6c6f679050602083016000808483855afa5050505050565b61193d816040516024016118bb9190611bcf565b6040516020818303038152906040527ff82c50f1000000000000000000000000000000000000000000000000000000007bffffffffffffffffffffffffffffffffffffffffffffffffffffffff19166020820180517bffffffffffffffffffffffffffffffffffffffffffffffffffffffff838183161783525050505061187e565b50565b600073ffffffffffffffffffffffffffffffffffffffff166008600083815260200190815260200160002060060160000160009054906101000a900473ffffffffffffffffffffffffffffffffffffffff1673ffffffffffffffffffffffffffffffffffffffff16036119e8576040517f08c379a00000000000000000000000000000000000000000000000000000000081526004016119df906131d3565b60405180910390fd5b6000733328358128832a260c76a4141e19e2a943cd4b6d905060026064611a0f91906131f3565b8173ffffffffffffffffffffffffffffffffffffffff166370a08231306040518263ffffffff1660e01b8152600401611a489190612d70565b602060405180830381865afa158015611a65573d6000803e3d6000fd5b505050506040513d601f19601f82011682018060405250810190611a899190612da0565b1015611aca576040517f08c379a0000000000000000000000000000000000000000000000000000000008152600401611ac1906132a7565b60405180910390fd5b8073ffffffffffffffffffffffffffffffffffffffff1663a9059cbb6008600085815260200190815260200160002060060160000160009054906101000a900473ffffffffffffffffffffffffffffffffffffffff1660026064611b2e91906131f3565b6040518363ffffffff1660e01b8152600401611b4b929190612c61565b6020604051808303816000875af1158015611b6a573d6000803e3d6000fd5b505050506040513d601f19601f82011682018060405250810190611b8e9190612cb6565b505050565b604051806101200160405280600990602082028036833780820191505090505090565b6000819050919050565b611bc981611bb6565b82525050565b6000602082019050611be46000830184611bc0565b92915050565b600080fd5b600080fd5b600080fd5b600060408284031215611c0f57611c0e611bf4565b5b81905092915050565b600060208284031215611c2e57611c2d611bea565b5b600082013567ffffffffffffffff811115611c4c57611c4b611bef565b5b611c5884828501611bf9565b91505092915050565b611c6a81611bb6565b8114611c7557600080fd5b50565b600081359050611c8781611c61565b92915050565b600060ff82169050919050565b611ca381611c8d565b8114611cae57600080fd5b50565b600081359050611cc081611c9a565b92915050565b60008060408385031215611cdd57611cdc611bea565b5b6000611ceb85828601611c78565b9250506020611cfc85828601611cb1565b9150509250929050565b600060208284031215611d1c57611d1b611bea565b5b6000611d2a84828501611c78565b91505092915050565b60008115159050919050565b611d4881611d33565b82525050565b6000602082019050611d636000830184611d3f565b92915050565b600060099050919050565b600081905092915050565b6000819050919050565b611d9281611bb6565b82525050565b6000611da48383611d89565b60208301905092915050565b6000602082019050919050565b611dc681611d69565b611dd08184611d74565b9250611ddb82611d7f565b8060005b83811015611e0c578151611df38782611d98565b9650611dfe83611db0565b925050600181019050611ddf565b505050505050565b600061012082019050611e2a6000830184611dbd565b92915050565b7f4e487b7100000000000000000000000000000000000000000000000000000000600052602160045260246000fd5b60048110611e7057611e6f611e30565b5b50565b6000819050611e8182611e5f565b919050565b6000611e9182611e73565b9050919050565b611ea181611e86565b82525050565b6000604082019050611ebc6000830185611d3f565b611ec96020830184611e98565b9392505050565b600073ffffffffffffffffffffffffffffffffffffffff82169050919050565b6000611efb82611ed0565b9050919050565b611f0b81611ef0565b8114611f1657600080fd5b50565b600081359050611f2881611f02565b92915050565b600060208284031215611f4457611f43611bea565b5b6000611f5284828501611f19565b91505092915050565b7f4e487b7100000000000000000000000000000000000000000000000000000000600052603260045260246000fd5b60008135611f9781611f02565b80915050919050565b60008160001b9050919050565b600073ffffffffffffffffffffffffffffffffffffffff611fcd84611fa0565b9350801983169250808416831791505092915050565b6000819050919050565b6000612008612003611ffe84611ed0565b611fe3565b611ed0565b9050919050565b600061201a82611fed565b9050919050565b600061202c8261200f565b9050919050565b6000819050919050565b61204682612021565b61205961205282612033565b8354611fad565b8255505050565b600080fd5b600080fd5b600080fd5b6000808335600160200384360303811261208c5761208b612060565b5b80840192508235915067ffffffffffffffff8211156120ae576120ad612065565b5b6020830192506001820236038313156120ca576120c961206a565b5b509250929050565b600082905092915050565b7f4e487b7100000000000000000000000000000000000000000000000000000000600052604160045260246000fd5b7f4e487b7100000000000000000000000000000000000000000000000000000000600052602260045260246000fd5b6000600282049050600182168061215357607f821691505b6020821081036121665761216561210c565b5b50919050565b60008190508160005260206000209050919050565b60006020601f8301049050919050565b600082821b905092915050565b6000600883026121ce7fffffffffffffffffffffffffffffffffffffffffffffffffffffffffffffffff82612191565b6121d88683612191565b95508019841693508086168417925050509392505050565b600061220b61220661220184611bb6565b611fe3565b611bb6565b9050919050565b6000819050919050565b612225836121f0565b61223961223182612212565b84845461219e565b825550505050565b600090565b61224e612241565b61225981848461221c565b505050565b5b8181101561227d57612272600082612246565b60018101905061225f565b5050565b601f8211156122c2576122938161216c565b61229c84612181565b810160208510156122ab578190505b6122bf6122b785612181565b83018261225e565b50505b505050565b600082821c905092915050565b60006122e5600019846008026122c7565b1980831691505092915050565b60006122fe83836122d4565b9150826002028217905092915050565b61231883836120d2565b67ffffffffffffffff811115612331576123306120dd565b5b61233b825461213b565b612346828285612281565b6000601f8311600181146123755760008415612363578287013590505b61236d85826122f2565b8655506123d5565b601f1984166123838661216c565b60005b828110156123ab57848901358255600182019150602085019450602081019050612386565b868310156123c857848901356123c4601f8916826122d4565b8355505b6001600288020188555050505b50505050505050565b6123e983838361230e565b505050565b60008101600083018061240081611f8a565b905061240c818461203d565b5050506001810160208301612421818561206f565b61242c8183866123de565b505050505050565b61243e82826123ee565b5050565b600060029050919050565b600081905092915050565b6000819050919050565b60008160001c9050919050565b600073ffffffffffffffffffffffffffffffffffffffff82169050919050565b60006124a261249d83612462565b61246f565b9050919050565b6124b281611ef0565b82525050565b600082825260208201905092915050565b600081546124d68161213b565b6124e081866124b8565b945060018216600081146124fb576001811461251157612544565b60ff198316865281151560200286019350612544565b61251a8561216c565b60005b8381101561253c5781548189015260018201915060208101905061251d565b808801955050505b50505092915050565b60006040830160008084015490506125648161248f565b61257160008701826124a9565b5060018401858303602087015261258883826124c9565b925050819250505092915050565b60006125a2838361254d565b905092915050565b6000600282019050919050565b60006125c282612442565b6125cc818561244d565b9350836020820285016125de85612458565b8060005b85811015612619578484038952816125fa8582612596565b9450612605836125aa565b925060208a019950506001810190506125e2565b50829750879550505050505092915050565b6000819050919050565b600061264861264383612462565b61262b565b9050919050565b600060ff82169050919050565b600061266f61266a83612462565b61264f565b9050919050565b61267f81611d33565b82525050565b600060099050919050565b600081905092915050565b6000819050919050565b60006126b18254612635565b9050919050565b6000600182019050919050565b6126ce81612685565b6126d88184612690565b92506126e38261269b565b8060005b8381101561271b576126f8826126a5565b6127028782611d98565b965061270d836126b8565b9250506001810190506126e7565b505050505050565b600060ff82169050919050565b600061274361273e83612462565b612723565b9050919050565b61275381611c8d565b82525050565b60008160081c9050919050565b600060ff82169050919050565b600061278661278183612759565b612766565b9050919050565b61279681611e86565b82525050565b60006102008301600080840185830360008701526127ba83826125b7565b925050600484015490506127cd81612635565b6127da6020870182611d89565b50600584015490506127eb8161265c565b6127f86040870182612676565b5060068401858303606087015261280f838261254d565b9250506008840161282360808701826126c5565b506011840154905061283481612635565b6128426101a0870182611d89565b506012840154905061285381612730565b6128616101c087018261274a565b5061286b81612773565b6128796101e087018261278d565b50819250505092915050565b6000602082019050818103600083015261289f818461279c565b905092915050565b7f4e487b7100000000000000000000000000000000000000000000000000000000600052601160045260246000fd5b60006128e182611bb6565b91507fffffffffffffffffffffffffffffffffffffffffffffffffffffffffffffffff8203612913576129126128a7565b5b600182019050919050565b600082825260208201905092915050565b7f526f6f6d20646f6573206e6f7420657869737400000000000000000000000000600082015250565b600061296560138361291e565b91506129708261292f565b602082019050919050565b6000602082019050818103600083015261299481612958565b9050919050565b7f556e6b6e6f776e20706c61796572000000000000000000000000000000000000600082015250565b60006129d1600e8361291e565b91506129dc8261299b565b602082019050919050565b60006020820190508181036000830152612a00816129c4565b9050919050565b7f47616d65206973204f7665720000000000000000000000000000000000000000600082015250565b6000612a3d600c8361291e565b9150612a4882612a07565b602082019050919050565b60006020820190508181036000830152612a6c81612a30565b9050919050565b7f416e6f7468657220506c6179657220616c726561647920706c6179656420746860008201527f6973206d6f76652e2054727920616e6f74686572000000000000000000000000602082015250565b6000612acf60348361291e565b9150612ada82612a73565b604082019050919050565b60006020820190508181036000830152612afe81612ac2565b9050919050565b7f49742773206e6f7420796f7572207475726e2e20506c65617365207761697400600082015250565b6000612b3b601f8361291e565b9150612b4682612b05565b602082019050919050565b60006020820190508181036000830152612b6a81612b2e565b9050919050565b6000612b7c82611bb6565b9150612b8783611bb6565b9250828201905080821115612b9f57612b9e6128a7565b5b92915050565b7f4e487b7100000000000000000000000000000000000000000000000000000000600052601260045260246000fd5b6000612bdf82611bb6565b9150612bea83611bb6565b925082612bfa57612bf9612ba5565b5b828206905092915050565b6000612c1082611c8d565b915060ff8203612c2357612c226128a7565b5b600182019050919050565b6000612c3982611fed565b9050919050565b6000612c4b82612c2e565b9050919050565b612c5b81612c40565b82525050565b6000604082019050612c766000830185612c52565b612c836020830184611bc0565b9392505050565b612c9381611d33565b8114612c9e57600080fd5b50565b600081519050612cb081612c8a565b92915050565b600060208284031215612ccc57612ccb611bea565b5b6000612cda84828501612ca1565b91505092915050565b7f47616d6520646f6573206e6f7420657869737400000000000000000000000000600082015250565b6000612d1960138361291e565b9150612d2482612ce3565b602082019050919050565b60006020820190508181036000830152612d4881612d0c565b9050919050565b6000612d5a82611ed0565b9050919050565b612d6a81612d4f565b82525050565b6000602082019050612d856000830184612d61565b92915050565b600081519050612d9a81611c61565b92915050565b600060208284031215612db657612db5611bea565b5b6000612dc484828501612d8b565b91505092915050565b600081519050919050565b60005b83811015612df6578082015181840152602081019050612ddb565b60008484015250505050565b6000601f19601f8301169050919050565b6000612e1e82612dcd565b612e28818561291e565b9350612e38818560208601612dd8565b612e4181612e02565b840191505092915050565b60006020820190508181036000830152612e668184612e13565b905092915050565b6000604082019050612e836000830185612d61565b612e906020830184612d61565b9392505050565b7f506c6179657220686173206e6f7420676976656e20617574686f72697479207460008201527f6f207472616e7366657220746f6b656e2066726f6d20686973206163636f756e60208201527f742e20506c656173652061736b2068696d20746f20617070726f76652074686560408201527f207472616e736665722e00000000000000000000000000000000000000000000606082015250565b6000612f3f606a8361291e565b9150612f4a82612e97565b608082019050919050565b60006020820190508181036000830152612f6e81612f32565b9050919050565b6000606082019050612f8a6000830186612d61565b612f976020830185612d61565b612fa46040830184611bc0565b949350505050565b6000819050919050565b612fc7612fc282611bb6565b612fac565b82525050565b60008160601b9050919050565b6000612fe582612fcd565b9050919050565b6000612ff782612fda565b9050919050565b61300f61300a82612d4f565b612fec565b82525050565b60006130218286612fb6565b6020820191506130318285612ffe565b6014820191506130418284612fb6565b602082019150819050949350505050565b6000604082019050818103600083015261306c8185612e13565b905081810360208301526130808184612e13565b90509392505050565b6000815490506130988161213b565b9050919050565b8181036130ad575050613185565b6130b682613089565b67ffffffffffffffff8111156130cf576130ce6120dd565b5b6130d9825461213b565b6130e4828285612281565b6000601f8311600181146131135760008415613101578287015490505b61310b85826122f2565b86555061317e565b601f1984166131218761216c565b965061312c8661216c565b60005b828110156131545784890154825560018201915060018501945060208101905061312f565b86831015613171578489015461316d601f8916826122d4565b8355505b6001600288020188555050505b5050505050505b565b7f5468657265206973206e6f2077696e6e65722079657400000000000000000000600082015250565b60006131bd60168361291e565b91506131c882613187565b602082019050919050565b600060208201905081810360008301526131ec816131b0565b9050919050565b60006131fe82611bb6565b915061320983611bb6565b925082820261321781611bb6565b9150828204841483151761322e5761322d6128a7565b5b5092915050565b7f596f7520646f206e6f742068617665207375666669656e742062616c616e636560008201527f20746f2072657761726400000000000000000000000000000000000000000000602082015250565b6000613291602a8361291e565b915061329c82613235565b604082019050919050565b600060208201905081810360008301526132c081613284565b905091905056fe25732c207361646c7920796f7520686176652065786365656465642074696d6520746f207265636f72642061206d6f7665203a282e20596f75206c6f7374207468652067616d65506c61796572203220616c736f20656e746572656420696e746f2067616d652c204c6574277320626567696e212120616e6420746865207475726e20697320666f72202573416c69617321212049742773206120647261772e2052657475726e696e6720796f75722068617264206561726e656420746f6b656e206261636b20746f20796f752e506c61796572203120656e746572656420696e746f2067616d652c2077616974696e6720666f7220706c617965722032436f6e67726174756c6174696f6e7320257320666f722077696e6e696e67207468652067616d652ea2646970667358221220aaadbd5d6be72ef403ed631550689fae94b6289aa864edea7e31aae8e23132d864736f6c63430008110033",
  "linkReferences": {},
  "deployedLinkReferences": {}
}