{
  "_format": "hh-sol-artifact-1",
  "contractName": "TicTacToe",
  "sourceName": "contracts/TicTacToe.sol",
  "abi": [
    {
      "anonymous": false,
      "inputs": [
        {
          "indexed": true,
          "internalType": "uint256",
          "name": "gameId",
          "type": "uint256"
        },
        {
          "components": [
            {
              "components": [
                {
                  "internalType": "address payable",
                  "name": "playerAddress",
                  "type": "address"
                },
                {
                  "internalType": "string",
                  "name": "playerName",
                  "type": "string"
                }
              ],
              "internalType": "struct TicTacToe.Player[2]",
              "name": "players",
              "type": "tuple[2]"
            },
            {
              "internalType": "uint256",
              "name": "activePlayer",
              "type": "uint256"
            },
            {
              "internalType": "bool",
              "name": "isRoomActive",
              "type": "bool"
            },
            {
              "components": [
                {
                  "internalType": "address payable",
                  "name": "playerAddress",
                  "type": "address"
                },
                {
                  "internalType": "string",
                  "name": "playerName",
                  "type": "string"
                }
              ],
              "internalType": "struct TicTacToe.Player",
              "name": "winnerPlayer",
              "type": "tuple"
            },
            {
              "internalType": "uint256[9]",
              "name": "board",
              "type": "uint256[9]"
            },
            {
              "internalType": "uint256",
              "name": "lastPlayedTime",
              "type": "uint256"
            },
            {
              "internalType": "uint8",
              "name": "movedRecorded",
              "type": "uint8"
            },
            {
              "internalType": "enum TicTacToe.GameState",
              "name": "state",
              "type": "uint8"
            }
          ],
          "indexed": false,
          "internalType": "struct TicTacToe.Room",
          "name": "room",
          "type": "tuple"
        }
      ],
      "name": "GameEnded",
      "type": "event"
    },
    {
      "anonymous": false,
      "inputs": [
        {
          "indexed": true,
          "internalType": "uint256",
          "name": "gameId",
          "type": "uint256"
        },
        {
          "components": [
            {
              "components": [
                {
                  "internalType": "address payable",
                  "name": "playerAddress",
                  "type": "address"
                },
                {
                  "internalType": "string",
                  "name": "playerName",
                  "type": "string"
                }
              ],
              "internalType": "struct TicTacToe.Player[2]",
              "name": "players",
              "type": "tuple[2]"
            },
            {
              "internalType": "uint256",
              "name": "activePlayer",
              "type": "uint256"
            },
            {
              "internalType": "bool",
              "name": "isRoomActive",
              "type": "bool"
            },
            {
              "components": [
                {
                  "internalType": "address payable",
                  "name": "playerAddress",
                  "type": "address"
                },
                {
                  "internalType": "string",
                  "name": "playerName",
                  "type": "string"
                }
              ],
              "internalType": "struct TicTacToe.Player",
              "name": "winnerPlayer",
              "type": "tuple"
            },
            {
              "internalType": "uint256[9]",
              "name": "board",
              "type": "uint256[9]"
            },
            {
              "internalType": "uint256",
              "name": "lastPlayedTime",
              "type": "uint256"
            },
            {
              "internalType": "uint8",
              "name": "movedRecorded",
              "type": "uint8"
            },
            {
              "internalType": "enum TicTacToe.GameState",
              "name": "state",
              "type": "uint8"
            }
          ],
          "indexed": false,
          "internalType": "struct TicTacToe.Room",
          "name": "room",
          "type": "tuple"
        }
      ],
      "name": "GameInitiated",
      "type": "event"
    },
    {
      "anonymous": false,
      "inputs": [
        {
          "indexed": true,
          "internalType": "uint256",
          "name": "gameId",
          "type": "uint256"
        },
        {
          "components": [
            {
              "components": [
                {
                  "internalType": "address payable",
                  "name": "playerAddress",
                  "type": "address"
                },
                {
                  "internalType": "string",
                  "name": "playerName",
                  "type": "string"
                }
              ],
              "internalType": "struct TicTacToe.Player[2]",
              "name": "players",
              "type": "tuple[2]"
            },
            {
              "internalType": "uint256",
              "name": "activePlayer",
              "type": "uint256"
            },
            {
              "internalType": "bool",
              "name": "isRoomActive",
              "type": "bool"
            },
            {
              "components": [
                {
                  "internalType": "address payable",
                  "name": "playerAddress",
                  "type": "address"
                },
                {
                  "internalType": "string",
                  "name": "playerName",
                  "type": "string"
                }
              ],
              "internalType": "struct TicTacToe.Player",
              "name": "winnerPlayer",
              "type": "tuple"
            },
            {
              "internalType": "uint256[9]",
              "name": "board",
              "type": "uint256[9]"
            },
            {
              "internalType": "uint256",
              "name": "lastPlayedTime",
              "type": "uint256"
            },
            {
              "internalType": "uint8",
              "name": "movedRecorded",
              "type": "uint8"
            },
            {
              "internalType": "enum TicTacToe.GameState",
              "name": "state",
              "type": "uint8"
            }
          ],
          "indexed": false,
          "internalType": "struct TicTacToe.Room",
          "name": "room",
          "type": "tuple"
        }
      ],
      "name": "GameStarted",
      "type": "event"
    },
    {
      "inputs": [],
      "name": "GAME_TIMEOUT",
      "outputs": [
        {
          "internalType": "uint256",
          "name": "",
          "type": "uint256"
        }
      ],
      "stateMutability": "view",
      "type": "function"
    },
    {
      "inputs": [],
      "name": "STAKE",
      "outputs": [
        {
          "internalType": "uint256",
          "name": "",
          "type": "uint256"
        }
      ],
      "stateMutability": "view",
      "type": "function"
    },
    {
      "inputs": [],
      "name": "contractBalance",
      "outputs": [
        {
          "internalType": "uint256",
          "name": "",
          "type": "uint256"
        }
      ],
      "stateMutability": "view",
      "type": "function"
    },
    {
      "inputs": [
        {
          "internalType": "uint256",
          "name": "gameId",
          "type": "uint256"
        }
      ],
      "name": "getBoardForRoom",
      "outputs": [
        {
          "internalType": "uint256[9]",
          "name": "",
          "type": "uint256[9]"
        }
      ],
      "stateMutability": "view",
      "type": "function"
    },
    {
      "inputs": [
        {
          "internalType": "uint256",
          "name": "gameId",
          "type": "uint256"
        }
      ],
      "name": "isGameRunning",
      "outputs": [
        {
          "internalType": "bool",
          "name": "",
          "type": "bool"
        }
      ],
      "stateMutability": "view",
      "type": "function"
    },
    {
      "inputs": [
        {
          "components": [
            {
              "internalType": "address payable",
              "name": "playerAddress",
              "type": "address"
            },
            {
              "internalType": "string",
              "name": "playerName",
              "type": "string"
            }
          ],
          "internalType": "struct TicTacToe.Player",
          "name": "player",
          "type": "tuple"
        }
      ],
      "name": "joinRoom",
      "outputs": [],
      "stateMutability": "nonpayable",
      "type": "function"
    },
    {
      "inputs": [
        {
          "internalType": "uint256",
          "name": "gameId",
          "type": "uint256"
        },
        {
          "internalType": "uint8",
          "name": "boardIndex",
          "type": "uint8"
        }
      ],
      "name": "move",
      "outputs": [],
      "stateMutability": "nonpayable",
      "type": "function"
    },
    {
      "inputs": [
        {
          "internalType": "uint256",
          "name": "gameId",
          "type": "uint256"
        }
      ],
      "name": "updateRoomIfExpired",
      "outputs": [
        {
          "internalType": "enum TicTacToe.GameState",
          "name": "",
          "type": "uint8"
        }
      ],
      "stateMutability": "nonpayable",
      "type": "function"
    }
  ],
  "bytecode": "0x6080604052730498b7c793d7432cd9db27fb02fc9cfdbafa1fd36000806101000a81548173ffffffffffffffffffffffffffffffffffffffff021916908373ffffffffffffffffffffffffffffffffffffffff16021790555073a72d8d4c4611c702de430124a240e54fc78fa905600160006101000a81548173ffffffffffffffffffffffffffffffffffffffff021916908373ffffffffffffffffffffffffffffffffffffffff1602179055506040518061010001604052806040518060600160405280600060ff168152602001600160ff168152602001600260ff1681525081526020016040518060600160405280600360ff168152602001600460ff168152602001600560ff1681525081526020016040518060600160405280600660ff168152602001600760ff168152602001600860ff1681525081526020016040518060600160405280600060ff168152602001600460ff168152602001600860ff1681525081526020016040518060600160405280600260ff168152602001600460ff168152602001600660ff1681525081526020016040518060600160405280600060ff168152602001600360ff168152602001600660ff1681525081526020016040518060600160405280600160ff168152602001600460ff168152602001600760ff1681525081526020016040518060600160405280600260ff168152602001600560ff168152602001600860ff168152508152506002906008620002299291906200025e565b506000600b556000600c60006101000a81548160ff0219169083151502179055503480156200025757600080fd5b50620003a2565b8260088101928215620002a0579160200282015b828111156200029f578251829060036200028e929190620002b3565b509160200191906001019062000272565b5b509050620002af919062000354565b5090565b826003601f01602090048101928215620003415791602002820160005b838211156200031057835183826101000a81548160ff021916908360ff1602179055509260200192600101602081600001049283019260010302620002d0565b80156200033f5782816101000a81549060ff021916905560010160208160000104928301926001030262000310565b505b5090506200035091906200037c565b5090565b5b808211156200037857600081816200036e91906200039b565b5060010162000355565b5090565b5b80821115620003975760008160009055506001016200037d565b5090565b5060009055565b613e5480620003b26000396000f3fe608060405234801561001057600080fd5b50600436106100885760003560e01c8063440b27ac1161005b578063440b27ac146101015780637b939a1f146101315780638b7afe2e14610161578063e4ac619c1461017f57610088565b8063099420b61461008d5780630a888461146100ab578063125fdbbc146100c75780632d3e0851146100e5575b600080fd5b6100956101af565b6040516100a291906122ac565b60405180910390f35b6100c560048036038101906100c091906122ff565b6101b5565b005b6100cf61053e565b6040516100dc91906122ac565b60405180910390f35b6100ff60048036038101906100fa91906123ad565b610543565b005b61011b600480360381019061011691906123ed565b610e36565b6040516101289190612435565b60405180910390f35b61014b600480360381019061014691906123ed565b610e63565b60405161015891906124fb565b60405180910390f35b610169610f83565b60405161017691906122ac565b60405180910390f35b610199600480360381019061019491906123ed565b611025565b6040516101a6919061258e565b60405180910390f35b61012c81565b6101d28160000160208101906101cb9190612607565b6064611109565b600c60009054906101000a900460ff161561041e5780600a6000600b54815260200190815260200160002060000160016002811061021357610212612634565b5b6002020181816102239190612b0d565b9050506001600a6000600b54815260200190815260200160002060050160006101000a81548160ff0219169083151502179055506001600a6000600b54815260200190815260200160002060120160016101000a81548160ff0219169083600381111561029357610292612517565b5b021790555042600a6000600b548152602001908152602001600020601101819055506000600c60006101000a81548160ff0219169083151502179055506102d861128c565b600b547f13e9a86b2c91defa4e9dedde156974e3d4a6781c6b4387f4fd1eeec183b7ad0e600a6000600b54815260200190815260200160002060405161031e9190612f5e565b60405180910390a2610419604051806080016040528060458152602001613d0060459139600a6000600b548152602001908152602001600020600001600a6000600b548152602001908152602001600020600401546002811061038457610383612634565b5b60020201600101805461039690612814565b80601f01602080910402602001604051908101604052809291908181526020018280546103c290612814565b801561040f5780601f106103e45761010080835404028352916020019161040f565b820191906000526020600020905b8154815290600101906020018083116103f257829003601f168201915b50505050506112e6565b61053b565b80600a6000600b6000815461043290612faf565b919050819055815260200190815260200160002060000160006002811061045c5761045b612634565b5b60020201818161046c9190612b0d565b9050506001600c60006101000a81548160ff0219169083151502179055506104ab604051806060016040528060308152602001613dc760309139611382565b6000600a6000600b54815260200190815260200160002060120160016101000a81548160ff021916908360038111156104e7576104e6612517565b5b0217905550600b547f1b87306467904d6cd2ca6d383fee89dc7e4124fc61149c8a946271e661734f23600a6000600b5481526020019081526020016000206040516105329190612f5e565b60405180910390a25b50565b606481565b81600b541015610588576040517f08c379a000000000000000000000000000000000000000000000000000000000815260040161057f90613054565b60405180910390fd5b60088160ff1611156105cf576040517f08c379a00000000000000000000000000000000000000000000000000000000081526004016105c6906130e6565b60405180910390fd5b600a60008381526020019081526020016000206000016000600281106105f8576105f7612634565b5b6002020160000160009054906101000a900473ffffffffffffffffffffffffffffffffffffffff1673ffffffffffffffffffffffffffffffffffffffff163373ffffffffffffffffffffffffffffffffffffffff1614806106d45750600a600083815260200190815260200160002060000160016002811061067d5761067c612634565b5b6002020160000160009054906101000a900473ffffffffffffffffffffffffffffffffffffffff1673ffffffffffffffffffffffffffffffffffffffff163373ffffffffffffffffffffffffffffffffffffffff16145b610713576040517f08c379a000000000000000000000000000000000000000000000000000000000815260040161070a90613152565b60405180910390fd5b600a600083815260200190815260200160002060050160009054906101000a900460ff16610776576040517f08c379a000000000000000000000000000000000000000000000000000000000815260040161076d906131be565b60405180910390fd5b6000600a60008481526020019081526020016000206008018260ff16600981106107a3576107a2612634565b5b0154146107e5576040517f08c379a00000000000000000000000000000000000000000000000000000000081526004016107dc90613250565b60405180910390fd5b600a6000838152602001908152602001600020600001600a6000848152602001908152602001600020600401546002811061082357610822612634565b5b6002020160000160009054906101000a900473ffffffffffffffffffffffffffffffffffffffff1673ffffffffffffffffffffffffffffffffffffffff163373ffffffffffffffffffffffffffffffffffffffff16146108b8576040517f08c379a00000000000000000000000000000000000000000000000000000000081526004016108af906132bc565b60405180910390fd5b61012c600a6000848152602001908152602001600020601101546108dc91906132dc565b421115610a18576109d2604051806080016040528060478152602001613c6460479139600a6000858152602001908152602001600020600001600a6000868152602001908152602001600020600401546002811061093d5761093c612634565b5b60020201600101805461094f90612814565b80601f016020809104026020016040519081016040528092919081815260200182805461097b90612814565b80156109c85780601f1061099d576101008083540402835291602001916109c8565b820191906000526020600020905b8154815290600101906020018083116109ab57829003601f168201915b50505050506112e6565b610a0a8260026001600a6000878152602001908152602001600020600401546109fb91906132dc565b610a05919061333f565b61141b565b610a138261166d565b610e32565b60006001600a600085815260200190815260200160002060040154610a3d91906132dc565b905080600a60008581526020019081526020016000206008018360ff1660098110610a6b57610a6a612634565b5b0181905550600a6000848152602001908152602001600020601201600081819054906101000a900460ff1680929190610aa390613370565b91906101000a81548160ff021916908360ff16021790555050610b1781600a6000868152602001908152602001600020600801600980602002604051908101604052809291908260098015610b0d576020028201915b815481526020019060010190808311610af9575b5050505050611948565b15610b4157610b3c83600a60008681526020019081526020016000206004015461141b565b610e27565b6009600a600085815260200190815260200160002060120160009054906101000a900460ff1660ff1603610de357610b906040518060800160405280605e8152602001613d45605e9139611382565b6000600a600085815260200190815260200160002060050160006101000a81548160ff0219169083151502179055506003600a600085815260200190815260200160002060120160016101000a81548160ff02191690836003811115610bf957610bf8612517565b5b021790555060008054906101000a900473ffffffffffffffffffffffffffffffffffffffff1673ffffffffffffffffffffffffffffffffffffffff1663a9059cbb600a6000868152602001908152602001600020600001600060028110610c6357610c62612634565b5b6002020160000160009054906101000a900473ffffffffffffffffffffffffffffffffffffffff1660646040518363ffffffff1660e01b8152600401610caa9291906133cc565b6020604051808303816000875af1158015610cc9573d6000803e3d6000fd5b505050506040513d601f19601f82011682018060405250810190610ced9190613421565b5060008054906101000a900473ffffffffffffffffffffffffffffffffffffffff1673ffffffffffffffffffffffffffffffffffffffff1663a9059cbb600a6000868152602001908152602001600020600001600160028110610d5357610d52612634565b5b6002020160000160009054906101000a900473ffffffffffffffffffffffffffffffffffffffff1660646040518363ffffffff1660e01b8152600401610d9a9291906133cc565b6020604051808303816000875af1158015610db9573d6000803e3d6000fd5b505050506040513d601f19601f82011682018060405250810190610ddd9190613421565b50610e26565b600281610df0919061333f565b600a60008581526020019081526020016000206004018190555042600a6000858152602001908152602001600020601101819055505b5b610e308361166d565b505b5050565b6000600a600083815260200190815260200160002060050160009054906101000a900460ff169050919050565b610e6b612270565b600073ffffffffffffffffffffffffffffffffffffffff16600a6000848152602001908152602001600020600001600060028110610eac57610eab612634565b5b6002020160000160009054906101000a900473ffffffffffffffffffffffffffffffffffffffff1673ffffffffffffffffffffffffffffffffffffffff1603610f2a576040517f08c379a0000000000000000000000000000000000000000000000000000000008152600401610f219061349a565b60405180910390fd5b600a6000838152602001908152602001600020600801600980602002604051908101604052809291908260098015610f77576020028201915b815481526020019060010190808311610f63575b50505050509050919050565b60008060009054906101000a900473ffffffffffffffffffffffffffffffffffffffff1673ffffffffffffffffffffffffffffffffffffffff166370a08231306040518263ffffffff1660e01b8152600401610fdf91906134db565b602060405180830381865afa158015610ffc573d6000803e3d6000fd5b505050506040513d601f19601f82011682018060405250810190611020919061350b565b905090565b600061012c600a60008481526020019081526020016000206011015461104b91906132dc565b421180156110a057506001600381111561106857611067612517565b5b600a600084815260200190815260200160002060120160019054906101000a900460ff16600381111561109e5761109d612517565b5b145b156110de576110dd8260026001600a6000878152602001908152602001600020600401546110ce91906132dc565b6110d8919061333f565b61141b565b5b600a600083815260200190815260200160002060120160019054906101000a900460ff169050919050565b8060008054906101000a900473ffffffffffffffffffffffffffffffffffffffff1673ffffffffffffffffffffffffffffffffffffffff1663dd62ed3e84306040518363ffffffff1660e01b8152600401611165929190613538565b602060405180830381865afa158015611182573d6000803e3d6000fd5b505050506040513d601f19601f820116820180604052508101906111a6919061350b565b10156111e7576040517f08c379a00000000000000000000000000000000000000000000000000000000081526004016111de9061361f565b60405180910390fd5b60008054906101000a900473ffffffffffffffffffffffffffffffffffffffff1673ffffffffffffffffffffffffffffffffffffffff166323b872dd8330846040518463ffffffff1660e01b81526004016112449392919061363f565b6020604051808303816000875af1158015611263573d6000803e3d6000fd5b505050506040513d601f19601f820116820180604052508101906112879190613421565b505050565b60024233600b546040516020016112a5939291906136df565b6040516020818303038152906040528051906020012060001c6112c8919061333f565b600a6000600b54815260200190815260200160002060040181905550565b61137e82826040516024016112fc92919061379b565b6040516020818303038152906040527f4b5c4277000000000000000000000000000000000000000000000000000000007bffffffffffffffffffffffffffffffffffffffffffffffffffffffff19166020820180517bffffffffffffffffffffffffffffffffffffffffffffffffffffffff8381831617835250505050611ab9565b5050565b6114188160405160240161139691906137d2565b6040516020818303038152906040527f41304fac000000000000000000000000000000000000000000000000000000007bffffffffffffffffffffffffffffffffffffffffffffffffffffffff19166020820180517bffffffffffffffffffffffffffffffffffffffffffffffffffffffff8381831617835250505050611ab9565b50565b6000600a600084815260200190815260200160002060050160006101000a81548160ff021916908315150217905550600a6000838152602001908152602001600020600001816002811061147257611471612634565b5b60020201600a60008481526020019081526020016000206006016000820160009054906101000a900473ffffffffffffffffffffffffffffffffffffffff168160000160006101000a81548173ffffffffffffffffffffffffffffffffffffffff021916908373ffffffffffffffffffffffffffffffffffffffff16021790555060018201816001019081611507919061380a565b509050506002600a600084815260200190815260200160002060120160016101000a81548160ff0219169083600381111561154557611544612517565b5b021790555061155382611ae2565b61155c82611d8a565b817f01a43d39372b50813cdabbc04ebdd28227552f4913ef9b0283bb56bfa516f8a7600a600085815260200190815260200160002060405161159e9190612f5e565b60405180910390a2611669604051806060016040528060288152602001613df760289139600a600085815260200190815260200160002060060160010180546115e690612814565b80601f016020809104026020016040519081016040528092919081815260200182805461161290612814565b801561165f5780601f106116345761010080835404028352916020019161165f565b820191906000526020600020905b81548152906001019060200180831161164257829003601f168201915b50505050506112e6565b5050565b61168f6040518060600160405280602e8152602001613cd2602e913982611fc9565b6000600a60008381526020019081526020016000206008016009806020026040519081016040528092919082600980156116de576020028201915b8154815260200190600101908083116116ca575b505050505090506117866040518060400160405280600c81526020017f2573207c202573207c202573000000000000000000000000000000000000000081525061173f8360006009811061173557611734612634565b5b6020020151612065565b6117608460016009811061175657611755612634565b5b6020020151612065565b6117818560026009811061177757611776612634565b5b6020020151612065565b61212f565b6117c46040518060400160405280600981526020017f2d2d2d2d2d2d2d2d2d0000000000000000000000000000000000000000000000815250611382565b6118656040518060400160405280600c81526020017f2573207c202573207c202573000000000000000000000000000000000000000081525061181e8360036009811061181457611813612634565b5b6020020151612065565b61183f8460046009811061183557611834612634565b5b6020020151612065565b6118608560056009811061185657611855612634565b5b6020020151612065565b61212f565b6118a36040518060400160405280600981526020017f2d2d2d2d2d2d2d2d2d0000000000000000000000000000000000000000000000815250611382565b6119446040518060400160405280600c81526020017f2573207c202573207c20257300000000000000000000000000000000000000008152506118fd836006600981106118f3576118f2612634565b5b6020020151612065565b61191e8460076009811061191457611913612634565b5b6020020151612065565b61193f8560086009811061193557611934612634565b5b6020020151612065565b61212f565b5050565b600080600090505b60088160ff161015611aad57600060028260ff166008811061197557611974612634565b5b016003806020026040519081016040528092919082600380156119d3576020028201916000905b82829054906101000a900460ff1660ff168152602001906001019060208260000104928301926001038202915080841161199c5790505b505050505090508484826000600381106119f0576119ef612634565b5b602002015160ff1660098110611a0957611a08612634565b5b6020020151148015611a4c5750848482600160038110611a2c57611a2b612634565b5b602002015160ff1660098110611a4557611a44612634565b5b6020020151145b8015611a895750848482600260038110611a6957611a68612634565b5b602002015160ff1660098110611a8257611a81612634565b5b6020020151145b15611a9957600192505050611ab3565b508080611aa590613370565b915050611950565b50600090505b92915050565b60008151905060006a636f6e736f6c652e6c6f679050602083016000808483855afa5050505050565b600073ffffffffffffffffffffffffffffffffffffffff16600a600083815260200190815260200160002060060160000160009054906101000a900473ffffffffffffffffffffffffffffffffffffffff1673ffffffffffffffffffffffffffffffffffffffff1603611b8a576040517f08c379a0000000000000000000000000000000000000000000000000000000008152600401611b819061393e565b60405180910390fd5b60026064611b98919061395e565b60008054906101000a900473ffffffffffffffffffffffffffffffffffffffff1673ffffffffffffffffffffffffffffffffffffffff166370a08231306040518263ffffffff1660e01b8152600401611bf191906134db565b602060405180830381865afa158015611c0e573d6000803e3d6000fd5b505050506040513d601f19601f82011682018060405250810190611c32919061350b565b1015611c73576040517f08c379a0000000000000000000000000000000000000000000000000000000008152600401611c6a90613a12565b60405180910390fd5b60008054906101000a900473ffffffffffffffffffffffffffffffffffffffff1673ffffffffffffffffffffffffffffffffffffffff1663a9059cbb600a600084815260200190815260200160002060060160000160009054906101000a900473ffffffffffffffffffffffffffffffffffffffff1660026064611cf7919061395e565b6040518363ffffffff1660e01b8152600401611d149291906133cc565b6020604051808303816000875af1158015611d33573d6000803e3d6000fd5b505050506040513d601f19601f82011682018060405250810190611d579190613421565b50611d87604051806060016040528060248152602001613da36024913960026064611d82919061395e565b611fc9565b50565b600073ffffffffffffffffffffffffffffffffffffffff16600a600083815260200190815260200160002060060160000160009054906101000a900473ffffffffffffffffffffffffffffffffffffffff1673ffffffffffffffffffffffffffffffffffffffff1603611e32576040517f08c379a0000000000000000000000000000000000000000000000000000000008152600401611e299061393e565b60405180910390fd5b6000600160009054906101000a900473ffffffffffffffffffffffffffffffffffffffff1673ffffffffffffffffffffffffffffffffffffffff166340d097c3600a600085815260200190815260200160002060060160000160009054906101000a900473ffffffffffffffffffffffffffffffffffffffff166040518263ffffffff1660e01b8152600401611ec89190613a32565b6020604051808303816000875af1158015611ee7573d6000803e3d6000fd5b505050506040513d601f19601f82011682018060405250810190611f0b919061350b565b9050611fc5604051806060016040528060278152602001613cab60279139600160009054906101000a900473ffffffffffffffffffffffffffffffffffffffff1673ffffffffffffffffffffffffffffffffffffffff166306fdde036040518163ffffffff1660e01b8152600401600060405180830381865afa158015611f96573d6000803e3d6000fd5b505050506040513d6000823e3d601f19601f82011682018060405250810190611fbf9190613b44565b836121d1565b5050565b6120618282604051602401611fdf929190613b8d565b6040516020818303038152906040527fb60e72cc000000000000000000000000000000000000000000000000000000007bffffffffffffffffffffffffffffffffffffffffffffffffffffffff19166020820180517bffffffffffffffffffffffffffffffffffffffffffffffffffffffff8381831617835250505050611ab9565b5050565b6060600182036120ac576040518060400160405280600181526020017f5800000000000000000000000000000000000000000000000000000000000000815250905061212a565b600282036120f1576040518060400160405280600181526020017f3000000000000000000000000000000000000000000000000000000000000000815250905061212a565b6040518060400160405280600181526020017f2d0000000000000000000000000000000000000000000000000000000000000081525090505b919050565b6121cb848484846040516024016121499493929190613bbd565b6040516020818303038152906040527fde68f20a000000000000000000000000000000000000000000000000000000007bffffffffffffffffffffffffffffffffffffffffffffffffffffffff19166020820180517bffffffffffffffffffffffffffffffffffffffffffffffffffffffff8381831617835250505050611ab9565b50505050565b61226b8383836040516024016121e993929190613c1e565b6040516020818303038152906040527f5821efa1000000000000000000000000000000000000000000000000000000007bffffffffffffffffffffffffffffffffffffffffffffffffffffffff19166020820180517bffffffffffffffffffffffffffffffffffffffffffffffffffffffff8381831617835250505050611ab9565b505050565b604051806101200160405280600990602082028036833780820191505090505090565b6000819050919050565b6122a681612293565b82525050565b60006020820190506122c1600083018461229d565b92915050565b6000604051905090565b600080fd5b600080fd5b600080fd5b6000604082840312156122f6576122f56122db565b5b81905092915050565b600060208284031215612315576123146122d1565b5b600082013567ffffffffffffffff811115612333576123326122d6565b5b61233f848285016122e0565b91505092915050565b61235181612293565b811461235c57600080fd5b50565b60008135905061236e81612348565b92915050565b600060ff82169050919050565b61238a81612374565b811461239557600080fd5b50565b6000813590506123a781612381565b92915050565b600080604083850312156123c4576123c36122d1565b5b60006123d28582860161235f565b92505060206123e385828601612398565b9150509250929050565b600060208284031215612403576124026122d1565b5b60006124118482850161235f565b91505092915050565b60008115159050919050565b61242f8161241a565b82525050565b600060208201905061244a6000830184612426565b92915050565b600060099050919050565b600081905092915050565b6000819050919050565b61247981612293565b82525050565b600061248b8383612470565b60208301905092915050565b6000602082019050919050565b6124ad81612450565b6124b7818461245b565b92506124c282612466565b8060005b838110156124f35781516124da878261247f565b96506124e583612497565b9250506001810190506124c6565b505050505050565b60006101208201905061251160008301846124a4565b92915050565b7f4e487b7100000000000000000000000000000000000000000000000000000000600052602160045260246000fd5b6004811061255757612556612517565b5b50565b600081905061256882612546565b919050565b60006125788261255a565b9050919050565b6125888161256d565b82525050565b60006020820190506125a3600083018461257f565b92915050565b600073ffffffffffffffffffffffffffffffffffffffff82169050919050565b60006125d4826125a9565b9050919050565b6125e4816125c9565b81146125ef57600080fd5b50565b600081359050612601816125db565b92915050565b60006020828403121561261d5761261c6122d1565b5b600061262b848285016125f2565b91505092915050565b7f4e487b7100000000000000000000000000000000000000000000000000000000600052603260045260246000fd5b60008135612670816125db565b80915050919050565b60008160001b9050919050565b600073ffffffffffffffffffffffffffffffffffffffff6126a684612679565b9350801983169250808416831791505092915050565b6000819050919050565b60006126e16126dc6126d7846125a9565b6126bc565b6125a9565b9050919050565b60006126f3826126c6565b9050919050565b6000612705826126e8565b9050919050565b6000819050919050565b61271f826126fa565b61273261272b8261270c565b8354612686565b8255505050565b600080fd5b600080fd5b600080fd5b6000808335600160200384360303811261276557612764612739565b5b80840192508235915067ffffffffffffffff8211156127875761278661273e565b5b6020830192506001820236038313156127a3576127a2612743565b5b509250929050565b600082905092915050565b7f4e487b7100000000000000000000000000000000000000000000000000000000600052604160045260246000fd5b7f4e487b7100000000000000000000000000000000000000000000000000000000600052602260045260246000fd5b6000600282049050600182168061282c57607f821691505b60208210810361283f5761283e6127e5565b5b50919050565b60008190508160005260206000209050919050565b60006020601f8301049050919050565b600082821b905092915050565b6000600883026128a77fffffffffffffffffffffffffffffffffffffffffffffffffffffffffffffffff8261286a565b6128b1868361286a565b95508019841693508086168417925050509392505050565b60006128e46128df6128da84612293565b6126bc565b612293565b9050919050565b6000819050919050565b6128fe836128c9565b61291261290a826128eb565b848454612877565b825550505050565b600090565b61292761291a565b6129328184846128f5565b505050565b5b818110156129565761294b60008261291f565b600181019050612938565b5050565b601f82111561299b5761296c81612845565b6129758461285a565b81016020851015612984578190505b6129986129908561285a565b830182612937565b50505b505050565b600082821c905092915050565b60006129be600019846008026129a0565b1980831691505092915050565b60006129d783836129ad565b9150826002028217905092915050565b6129f183836127ab565b67ffffffffffffffff811115612a0a57612a096127b6565b5b612a148254612814565b612a1f82828561295a565b6000601f831160018114612a4e5760008415612a3c578287013590505b612a4685826129cb565b865550612aae565b601f198416612a5c86612845565b60005b82811015612a8457848901358255600182019150602085019450602081019050612a5f565b86831015612aa15784890135612a9d601f8916826129ad565b8355505b6001600288020188555050505b50505050505050565b612ac28383836129e7565b505050565b600081016000830180612ad981612663565b9050612ae58184612716565b5050506001810160208301612afa8185612748565b612b05818386612ab7565b505050505050565b612b178282612ac7565b5050565b600060029050919050565b600081905092915050565b6000819050919050565b60008160001c9050919050565b600073ffffffffffffffffffffffffffffffffffffffff82169050919050565b6000612b7b612b7683612b3b565b612b48565b9050919050565b612b8b816125c9565b82525050565b600082825260208201905092915050565b60008154612baf81612814565b612bb98186612b91565b94506001821660008114612bd45760018114612bea57612c1d565b60ff198316865281151560200286019350612c1d565b612bf385612845565b60005b83811015612c1557815481890152600182019150602081019050612bf6565b808801955050505b50505092915050565b6000604083016000808401549050612c3d81612b68565b612c4a6000870182612b82565b50600184018583036020870152612c618382612ba2565b925050819250505092915050565b6000612c7b8383612c26565b905092915050565b6000600282019050919050565b6000612c9b82612b1b565b612ca58185612b26565b935083602082028501612cb785612b31565b8060005b85811015612cf257848403895281612cd38582612c6f565b9450612cde83612c83565b925060208a01995050600181019050612cbb565b50829750879550505050505092915050565b6000819050919050565b6000612d21612d1c83612b3b565b612d04565b9050919050565b600060ff82169050919050565b6000612d48612d4383612b3b565b612d28565b9050919050565b612d588161241a565b82525050565b600060099050919050565b600081905092915050565b6000819050919050565b6000612d8a8254612d0e565b9050919050565b6000600182019050919050565b612da781612d5e565b612db18184612d69565b9250612dbc82612d74565b8060005b83811015612df457612dd182612d7e565b612ddb878261247f565b9650612de683612d91565b925050600181019050612dc0565b505050505050565b600060ff82169050919050565b6000612e1c612e1783612b3b565b612dfc565b9050919050565b612e2c81612374565b82525050565b60008160081c9050919050565b600060ff82169050919050565b6000612e5f612e5a83612e32565b612e3f565b9050919050565b612e6f8161256d565b82525050565b6000610200830160008084018583036000870152612e938382612c90565b92505060048401549050612ea681612d0e565b612eb36020870182612470565b5060058401549050612ec481612d35565b612ed16040870182612d4f565b50600684018583036060870152612ee88382612c26565b92505060088401612efc6080870182612d9e565b5060118401549050612f0d81612d0e565b612f1b6101a0870182612470565b5060128401549050612f2c81612e09565b612f3a6101c0870182612e23565b50612f4481612e4c565b612f526101e0870182612e66565b50819250505092915050565b60006020820190508181036000830152612f788184612e75565b905092915050565b7f4e487b7100000000000000000000000000000000000000000000000000000000600052601160045260246000fd5b6000612fba82612293565b91507fffffffffffffffffffffffffffffffffffffffffffffffffffffffffffffffff8203612fec57612feb612f80565b5b600182019050919050565b600082825260208201905092915050565b7f526f6f6d20646f6573206e6f7420657869737400000000000000000000000000600082015250565b600061303e601383612ff7565b915061304982613008565b602082019050919050565b6000602082019050818103600083015261306d81613031565b9050919050565b7f496e76616c6964206d6f76652e20506c6561736520656e74657220696e20746860008201527f6520626f6172642e000000000000000000000000000000000000000000000000602082015250565b60006130d0602883612ff7565b91506130db82613074565b604082019050919050565b600060208201905081810360008301526130ff816130c3565b9050919050565b7f556e6b6e6f776e20706c61796572000000000000000000000000000000000000600082015250565b600061313c600e83612ff7565b915061314782613106565b602082019050919050565b6000602082019050818103600083015261316b8161312f565b9050919050565b7f47616d65206973204f7665720000000000000000000000000000000000000000600082015250565b60006131a8600c83612ff7565b91506131b382613172565b602082019050919050565b600060208201905081810360008301526131d78161319b565b9050919050565b7f416e6f7468657220506c6179657220616c726561647920706c6179656420746860008201527f6973206d6f76652e2054727920616e6f74686572000000000000000000000000602082015250565b600061323a603483612ff7565b9150613245826131de565b604082019050919050565b600060208201905081810360008301526132698161322d565b9050919050565b7f49742773206e6f7420796f7572207475726e2e20506c65617365207761697400600082015250565b60006132a6601f83612ff7565b91506132b182613270565b602082019050919050565b600060208201905081810360008301526132d581613299565b9050919050565b60006132e782612293565b91506132f283612293565b925082820190508082111561330a57613309612f80565b5b92915050565b7f4e487b7100000000000000000000000000000000000000000000000000000000600052601260045260246000fd5b600061334a82612293565b915061335583612293565b92508261336557613364613310565b5b828206905092915050565b600061337b82612374565b915060ff820361338e5761338d612f80565b5b600182019050919050565b60006133a4826126c6565b9050919050565b60006133b682613399565b9050919050565b6133c6816133ab565b82525050565b60006040820190506133e160008301856133bd565b6133ee602083018461229d565b9392505050565b6133fe8161241a565b811461340957600080fd5b50565b60008151905061341b816133f5565b92915050565b600060208284031215613437576134366122d1565b5b60006134458482850161340c565b91505092915050565b7f47616d6520646f6573206e6f7420657869737400000000000000000000000000600082015250565b6000613484601383612ff7565b915061348f8261344e565b602082019050919050565b600060208201905081810360008301526134b381613477565b9050919050565b60006134c5826125a9565b9050919050565b6134d5816134ba565b82525050565b60006020820190506134f060008301846134cc565b92915050565b60008151905061350581612348565b92915050565b600060208284031215613521576135206122d1565b5b600061352f848285016134f6565b91505092915050565b600060408201905061354d60008301856134cc565b61355a60208301846134cc565b9392505050565b7f506c6179657220686173206e6f7420676976656e20617574686f72697479207460008201527f6f207472616e7366657220746f6b656e2066726f6d20686973206163636f756e60208201527f742e20506c656173652061736b2068696d20746f20617070726f76652074686560408201527f207472616e736665722e00000000000000000000000000000000000000000000606082015250565b6000613609606a83612ff7565b915061361482613561565b608082019050919050565b60006020820190508181036000830152613638816135fc565b9050919050565b600060608201905061365460008301866134cc565b61366160208301856134cc565b61366e604083018461229d565b949350505050565b6000819050919050565b61369161368c82612293565b613676565b82525050565b60008160601b9050919050565b60006136af82613697565b9050919050565b60006136c1826136a4565b9050919050565b6136d96136d4826134ba565b6136b6565b82525050565b60006136eb8286613680565b6020820191506136fb82856136c8565b60148201915061370b8284613680565b602082019150819050949350505050565b600081519050919050565b60005b8381101561374557808201518184015260208101905061372a565b60008484015250505050565b6000601f19601f8301169050919050565b600061376d8261371c565b6137778185612ff7565b9350613787818560208601613727565b61379081613751565b840191505092915050565b600060408201905081810360008301526137b58185613762565b905081810360208301526137c98184613762565b90509392505050565b600060208201905081810360008301526137ec8184613762565b905092915050565b60008154905061380381612814565b9050919050565b8181036138185750506138f0565b613821826137f4565b67ffffffffffffffff81111561383a576138396127b6565b5b6138448254612814565b61384f82828561295a565b6000601f83116001811461387e576000841561386c578287015490505b61387685826129cb565b8655506138e9565b601f19841661388c87612845565b965061389786612845565b60005b828110156138bf5784890154825560018201915060018501945060208101905061389a565b868310156138dc57848901546138d8601f8916826129ad565b8355505b6001600288020188555050505b5050505050505b565b7f5468657265206973206e6f2077696e6e65722079657400000000000000000000600082015250565b6000613928601683612ff7565b9150613933826138f2565b602082019050919050565b600060208201905081810360008301526139578161391b565b9050919050565b600061396982612293565b915061397483612293565b925082820261398281612293565b9150828204841483151761399957613998612f80565b5b5092915050565b7f596f7520646f206e6f742068617665207375666669656e742062616c616e636560008201527f20746f2072657761726400000000000000000000000000000000000000000000602082015250565b60006139fc602a83612ff7565b9150613a07826139a0565b604082019050919050565b60006020820190508181036000830152613a2b816139ef565b9050919050565b6000602082019050613a4760008301846133bd565b92915050565b600080fd5b600080fd5b613a6082613751565b810181811067ffffffffffffffff82111715613a7f57613a7e6127b6565b5b80604052505050565b6000613a926122c7565b9050613a9e8282613a57565b919050565b600067ffffffffffffffff821115613abe57613abd6127b6565b5b613ac782613751565b9050602081019050919050565b6000613ae7613ae284613aa3565b613a88565b905082815260208101848484011115613b0357613b02613a52565b5b613b0e848285613727565b509392505050565b600082601f830112613b2b57613b2a613a4d565b5b8151613b3b848260208601613ad4565b91505092915050565b600060208284031215613b5a57613b596122d1565b5b600082015167ffffffffffffffff811115613b7857613b776122d6565b5b613b8484828501613b16565b91505092915050565b60006040820190508181036000830152613ba78185613762565b9050613bb6602083018461229d565b9392505050565b60006080820190508181036000830152613bd78187613762565b90508181036020830152613beb8186613762565b90508181036040830152613bff8185613762565b90508181036060830152613c138184613762565b905095945050505050565b60006060820190508181036000830152613c388186613762565b90508181036020830152613c4c8185613762565b9050613c5b604083018461229d565b94935050505056fe25732c207361646c7920796f7520686176652065786365656465642074696d6520746f207265636f72642061206d6f7665203a282e20596f75206c6f7374207468652067616d65596f752061726520726577617264656420776974682025732e20546f6b656e204944202d20257348657265206973207468652063757272656e74207374617465206f6620626f61726420666f722047616d65202573506c61796572203220616c736f20656e746572656420696e746f2067616d652c204c6574277320626567696e212120616e6420746865207475726e20697320666f72202573416c69617321212049742773206120647261772e204e6f2070726f626c656d2c2072657475726e696e6720796f75722068617264206561726e656420746f6b656e73206261636b20746f20796f752e20566973697420757320736f6f6e21596f75206172652072657761726465642077697468202573204852505020636f696e732e506c61796572203120656e746572656420696e746f2067616d652c2077616974696e6720666f7220706c617965722032436f6e67726174756c6174696f6e7320257320666f722077696e6e696e67207468652067616d652ea2646970667358221220af6b7ad2c66e151796919af30f94603224c1fc5fb20b89ce12ed9c7e7c01780664736f6c63430008110033",
  "linkReferences": {},
  "deployedLinkReferences": {}
}