{
  "_format": "hh-sol-artifact-1",
  "contractName": "TicTacToe",
  "sourceName": "contracts/TicTacToe.sol",
  "abi": [
    {
      "anonymous": false,
      "inputs": [
        {
          "indexed": true,
          "internalType": "uint256",
          "name": "gameId",
          "type": "uint256"
        },
        {
          "components": [
            {
              "components": [
                {
                  "internalType": "address payable",
                  "name": "playerAddress",
                  "type": "address"
                },
                {
                  "internalType": "string",
                  "name": "playerName",
                  "type": "string"
                }
              ],
              "internalType": "struct TicTacToe.Player[2]",
              "name": "players",
              "type": "tuple[2]"
            },
            {
              "internalType": "uint256",
              "name": "activePlayer",
              "type": "uint256"
            },
            {
              "internalType": "bool",
              "name": "isRoomActive",
              "type": "bool"
            },
            {
              "components": [
                {
                  "internalType": "address payable",
                  "name": "playerAddress",
                  "type": "address"
                },
                {
                  "internalType": "string",
                  "name": "playerName",
                  "type": "string"
                }
              ],
              "internalType": "struct TicTacToe.Player",
              "name": "winnerPlayer",
              "type": "tuple"
            },
            {
              "internalType": "uint256[9]",
              "name": "board",
              "type": "uint256[9]"
            },
            {
              "internalType": "uint256",
              "name": "lastPlayedTime",
              "type": "uint256"
            },
            {
              "internalType": "uint8",
              "name": "movedRecorded",
              "type": "uint8"
            },
            {
              "internalType": "enum TicTacToe.GameState",
              "name": "state",
              "type": "uint8"
            }
          ],
          "indexed": false,
          "internalType": "struct TicTacToe.Room",
          "name": "room",
          "type": "tuple"
        }
      ],
      "name": "GameEnded",
      "type": "event"
    },
    {
      "anonymous": false,
      "inputs": [
        {
          "indexed": true,
          "internalType": "uint256",
          "name": "gameId",
          "type": "uint256"
        },
        {
          "components": [
            {
              "components": [
                {
                  "internalType": "address payable",
                  "name": "playerAddress",
                  "type": "address"
                },
                {
                  "internalType": "string",
                  "name": "playerName",
                  "type": "string"
                }
              ],
              "internalType": "struct TicTacToe.Player[2]",
              "name": "players",
              "type": "tuple[2]"
            },
            {
              "internalType": "uint256",
              "name": "activePlayer",
              "type": "uint256"
            },
            {
              "internalType": "bool",
              "name": "isRoomActive",
              "type": "bool"
            },
            {
              "components": [
                {
                  "internalType": "address payable",
                  "name": "playerAddress",
                  "type": "address"
                },
                {
                  "internalType": "string",
                  "name": "playerName",
                  "type": "string"
                }
              ],
              "internalType": "struct TicTacToe.Player",
              "name": "winnerPlayer",
              "type": "tuple"
            },
            {
              "internalType": "uint256[9]",
              "name": "board",
              "type": "uint256[9]"
            },
            {
              "internalType": "uint256",
              "name": "lastPlayedTime",
              "type": "uint256"
            },
            {
              "internalType": "uint8",
              "name": "movedRecorded",
              "type": "uint8"
            },
            {
              "internalType": "enum TicTacToe.GameState",
              "name": "state",
              "type": "uint8"
            }
          ],
          "indexed": false,
          "internalType": "struct TicTacToe.Room",
          "name": "room",
          "type": "tuple"
        }
      ],
      "name": "GameStarted",
      "type": "event"
    },
    {
      "inputs": [],
      "name": "GAME_TIMEOUT",
      "outputs": [
        {
          "internalType": "uint256",
          "name": "",
          "type": "uint256"
        }
      ],
      "stateMutability": "view",
      "type": "function"
    },
    {
      "inputs": [],
      "name": "STAKE",
      "outputs": [
        {
          "internalType": "uint256",
          "name": "",
          "type": "uint256"
        }
      ],
      "stateMutability": "view",
      "type": "function"
    },
    {
      "inputs": [],
      "name": "contractBalance",
      "outputs": [
        {
          "internalType": "uint256",
          "name": "",
          "type": "uint256"
        }
      ],
      "stateMutability": "view",
      "type": "function"
    },
    {
      "inputs": [
        {
          "internalType": "uint256",
          "name": "gameId",
          "type": "uint256"
        }
      ],
      "name": "getBoardForRoom",
      "outputs": [
        {
          "internalType": "uint256[9]",
          "name": "",
          "type": "uint256[9]"
        }
      ],
      "stateMutability": "view",
      "type": "function"
    },
    {
      "inputs": [
        {
          "internalType": "uint256",
          "name": "gameId",
          "type": "uint256"
        }
      ],
      "name": "isGameRunning",
      "outputs": [
        {
          "internalType": "bool",
          "name": "",
          "type": "bool"
        }
      ],
      "stateMutability": "view",
      "type": "function"
    },
    {
      "inputs": [
        {
          "components": [
            {
              "internalType": "address payable",
              "name": "playerAddress",
              "type": "address"
            },
            {
              "internalType": "string",
              "name": "playerName",
              "type": "string"
            }
          ],
          "internalType": "struct TicTacToe.Player",
          "name": "player",
          "type": "tuple"
        }
      ],
      "name": "joinRoom",
      "outputs": [
        {
          "internalType": "uint256",
          "name": "",
          "type": "uint256"
        }
      ],
      "stateMutability": "nonpayable",
      "type": "function"
    },
    {
      "inputs": [
        {
          "internalType": "uint256",
          "name": "gameId",
          "type": "uint256"
        },
        {
          "internalType": "uint8",
          "name": "boardIndex",
          "type": "uint8"
        }
      ],
      "name": "move",
      "outputs": [],
      "stateMutability": "nonpayable",
      "type": "function"
    },
    {
      "inputs": [
        {
          "internalType": "uint256",
          "name": "gameId",
          "type": "uint256"
        }
      ],
      "name": "rewardWinnerWithNFT",
      "outputs": [],
      "stateMutability": "nonpayable",
      "type": "function"
    },
    {
      "inputs": [
        {
          "internalType": "uint256",
          "name": "gameId",
          "type": "uint256"
        }
      ],
      "name": "updateRoomIfExpired",
      "outputs": [
        {
          "internalType": "enum TicTacToe.GameState",
          "name": "",
          "type": "uint8"
        }
      ],
      "stateMutability": "nonpayable",
      "type": "function"
    }
  ],
  "bytecode": "0x6080604052730498b7c793d7432cd9db27fb02fc9cfdbafa1fd36000806101000a81548173ffffffffffffffffffffffffffffffffffffffff021916908373ffffffffffffffffffffffffffffffffffffffff16021790555073a72d8d4c4611c702de430124a240e54fc78fa905600160006101000a81548173ffffffffffffffffffffffffffffffffffffffff021916908373ffffffffffffffffffffffffffffffffffffffff1602179055506040518061010001604052806040518060600160405280600060ff168152602001600160ff168152602001600260ff1681525081526020016040518060600160405280600360ff168152602001600460ff168152602001600560ff1681525081526020016040518060600160405280600660ff168152602001600760ff168152602001600860ff1681525081526020016040518060600160405280600060ff168152602001600460ff168152602001600860ff1681525081526020016040518060600160405280600260ff168152602001600460ff168152602001600660ff1681525081526020016040518060600160405280600060ff168152602001600360ff168152602001600660ff1681525081526020016040518060600160405280600160ff168152602001600460ff168152602001600760ff1681525081526020016040518060600160405280600260ff168152602001600560ff168152602001600860ff168152508152506002906008620002299291906200025e565b506000600b556000600c60006101000a81548160ff0219169083151502179055503480156200025757600080fd5b50620003a2565b8260088101928215620002a0579160200282015b828111156200029f578251829060036200028e929190620002b3565b509160200191906001019062000272565b5b509050620002af919062000354565b5090565b826003601f01602090048101928215620003415791602002820160005b838211156200031057835183826101000a81548160ff021916908360ff1602179055509260200192600101602081600001049283019260010302620002d0565b80156200033f5782816101000a81549060ff021916905560010160208160000104928301926001030262000310565b505b5090506200035091906200037c565b5090565b5b808211156200037857600081816200036e91906200039b565b5060010162000355565b5090565b5b80821115620003975760008160009055506001016200037d565b5090565b5060009055565b613e4a80620003b26000396000f3fe608060405234801561001057600080fd5b50600436106100935760003560e01c8063440b27ac11610066578063440b27ac146101205780637b939a1f146101505780638b7afe2e14610180578063c4248a681461019e578063e4ac619c146101ba57610093565b8063099420b6146100985780630a888461146100b6578063125fdbbc146100e65780632d3e085114610104575b600080fd5b6100a06101ea565b6040516100ad91906122a2565b60405180910390f35b6100d060048036038101906100cb91906122f5565b6101f0565b6040516100dd91906122a2565b60405180910390f35b6100ee610534565b6040516100fb91906122a2565b60405180910390f35b61011e600480360381019061011991906123a3565b610539565b005b61013a600480360381019061013591906123e3565b610e2c565b604051610147919061242b565b60405180910390f35b61016a600480360381019061016591906123e3565b610e59565b60405161017791906124f1565b60405180910390f35b610188610f79565b60405161019591906122a2565b60405180910390f35b6101b860048036038101906101b391906123e3565b61101b565b005b6101d460048036038101906101cf91906123e3565b61125a565b6040516101e19190612584565b60405180910390f35b61012c81565b600061020f82600001602081019061020891906125fd565b606461133e565b600c60009054906101000a900460ff161561045b5781600a6000600b5481526020019081526020016000206000016001600281106102505761024f61262a565b5b6002020181816102609190612b03565b9050506001600a6000600b54815260200190815260200160002060050160006101000a81548160ff0219169083151502179055506001600a6000600b54815260200190815260200160002060120160016101000a81548160ff021916908360038111156102d0576102cf61250d565b5b021790555042600a6000600b548152602001908152602001600020601101819055506000600c60006101000a81548160ff0219169083151502179055506103156114c1565b600b547f13e9a86b2c91defa4e9dedde156974e3d4a6781c6b4387f4fd1eeec183b7ad0e600a6000600b54815260200190815260200160002060405161035b9190612f54565b60405180910390a2610456604051806080016040528060458152602001613cf660459139600a6000600b548152602001908152602001600020600001600a6000600b54815260200190815260200160002060040154600281106103c1576103c061262a565b5b6002020160010180546103d39061280a565b80601f01602080910402602001604051908101604052809291908181526020018280546103ff9061280a565b801561044c5780601f106104215761010080835404028352916020019161044c565b820191906000526020600020905b81548152906001019060200180831161042f57829003601f168201915b505050505061151b565b61052a565b81600a6000600b6000815461046f90612fa5565b91905081905581526020019081526020016000206000016000600281106104995761049861262a565b5b6002020181816104a99190612b03565b9050506001600c60006101000a81548160ff0219169083151502179055506104e8604051806060016040528060308152602001613dbd603091396115b7565b6000600a6000600b54815260200190815260200160002060120160016101000a81548160ff021916908360038111156105245761052361250d565b5b02179055505b600b549050919050565b606481565b81600b54101561057e576040517f08c379a00000000000000000000000000000000000000000000000000000000081526004016105759061304a565b60405180910390fd5b60088160ff1611156105c5576040517f08c379a00000000000000000000000000000000000000000000000000000000081526004016105bc906130dc565b60405180910390fd5b600a60008381526020019081526020016000206000016000600281106105ee576105ed61262a565b5b6002020160000160009054906101000a900473ffffffffffffffffffffffffffffffffffffffff1673ffffffffffffffffffffffffffffffffffffffff163373ffffffffffffffffffffffffffffffffffffffff1614806106ca5750600a60008381526020019081526020016000206000016001600281106106735761067261262a565b5b6002020160000160009054906101000a900473ffffffffffffffffffffffffffffffffffffffff1673ffffffffffffffffffffffffffffffffffffffff163373ffffffffffffffffffffffffffffffffffffffff16145b610709576040517f08c379a000000000000000000000000000000000000000000000000000000000815260040161070090613148565b60405180910390fd5b600a600083815260200190815260200160002060050160009054906101000a900460ff1661076c576040517f08c379a0000000000000000000000000000000000000000000000000000000008152600401610763906131b4565b60405180910390fd5b6000600a60008481526020019081526020016000206008018260ff16600981106107995761079861262a565b5b0154146107db576040517f08c379a00000000000000000000000000000000000000000000000000000000081526004016107d290613246565b60405180910390fd5b600a6000838152602001908152602001600020600001600a600084815260200190815260200160002060040154600281106108195761081861262a565b5b6002020160000160009054906101000a900473ffffffffffffffffffffffffffffffffffffffff1673ffffffffffffffffffffffffffffffffffffffff163373ffffffffffffffffffffffffffffffffffffffff16146108ae576040517f08c379a00000000000000000000000000000000000000000000000000000000081526004016108a5906132b2565b60405180910390fd5b61012c600a6000848152602001908152602001600020601101546108d291906132d2565b421115610a0e576109c8604051806080016040528060478152602001613c5a60479139600a6000858152602001908152602001600020600001600a600086815260200190815260200160002060040154600281106109335761093261262a565b5b6002020160010180546109459061280a565b80601f01602080910402602001604051908101604052809291908181526020018280546109719061280a565b80156109be5780601f10610993576101008083540402835291602001916109be565b820191906000526020600020905b8154815290600101906020018083116109a157829003601f168201915b505050505061151b565b610a008260026001600a6000878152602001908152602001600020600401546109f191906132d2565b6109fb9190613335565b611650565b610a09826118a2565b610e28565b60006001600a600085815260200190815260200160002060040154610a3391906132d2565b905080600a60008581526020019081526020016000206008018360ff1660098110610a6157610a6061262a565b5b0181905550600a6000848152602001908152602001600020601201600081819054906101000a900460ff1680929190610a9990613366565b91906101000a81548160ff021916908360ff16021790555050610b0d81600a6000868152602001908152602001600020600801600980602002604051908101604052809291908260098015610b03576020028201915b815481526020019060010190808311610aef575b5050505050611b7d565b15610b3757610b3283600a600086815260200190815260200160002060040154611650565b610e1d565b6009600a600085815260200190815260200160002060120160009054906101000a900460ff1660ff1603610dd957610b866040518060800160405280605e8152602001613d3b605e91396115b7565b6000600a600085815260200190815260200160002060050160006101000a81548160ff0219169083151502179055506003600a600085815260200190815260200160002060120160016101000a81548160ff02191690836003811115610bef57610bee61250d565b5b021790555060008054906101000a900473ffffffffffffffffffffffffffffffffffffffff1673ffffffffffffffffffffffffffffffffffffffff1663a9059cbb600a6000868152602001908152602001600020600001600060028110610c5957610c5861262a565b5b6002020160000160009054906101000a900473ffffffffffffffffffffffffffffffffffffffff1660646040518363ffffffff1660e01b8152600401610ca09291906133c2565b6020604051808303816000875af1158015610cbf573d6000803e3d6000fd5b505050506040513d601f19601f82011682018060405250810190610ce39190613417565b5060008054906101000a900473ffffffffffffffffffffffffffffffffffffffff1673ffffffffffffffffffffffffffffffffffffffff1663a9059cbb600a6000868152602001908152602001600020600001600160028110610d4957610d4861262a565b5b6002020160000160009054906101000a900473ffffffffffffffffffffffffffffffffffffffff1660646040518363ffffffff1660e01b8152600401610d909291906133c2565b6020604051808303816000875af1158015610daf573d6000803e3d6000fd5b505050506040513d601f19601f82011682018060405250810190610dd39190613417565b50610e1c565b600281610de69190613335565b600a60008581526020019081526020016000206004018190555042600a6000858152602001908152602001600020601101819055505b5b610e26836118a2565b505b5050565b6000600a600083815260200190815260200160002060050160009054906101000a900460ff169050919050565b610e61612266565b600073ffffffffffffffffffffffffffffffffffffffff16600a6000848152602001908152602001600020600001600060028110610ea257610ea161262a565b5b6002020160000160009054906101000a900473ffffffffffffffffffffffffffffffffffffffff1673ffffffffffffffffffffffffffffffffffffffff1603610f20576040517f08c379a0000000000000000000000000000000000000000000000000000000008152600401610f1790613490565b60405180910390fd5b600a6000838152602001908152602001600020600801600980602002604051908101604052809291908260098015610f6d576020028201915b815481526020019060010190808311610f59575b50505050509050919050565b60008060009054906101000a900473ffffffffffffffffffffffffffffffffffffffff1673ffffffffffffffffffffffffffffffffffffffff166370a08231306040518263ffffffff1660e01b8152600401610fd591906134d1565b602060405180830381865afa158015610ff2573d6000803e3d6000fd5b505050506040513d601f19601f820116820180604052508101906110169190613501565b905090565b600073ffffffffffffffffffffffffffffffffffffffff16600a600083815260200190815260200160002060060160000160009054906101000a900473ffffffffffffffffffffffffffffffffffffffff1673ffffffffffffffffffffffffffffffffffffffff16036110c3576040517f08c379a00000000000000000000000000000000000000000000000000000000081526004016110ba9061357a565b60405180910390fd5b6000600160009054906101000a900473ffffffffffffffffffffffffffffffffffffffff1673ffffffffffffffffffffffffffffffffffffffff166340d097c3600a600085815260200190815260200160002060060160000160009054906101000a900473ffffffffffffffffffffffffffffffffffffffff166040518263ffffffff1660e01b8152600401611159919061359a565b6020604051808303816000875af1158015611178573d6000803e3d6000fd5b505050506040513d601f19601f8201168201806040525081019061119c9190613501565b9050611256604051806060016040528060278152602001613ca160279139600160009054906101000a900473ffffffffffffffffffffffffffffffffffffffff1673ffffffffffffffffffffffffffffffffffffffff166306fdde036040518163ffffffff1660e01b8152600401600060405180830381865afa158015611227573d6000803e3d6000fd5b505050506040513d6000823e3d601f19601f8201168201806040525081019061125091906136e7565b83611cee565b5050565b600061012c600a60008481526020019081526020016000206011015461128091906132d2565b421180156112d557506001600381111561129d5761129c61250d565b5b600a600084815260200190815260200160002060120160019054906101000a900460ff1660038111156112d3576112d261250d565b5b145b15611313576113128260026001600a60008781526020019081526020016000206004015461130391906132d2565b61130d9190613335565b611650565b5b600a600083815260200190815260200160002060120160019054906101000a900460ff169050919050565b8060008054906101000a900473ffffffffffffffffffffffffffffffffffffffff1673ffffffffffffffffffffffffffffffffffffffff1663dd62ed3e84306040518363ffffffff1660e01b815260040161139a929190613730565b602060405180830381865afa1580156113b7573d6000803e3d6000fd5b505050506040513d601f19601f820116820180604052508101906113db9190613501565b101561141c576040517f08c379a000000000000000000000000000000000000000000000000000000000815260040161141390613817565b60405180910390fd5b60008054906101000a900473ffffffffffffffffffffffffffffffffffffffff1673ffffffffffffffffffffffffffffffffffffffff166323b872dd8330846040518463ffffffff1660e01b815260040161147993929190613837565b6020604051808303816000875af1158015611498573d6000803e3d6000fd5b505050506040513d601f19601f820116820180604052508101906114bc9190613417565b505050565b60024233600b546040516020016114da939291906138d7565b6040516020818303038152906040528051906020012060001c6114fd9190613335565b600a6000600b54815260200190815260200160002060040181905550565b6115b38282604051602401611531929190613958565b6040516020818303038152906040527f4b5c4277000000000000000000000000000000000000000000000000000000007bffffffffffffffffffffffffffffffffffffffffffffffffffffffff19166020820180517bffffffffffffffffffffffffffffffffffffffffffffffffffffffff8381831617835250505050611d8d565b5050565b61164d816040516024016115cb919061398f565b6040516020818303038152906040527f41304fac000000000000000000000000000000000000000000000000000000007bffffffffffffffffffffffffffffffffffffffffffffffffffffffff19166020820180517bffffffffffffffffffffffffffffffffffffffffffffffffffffffff8381831617835250505050611d8d565b50565b6000600a600084815260200190815260200160002060050160006101000a81548160ff021916908315150217905550600a600083815260200190815260200160002060000181600281106116a7576116a661262a565b5b60020201600a60008481526020019081526020016000206006016000820160009054906101000a900473ffffffffffffffffffffffffffffffffffffffff168160000160006101000a81548173ffffffffffffffffffffffffffffffffffffffff021916908373ffffffffffffffffffffffffffffffffffffffff1602179055506001820181600101908161173c91906139c7565b509050506002600a600084815260200190815260200160002060120160016101000a81548160ff0219169083600381111561177a5761177961250d565b5b021790555061178882611db6565b6117918261101b565b817f01a43d39372b50813cdabbc04ebdd28227552f4913ef9b0283bb56bfa516f8a7600a60008581526020019081526020016000206040516117d39190612f54565b60405180910390a261189e604051806060016040528060288152602001613ded60289139600a6000858152602001908152602001600020600601600101805461181b9061280a565b80601f01602080910402602001604051908101604052809291908181526020018280546118479061280a565b80156118945780601f1061186957610100808354040283529160200191611894565b820191906000526020600020905b81548152906001019060200180831161187757829003601f168201915b505050505061151b565b5050565b6118c46040518060600160405280602e8152602001613cc8602e91398261205e565b6000600a6000838152602001908152602001600020600801600980602002604051908101604052809291908260098015611913576020028201915b8154815260200190600101908083116118ff575b505050505090506119bb6040518060400160405280600c81526020017f2573207c202573207c20257300000000000000000000000000000000000000008152506119748360006009811061196a5761196961262a565b5b60200201516120fa565b6119958460016009811061198b5761198a61262a565b5b60200201516120fa565b6119b6856002600981106119ac576119ab61262a565b5b60200201516120fa565b6121c4565b6119f96040518060400160405280600981526020017f2d2d2d2d2d2d2d2d2d00000000000000000000000000000000000000000000008152506115b7565b611a9a6040518060400160405280600c81526020017f2573207c202573207c2025730000000000000000000000000000000000000000815250611a5383600360098110611a4957611a4861262a565b5b60200201516120fa565b611a7484600460098110611a6a57611a6961262a565b5b60200201516120fa565b611a9585600560098110611a8b57611a8a61262a565b5b60200201516120fa565b6121c4565b611ad86040518060400160405280600981526020017f2d2d2d2d2d2d2d2d2d00000000000000000000000000000000000000000000008152506115b7565b611b796040518060400160405280600c81526020017f2573207c202573207c2025730000000000000000000000000000000000000000815250611b3283600660098110611b2857611b2761262a565b5b60200201516120fa565b611b5384600760098110611b4957611b4861262a565b5b60200201516120fa565b611b7485600860098110611b6a57611b6961262a565b5b60200201516120fa565b6121c4565b5050565b600080600090505b60088160ff161015611ce257600060028260ff1660088110611baa57611ba961262a565b5b01600380602002604051908101604052809291908260038015611c08576020028201916000905b82829054906101000a900460ff1660ff1681526020019060010190602082600001049283019260010382029150808411611bd15790505b50505050509050848482600060038110611c2557611c2461262a565b5b602002015160ff1660098110611c3e57611c3d61262a565b5b6020020151148015611c815750848482600160038110611c6157611c6061262a565b5b602002015160ff1660098110611c7a57611c7961262a565b5b6020020151145b8015611cbe5750848482600260038110611c9e57611c9d61262a565b5b602002015160ff1660098110611cb757611cb661262a565b5b6020020151145b15611cce57600192505050611ce8565b508080611cda90613366565b915050611b85565b50600090505b92915050565b611d88838383604051602401611d0693929190613aaf565b6040516020818303038152906040527f5821efa1000000000000000000000000000000000000000000000000000000007bffffffffffffffffffffffffffffffffffffffffffffffffffffffff19166020820180517bffffffffffffffffffffffffffffffffffffffffffffffffffffffff8381831617835250505050611d8d565b505050565b60008151905060006a636f6e736f6c652e6c6f679050602083016000808483855afa5050505050565b600073ffffffffffffffffffffffffffffffffffffffff16600a600083815260200190815260200160002060060160000160009054906101000a900473ffffffffffffffffffffffffffffffffffffffff1673ffffffffffffffffffffffffffffffffffffffff1603611e5e576040517f08c379a0000000000000000000000000000000000000000000000000000000008152600401611e559061357a565b60405180910390fd5b60026064611e6c9190613af4565b60008054906101000a900473ffffffffffffffffffffffffffffffffffffffff1673ffffffffffffffffffffffffffffffffffffffff166370a08231306040518263ffffffff1660e01b8152600401611ec591906134d1565b602060405180830381865afa158015611ee2573d6000803e3d6000fd5b505050506040513d601f19601f82011682018060405250810190611f069190613501565b1015611f47576040517f08c379a0000000000000000000000000000000000000000000000000000000008152600401611f3e90613ba8565b60405180910390fd5b60008054906101000a900473ffffffffffffffffffffffffffffffffffffffff1673ffffffffffffffffffffffffffffffffffffffff1663a9059cbb600a600084815260200190815260200160002060060160000160009054906101000a900473ffffffffffffffffffffffffffffffffffffffff1660026064611fcb9190613af4565b6040518363ffffffff1660e01b8152600401611fe89291906133c2565b6020604051808303816000875af1158015612007573d6000803e3d6000fd5b505050506040513d601f19601f8201168201806040525081019061202b9190613417565b5061205b604051806060016040528060248152602001613d9960249139600260646120569190613af4565b61205e565b50565b6120f68282604051602401612074929190613bc8565b6040516020818303038152906040527fb60e72cc000000000000000000000000000000000000000000000000000000007bffffffffffffffffffffffffffffffffffffffffffffffffffffffff19166020820180517bffffffffffffffffffffffffffffffffffffffffffffffffffffffff8381831617835250505050611d8d565b5050565b606060018203612141576040518060400160405280600181526020017f580000000000000000000000000000000000000000000000000000000000000081525090506121bf565b60028203612186576040518060400160405280600181526020017f300000000000000000000000000000000000000000000000000000000000000081525090506121bf565b6040518060400160405280600181526020017f2d0000000000000000000000000000000000000000000000000000000000000081525090505b919050565b612260848484846040516024016121de9493929190613bf8565b6040516020818303038152906040527fde68f20a000000000000000000000000000000000000000000000000000000007bffffffffffffffffffffffffffffffffffffffffffffffffffffffff19166020820180517bffffffffffffffffffffffffffffffffffffffffffffffffffffffff8381831617835250505050611d8d565b50505050565b604051806101200160405280600990602082028036833780820191505090505090565b6000819050919050565b61229c81612289565b82525050565b60006020820190506122b76000830184612293565b92915050565b6000604051905090565b600080fd5b600080fd5b600080fd5b6000604082840312156122ec576122eb6122d1565b5b81905092915050565b60006020828403121561230b5761230a6122c7565b5b600082013567ffffffffffffffff811115612329576123286122cc565b5b612335848285016122d6565b91505092915050565b61234781612289565b811461235257600080fd5b50565b6000813590506123648161233e565b92915050565b600060ff82169050919050565b6123808161236a565b811461238b57600080fd5b50565b60008135905061239d81612377565b92915050565b600080604083850312156123ba576123b96122c7565b5b60006123c885828601612355565b92505060206123d98582860161238e565b9150509250929050565b6000602082840312156123f9576123f86122c7565b5b600061240784828501612355565b91505092915050565b60008115159050919050565b61242581612410565b82525050565b6000602082019050612440600083018461241c565b92915050565b600060099050919050565b600081905092915050565b6000819050919050565b61246f81612289565b82525050565b60006124818383612466565b60208301905092915050565b6000602082019050919050565b6124a381612446565b6124ad8184612451565b92506124b88261245c565b8060005b838110156124e95781516124d08782612475565b96506124db8361248d565b9250506001810190506124bc565b505050505050565b600061012082019050612507600083018461249a565b92915050565b7f4e487b7100000000000000000000000000000000000000000000000000000000600052602160045260246000fd5b6004811061254d5761254c61250d565b5b50565b600081905061255e8261253c565b919050565b600061256e82612550565b9050919050565b61257e81612563565b82525050565b60006020820190506125996000830184612575565b92915050565b600073ffffffffffffffffffffffffffffffffffffffff82169050919050565b60006125ca8261259f565b9050919050565b6125da816125bf565b81146125e557600080fd5b50565b6000813590506125f7816125d1565b92915050565b600060208284031215612613576126126122c7565b5b6000612621848285016125e8565b91505092915050565b7f4e487b7100000000000000000000000000000000000000000000000000000000600052603260045260246000fd5b60008135612666816125d1565b80915050919050565b60008160001b9050919050565b600073ffffffffffffffffffffffffffffffffffffffff61269c8461266f565b9350801983169250808416831791505092915050565b6000819050919050565b60006126d76126d26126cd8461259f565b6126b2565b61259f565b9050919050565b60006126e9826126bc565b9050919050565b60006126fb826126de565b9050919050565b6000819050919050565b612715826126f0565b61272861272182612702565b835461267c565b8255505050565b600080fd5b600080fd5b600080fd5b6000808335600160200384360303811261275b5761275a61272f565b5b80840192508235915067ffffffffffffffff82111561277d5761277c612734565b5b60208301925060018202360383131561279957612798612739565b5b509250929050565b600082905092915050565b7f4e487b7100000000000000000000000000000000000000000000000000000000600052604160045260246000fd5b7f4e487b7100000000000000000000000000000000000000000000000000000000600052602260045260246000fd5b6000600282049050600182168061282257607f821691505b602082108103612835576128346127db565b5b50919050565b60008190508160005260206000209050919050565b60006020601f8301049050919050565b600082821b905092915050565b60006008830261289d7fffffffffffffffffffffffffffffffffffffffffffffffffffffffffffffffff82612860565b6128a78683612860565b95508019841693508086168417925050509392505050565b60006128da6128d56128d084612289565b6126b2565b612289565b9050919050565b6000819050919050565b6128f4836128bf565b612908612900826128e1565b84845461286d565b825550505050565b600090565b61291d612910565b6129288184846128eb565b505050565b5b8181101561294c57612941600082612915565b60018101905061292e565b5050565b601f821115612991576129628161283b565b61296b84612850565b8101602085101561297a578190505b61298e61298685612850565b83018261292d565b50505b505050565b600082821c905092915050565b60006129b460001984600802612996565b1980831691505092915050565b60006129cd83836129a3565b9150826002028217905092915050565b6129e783836127a1565b67ffffffffffffffff811115612a00576129ff6127ac565b5b612a0a825461280a565b612a15828285612950565b6000601f831160018114612a445760008415612a32578287013590505b612a3c85826129c1565b865550612aa4565b601f198416612a528661283b565b60005b82811015612a7a57848901358255600182019150602085019450602081019050612a55565b86831015612a975784890135612a93601f8916826129a3565b8355505b6001600288020188555050505b50505050505050565b612ab88383836129dd565b505050565b600081016000830180612acf81612659565b9050612adb818461270c565b5050506001810160208301612af0818561273e565b612afb818386612aad565b505050505050565b612b0d8282612abd565b5050565b600060029050919050565b600081905092915050565b6000819050919050565b60008160001c9050919050565b600073ffffffffffffffffffffffffffffffffffffffff82169050919050565b6000612b71612b6c83612b31565b612b3e565b9050919050565b612b81816125bf565b82525050565b600082825260208201905092915050565b60008154612ba58161280a565b612baf8186612b87565b94506001821660008114612bca5760018114612be057612c13565b60ff198316865281151560200286019350612c13565b612be98561283b565b60005b83811015612c0b57815481890152600182019150602081019050612bec565b808801955050505b50505092915050565b6000604083016000808401549050612c3381612b5e565b612c406000870182612b78565b50600184018583036020870152612c578382612b98565b925050819250505092915050565b6000612c718383612c1c565b905092915050565b6000600282019050919050565b6000612c9182612b11565b612c9b8185612b1c565b935083602082028501612cad85612b27565b8060005b85811015612ce857848403895281612cc98582612c65565b9450612cd483612c79565b925060208a01995050600181019050612cb1565b50829750879550505050505092915050565b6000819050919050565b6000612d17612d1283612b31565b612cfa565b9050919050565b600060ff82169050919050565b6000612d3e612d3983612b31565b612d1e565b9050919050565b612d4e81612410565b82525050565b600060099050919050565b600081905092915050565b6000819050919050565b6000612d808254612d04565b9050919050565b6000600182019050919050565b612d9d81612d54565b612da78184612d5f565b9250612db282612d6a565b8060005b83811015612dea57612dc782612d74565b612dd18782612475565b9650612ddc83612d87565b925050600181019050612db6565b505050505050565b600060ff82169050919050565b6000612e12612e0d83612b31565b612df2565b9050919050565b612e228161236a565b82525050565b60008160081c9050919050565b600060ff82169050919050565b6000612e55612e5083612e28565b612e35565b9050919050565b612e6581612563565b82525050565b6000610200830160008084018583036000870152612e898382612c86565b92505060048401549050612e9c81612d04565b612ea96020870182612466565b5060058401549050612eba81612d2b565b612ec76040870182612d45565b50600684018583036060870152612ede8382612c1c565b92505060088401612ef26080870182612d94565b5060118401549050612f0381612d04565b612f116101a0870182612466565b5060128401549050612f2281612dff565b612f306101c0870182612e19565b50612f3a81612e42565b612f486101e0870182612e5c565b50819250505092915050565b60006020820190508181036000830152612f6e8184612e6b565b905092915050565b7f4e487b7100000000000000000000000000000000000000000000000000000000600052601160045260246000fd5b6000612fb082612289565b91507fffffffffffffffffffffffffffffffffffffffffffffffffffffffffffffffff8203612fe257612fe1612f76565b5b600182019050919050565b600082825260208201905092915050565b7f526f6f6d20646f6573206e6f7420657869737400000000000000000000000000600082015250565b6000613034601383612fed565b915061303f82612ffe565b602082019050919050565b6000602082019050818103600083015261306381613027565b9050919050565b7f496e76616c6964206d6f76652e20506c6561736520656e74657220696e20746860008201527f6520626f6172642e000000000000000000000000000000000000000000000000602082015250565b60006130c6602883612fed565b91506130d18261306a565b604082019050919050565b600060208201905081810360008301526130f5816130b9565b9050919050565b7f556e6b6e6f776e20706c61796572000000000000000000000000000000000000600082015250565b6000613132600e83612fed565b915061313d826130fc565b602082019050919050565b6000602082019050818103600083015261316181613125565b9050919050565b7f47616d65206973204f7665720000000000000000000000000000000000000000600082015250565b600061319e600c83612fed565b91506131a982613168565b602082019050919050565b600060208201905081810360008301526131cd81613191565b9050919050565b7f416e6f7468657220506c6179657220616c726561647920706c6179656420746860008201527f6973206d6f76652e2054727920616e6f74686572000000000000000000000000602082015250565b6000613230603483612fed565b915061323b826131d4565b604082019050919050565b6000602082019050818103600083015261325f81613223565b9050919050565b7f49742773206e6f7420796f7572207475726e2e20506c65617365207761697400600082015250565b600061329c601f83612fed565b91506132a782613266565b602082019050919050565b600060208201905081810360008301526132cb8161328f565b9050919050565b60006132dd82612289565b91506132e883612289565b9250828201905080821115613300576132ff612f76565b5b92915050565b7f4e487b7100000000000000000000000000000000000000000000000000000000600052601260045260246000fd5b600061334082612289565b915061334b83612289565b92508261335b5761335a613306565b5b828206905092915050565b60006133718261236a565b915060ff820361338457613383612f76565b5b600182019050919050565b600061339a826126bc565b9050919050565b60006133ac8261338f565b9050919050565b6133bc816133a1565b82525050565b60006040820190506133d760008301856133b3565b6133e46020830184612293565b9392505050565b6133f481612410565b81146133ff57600080fd5b50565b600081519050613411816133eb565b92915050565b60006020828403121561342d5761342c6122c7565b5b600061343b84828501613402565b91505092915050565b7f47616d6520646f6573206e6f7420657869737400000000000000000000000000600082015250565b600061347a601383612fed565b915061348582613444565b602082019050919050565b600060208201905081810360008301526134a98161346d565b9050919050565b60006134bb8261259f565b9050919050565b6134cb816134b0565b82525050565b60006020820190506134e660008301846134c2565b92915050565b6000815190506134fb8161233e565b92915050565b600060208284031215613517576135166122c7565b5b6000613525848285016134ec565b91505092915050565b7f5468657265206973206e6f2077696e6e65722079657400000000000000000000600082015250565b6000613564601683612fed565b915061356f8261352e565b602082019050919050565b6000602082019050818103600083015261359381613557565b9050919050565b60006020820190506135af60008301846133b3565b92915050565b600080fd5b600080fd5b6000601f19601f8301169050919050565b6135d9826135bf565b810181811067ffffffffffffffff821117156135f8576135f76127ac565b5b80604052505050565b600061360b6122bd565b905061361782826135d0565b919050565b600067ffffffffffffffff821115613637576136366127ac565b5b613640826135bf565b9050602081019050919050565b60005b8381101561366b578082015181840152602081019050613650565b60008484015250505050565b600061368a6136858461361c565b613601565b9050828152602081018484840111156136a6576136a56135ba565b5b6136b184828561364d565b509392505050565b600082601f8301126136ce576136cd6135b5565b5b81516136de848260208601613677565b91505092915050565b6000602082840312156136fd576136fc6122c7565b5b600082015167ffffffffffffffff81111561371b5761371a6122cc565b5b613727848285016136b9565b91505092915050565b600060408201905061374560008301856134c2565b61375260208301846134c2565b9392505050565b7f506c6179657220686173206e6f7420676976656e20617574686f72697479207460008201527f6f207472616e7366657220746f6b656e2066726f6d20686973206163636f756e60208201527f742e20506c656173652061736b2068696d20746f20617070726f76652074686560408201527f207472616e736665722e00000000000000000000000000000000000000000000606082015250565b6000613801606a83612fed565b915061380c82613759565b608082019050919050565b60006020820190508181036000830152613830816137f4565b9050919050565b600060608201905061384c60008301866134c2565b61385960208301856134c2565b6138666040830184612293565b949350505050565b6000819050919050565b61388961388482612289565b61386e565b82525050565b60008160601b9050919050565b60006138a78261388f565b9050919050565b60006138b98261389c565b9050919050565b6138d16138cc826134b0565b6138ae565b82525050565b60006138e38286613878565b6020820191506138f382856138c0565b6014820191506139038284613878565b602082019150819050949350505050565b600081519050919050565b600061392a82613914565b6139348185612fed565b935061394481856020860161364d565b61394d816135bf565b840191505092915050565b60006040820190508181036000830152613972818561391f565b90508181036020830152613986818461391f565b90509392505050565b600060208201905081810360008301526139a9818461391f565b905092915050565b6000815490506139c08161280a565b9050919050565b8181036139d5575050613aad565b6139de826139b1565b67ffffffffffffffff8111156139f7576139f66127ac565b5b613a01825461280a565b613a0c828285612950565b6000601f831160018114613a3b5760008415613a29578287015490505b613a3385826129c1565b865550613aa6565b601f198416613a498761283b565b9650613a548661283b565b60005b82811015613a7c57848901548255600182019150600185019450602081019050613a57565b86831015613a995784890154613a95601f8916826129a3565b8355505b6001600288020188555050505b5050505050505b565b60006060820190508181036000830152613ac9818661391f565b90508181036020830152613add818561391f565b9050613aec6040830184612293565b949350505050565b6000613aff82612289565b9150613b0a83612289565b9250828202613b1881612289565b91508282048414831517613b2f57613b2e612f76565b5b5092915050565b7f596f7520646f206e6f742068617665207375666669656e742062616c616e636560008201527f20746f2072657761726400000000000000000000000000000000000000000000602082015250565b6000613b92602a83612fed565b9150613b9d82613b36565b604082019050919050565b60006020820190508181036000830152613bc181613b85565b9050919050565b60006040820190508181036000830152613be2818561391f565b9050613bf16020830184612293565b9392505050565b60006080820190508181036000830152613c12818761391f565b90508181036020830152613c26818661391f565b90508181036040830152613c3a818561391f565b90508181036060830152613c4e818461391f565b90509594505050505056fe25732c207361646c7920796f7520686176652065786365656465642074696d6520746f207265636f72642061206d6f7665203a282e20596f75206c6f7374207468652067616d65596f752061726520726577617264656420776974682025732e20546f6b656e204944202d20257348657265206973207468652063757272656e74207374617465206f6620626f61726420666f722047616d65202573506c61796572203220616c736f20656e746572656420696e746f2067616d652c204c6574277320626567696e212120616e6420746865207475726e20697320666f72202573416c69617321212049742773206120647261772e204e6f2070726f626c656d2c2072657475726e696e6720796f75722068617264206561726e656420746f6b656e73206261636b20746f20796f752e20566973697420757320736f6f6e21596f75206172652072657761726465642077697468202573204852505020636f696e732e506c61796572203120656e746572656420696e746f2067616d652c2077616974696e6720666f7220706c617965722032436f6e67726174756c6174696f6e7320257320666f722077696e6e696e67207468652067616d652ea264697066735822122007aa2c3b9e7784472938474fe4852b1687658ea12b0126d517854c7d676e5d5164736f6c63430008110033",
  "linkReferences": {},
  "deployedLinkReferences": {}
}