{
  "_format": "hh-sol-artifact-1",
  "contractName": "TicTacToe",
  "sourceName": "contracts/TicTacToe.sol",
  "abi": [
    {
      "anonymous": false,
      "inputs": [
        {
          "indexed": true,
          "internalType": "uint256",
          "name": "gameId",
          "type": "uint256"
        }
      ],
      "name": "GameEnded",
      "type": "event"
    },
    {
      "anonymous": false,
      "inputs": [
        {
          "indexed": true,
          "internalType": "uint256",
          "name": "gameId",
          "type": "uint256"
        }
      ],
      "name": "GameInitiated",
      "type": "event"
    },
    {
      "anonymous": false,
      "inputs": [
        {
          "indexed": true,
          "internalType": "uint256",
          "name": "gameId",
          "type": "uint256"
        }
      ],
      "name": "GameStarted",
      "type": "event"
    },
    {
      "anonymous": false,
      "inputs": [
        {
          "indexed": true,
          "internalType": "uint256",
          "name": "gameId",
          "type": "uint256"
        },
        {
          "indexed": false,
          "internalType": "uint256",
          "name": "index",
          "type": "uint256"
        }
      ],
      "name": "PlayerMoved",
      "type": "event"
    },
    {
      "inputs": [],
      "name": "GAME_TIMEOUT",
      "outputs": [
        {
          "internalType": "uint256",
          "name": "",
          "type": "uint256"
        }
      ],
      "stateMutability": "view",
      "type": "function"
    },
    {
      "inputs": [],
      "name": "STAKE",
      "outputs": [
        {
          "internalType": "uint256",
          "name": "",
          "type": "uint256"
        }
      ],
      "stateMutability": "view",
      "type": "function"
    },
    {
      "inputs": [],
      "name": "contractBalance",
      "outputs": [
        {
          "internalType": "uint256",
          "name": "",
          "type": "uint256"
        }
      ],
      "stateMutability": "view",
      "type": "function"
    },
    {
      "inputs": [
        {
          "internalType": "uint256",
          "name": "gameId",
          "type": "uint256"
        }
      ],
      "name": "currentActivePlayer",
      "outputs": [
        {
          "internalType": "string",
          "name": "",
          "type": "string"
        }
      ],
      "stateMutability": "view",
      "type": "function"
    },
    {
      "inputs": [
        {
          "internalType": "uint256",
          "name": "gameId",
          "type": "uint256"
        }
      ],
      "name": "gameState",
      "outputs": [
        {
          "internalType": "string",
          "name": "",
          "type": "string"
        }
      ],
      "stateMutability": "view",
      "type": "function"
    },
    {
      "inputs": [
        {
          "internalType": "uint256",
          "name": "gameId",
          "type": "uint256"
        }
      ],
      "name": "getBoard",
      "outputs": [
        {
          "internalType": "uint256[9]",
          "name": "",
          "type": "uint256[9]"
        }
      ],
      "stateMutability": "view",
      "type": "function"
    },
    {
      "inputs": [
        {
          "internalType": "uint256",
          "name": "gameId",
          "type": "uint256"
        }
      ],
      "name": "isGameRunning",
      "outputs": [
        {
          "internalType": "bool",
          "name": "",
          "type": "bool"
        }
      ],
      "stateMutability": "view",
      "type": "function"
    },
    {
      "inputs": [
        {
          "components": [
            {
              "internalType": "address payable",
              "name": "playerAddress",
              "type": "address"
            },
            {
              "internalType": "string",
              "name": "playerName",
              "type": "string"
            }
          ],
          "internalType": "struct TicTacToe.Player",
          "name": "player",
          "type": "tuple"
        }
      ],
      "name": "joinRoom",
      "outputs": [],
      "stateMutability": "nonpayable",
      "type": "function"
    },
    {
      "inputs": [],
      "name": "leaderboard",
      "outputs": [],
      "stateMutability": "view",
      "type": "function"
    },
    {
      "inputs": [
        {
          "internalType": "uint256",
          "name": "gameId",
          "type": "uint256"
        },
        {
          "internalType": "uint8",
          "name": "index",
          "type": "uint8"
        }
      ],
      "name": "move",
      "outputs": [],
      "stateMutability": "nonpayable",
      "type": "function"
    },
    {
      "inputs": [
        {
          "internalType": "uint256",
          "name": "",
          "type": "uint256"
        }
      ],
      "name": "rooms",
      "outputs": [
        {
          "internalType": "uint256",
          "name": "activePlayer",
          "type": "uint256"
        },
        {
          "internalType": "bool",
          "name": "isRoomActive",
          "type": "bool"
        },
        {
          "components": [
            {
              "internalType": "address payable",
              "name": "playerAddress",
              "type": "address"
            },
            {
              "internalType": "string",
              "name": "playerName",
              "type": "string"
            }
          ],
          "internalType": "struct TicTacToe.Player",
          "name": "winnerPlayer",
          "type": "tuple"
        },
        {
          "internalType": "uint256",
          "name": "lastPlayedTime",
          "type": "uint256"
        },
        {
          "internalType": "uint8",
          "name": "movedRecorded",
          "type": "uint8"
        },
        {
          "internalType": "enum TicTacToe.GameState",
          "name": "state",
          "type": "uint8"
        }
      ],
      "stateMutability": "view",
      "type": "function"
    },
    {
      "inputs": [],
      "name": "totalGames",
      "outputs": [
        {
          "internalType": "uint256",
          "name": "",
          "type": "uint256"
        }
      ],
      "stateMutability": "view",
      "type": "function"
    },
    {
      "inputs": [
        {
          "internalType": "uint256",
          "name": "gameId",
          "type": "uint256"
        }
      ],
      "name": "updateRoomIfExpired",
      "outputs": [
        {
          "internalType": "enum TicTacToe.GameState",
          "name": "",
          "type": "uint8"
        }
      ],
      "stateMutability": "nonpayable",
      "type": "function"
    },
    {
      "inputs": [
        {
          "internalType": "uint256",
          "name": "gameId",
          "type": "uint256"
        }
      ],
      "name": "winnerName",
      "outputs": [
        {
          "internalType": "string",
          "name": "",
          "type": "string"
        }
      ],
      "stateMutability": "view",
      "type": "function"
    }
  ],
  "bytecode": "0x608060405272af5cf1a775b0597f96a253f79663bd9a5bd1066000806101000a81548173ffffffffffffffffffffffffffffffffffffffff021916908373ffffffffffffffffffffffffffffffffffffffff160217905550736a47766e87cb800cc4c9cb46ab505fc2b99e5a23600160006101000a81548173ffffffffffffffffffffffffffffffffffffffff021916908373ffffffffffffffffffffffffffffffffffffffff1602179055506040518061010001604052806040518060600160405280600060ff168152602001600160ff168152602001600260ff1681525081526020016040518060600160405280600360ff168152602001600460ff168152602001600560ff1681525081526020016040518060600160405280600660ff168152602001600760ff168152602001600860ff1681525081526020016040518060600160405280600060ff168152602001600460ff168152602001600860ff1681525081526020016040518060600160405280600260ff168152602001600460ff168152602001600660ff1681525081526020016040518060600160405280600060ff168152602001600360ff168152602001600660ff1681525081526020016040518060600160405280600160ff168152602001600460ff168152602001600760ff1681525081526020016040518060600160405280600260ff168152602001600560ff168152602001600860ff168152508152506002906008620002289291906200025d565b506000600b556000600c60006101000a81548160ff0219169083151502179055503480156200025657600080fd5b50620003a1565b82600881019282156200029f579160200282015b828111156200029e578251829060036200028d929190620002b2565b509160200191906001019062000271565b5b509050620002ae919062000353565b5090565b826003601f01602090048101928215620003405791602002820160005b838211156200030f57835183826101000a81548160ff021916908360ff1602179055509260200192600101602081600001049283019260010302620002cf565b80156200033e5782816101000a81549060ff02191690556001016020816000010492830192600103026200030f565b505b5090506200034f91906200037b565b5090565b5b808211156200037757600081816200036d91906200039a565b5060010162000354565b5090565b5b80821115620003965760008160009055506001016200037c565b5090565b5060009055565b61489780620003b16000396000f3fe608060405234801561001057600080fd5b50600436106100ea5760003560e01c8063440b27ac1161008c57806361098ebd1161006657806361098ebd146102765780638b7afe2e146102a6578063e4ac619c146102c4578063eb56b740146102f4576100ea565b8063440b27ac146101e657806345e09e54146102165780634e0e1a3e14610246576100ea565b80631bae0ac8116100c85780631bae0ac814610147578063205758ba1461017c5780632c4e591b146101ac5780632d3e0851146101ca576100ea565b8063099420b6146100ef5780630a8884611461010d578063125fdbbc14610129575b600080fd5b6100f76102fe565b6040516101049190612d4c565b60405180910390f35b61012760048036038101906101229190612d9f565b610303565b005b61013161064e565b60405161013e9190612d4c565b60405180910390f35b610161600480360381019061015c9190612e14565b610653565b60405161017396959493929190612ffd565b60405180910390f35b61019660048036038101906101919190612e14565b6107a8565b6040516101a391906130af565b60405180910390f35b6101b4610898565b6040516101c19190612d4c565b60405180910390f35b6101e460048036038101906101df91906130fd565b6108a2565b005b61020060048036038101906101fb9190612e14565b6111cc565b60405161020d919061313d565b60405180910390f35b610230600480360381019061022b9190612e14565b6111f9565b60405161023d9190613203565b60405180910390f35b610260600480360381019061025b9190612e14565b611319565b60405161026d91906130af565b60405180910390f35b610290600480360381019061028b9190612e14565b611562565b60405161029d91906130af565b60405180910390f35b6102ae611708565b6040516102bb9190612d4c565b60405180910390f35b6102de60048036038101906102d99190612e14565b6117aa565b6040516102eb919061321f565b60405180910390f35b6102fc61188d565b005b607881565b6103208160000160208101906103199190613266565b6064611b24565b600c60009054906101000a900460ff161561054d5780600a6000600b54815260200190815260200160002060000160016002811061036157610360613293565b5b600202018181610371919061376c565b9050506001600a6000600b54815260200190815260200160002060050160006101000a81548160ff0219169083151502179055506001600a6000600b54815260200190815260200160002060120160016101000a81548160ff021916908360038111156103e1576103e0612f86565b5b021790555042600a6000600b548152602001908152602001600020601101819055506000600c60006101000a81548160ff021916908315150217905550610426611ca7565b600b547f50ad08f58a27f2851d7e3a1b3a6a46b290f2ce677e99642d30ff639721e7779060405160405180910390a26105486040518060800160405280604581526020016146d160459139600a6000600b548152602001908152602001600020600001600a6000600b54815260200190815260200160002060040154600281106104b3576104b2613293565b5b6002020160010180546104c590613473565b80601f01602080910402602001604051908101604052809291908181526020018280546104f190613473565b801561053e5780601f106105135761010080835404028352916020019161053e565b820191906000526020600020905b81548152906001019060200180831161052157829003601f168201915b5050505050611d01565b61064b565b80600a6000600b60008154610561906137a9565b919050819055815260200190815260200160002060000160006002811061058b5761058a613293565b5b60020201818161059b919061376c565b9050506001600c60006101000a81548160ff0219169083151502179055506105da60405180606001604052806030815260200161480a60309139611d9d565b6000600a6000600b54815260200190815260200160002060120160016101000a81548160ff0219169083600381111561061657610615612f86565b5b0217905550600b547fbc2d273bf6a446c17317e512505ef0de7a7a83d71b235974bea95e9c31ae529f60405160405180910390a25b50565b606481565b600a6020528060005260406000206000915090508060040154908060050160009054906101000a900460ff1690806006016040518060400160405290816000820160009054906101000a900473ffffffffffffffffffffffffffffffffffffffff1673ffffffffffffffffffffffffffffffffffffffff1673ffffffffffffffffffffffffffffffffffffffff1681526020016001820180546106f590613473565b80601f016020809104026020016040519081016040528092919081815260200182805461072190613473565b801561076e5780601f106107435761010080835404028352916020019161076e565b820191906000526020600020905b81548152906001019060200180831161075157829003601f168201915b505050505081525050908060110154908060120160009054906101000a900460ff16908060120160019054906101000a900460ff16905086565b606081600b5410156107ef576040517f08c379a00000000000000000000000000000000000000000000000000000000081526004016107e69061383d565b60405180910390fd5b600a6000838152602001908152602001600020600601600101805461081390613473565b80601f016020809104026020016040519081016040528092919081815260200182805461083f90613473565b801561088c5780601f106108615761010080835404028352916020019161088c565b820191906000526020600020905b81548152906001019060200180831161086f57829003601f168201915b50505050509050919050565b6000600b54905090565b81600b5410156108e7576040517f08c379a00000000000000000000000000000000000000000000000000000000081526004016108de906138a9565b60405180910390fd5b60088160ff16111561092e576040517f08c379a00000000000000000000000000000000000000000000000000000000081526004016109259061393b565b60405180910390fd5b600a600083815260200190815260200160002060000160006002811061095757610956613293565b5b6002020160000160009054906101000a900473ffffffffffffffffffffffffffffffffffffffff1673ffffffffffffffffffffffffffffffffffffffff163373ffffffffffffffffffffffffffffffffffffffff161480610a335750600a60008381526020019081526020016000206000016001600281106109dc576109db613293565b5b6002020160000160009054906101000a900473ffffffffffffffffffffffffffffffffffffffff1673ffffffffffffffffffffffffffffffffffffffff163373ffffffffffffffffffffffffffffffffffffffff16145b610a72576040517f08c379a0000000000000000000000000000000000000000000000000000000008152600401610a69906139a7565b60405180910390fd5b600a600083815260200190815260200160002060050160009054906101000a900460ff16610ad5576040517f08c379a0000000000000000000000000000000000000000000000000000000008152600401610acc90613a13565b60405180910390fd5b6000600a60008481526020019081526020016000206008018260ff1660098110610b0257610b01613293565b5b015414610b44576040517f08c379a0000000000000000000000000000000000000000000000000000000008152600401610b3b90613aa5565b60405180910390fd5b600a6000838152602001908152602001600020600001600a60008481526020019081526020016000206004015460028110610b8257610b81613293565b5b6002020160000160009054906101000a900473ffffffffffffffffffffffffffffffffffffffff1673ffffffffffffffffffffffffffffffffffffffff163373ffffffffffffffffffffffffffffffffffffffff1614610c17576040517f08c379a0000000000000000000000000000000000000000000000000000000008152600401610c0e90613b11565b60405180910390fd5b6078600a600084815260200190815260200160002060110154610c3a9190613b31565b421115610d7657610d306040518060800160405280604781526020016145fa60479139600a6000858152602001908152602001600020600001600a60008681526020019081526020016000206004015460028110610c9b57610c9a613293565b5b600202016001018054610cad90613473565b80601f0160208091040260200160405190810160405280929190818152602001828054610cd990613473565b8015610d265780601f10610cfb57610100808354040283529160200191610d26565b820191906000526020600020905b815481529060010190602001808311610d0957829003601f168201915b5050505050611d01565b610d688260026001600a600087815260200190815260200160002060040154610d599190613b31565b610d639190613b94565b611e36565b610d718261206b565b6111c8565b60006001600a600085815260200190815260200160002060040154610d9b9190613b31565b905080600a60008581526020019081526020016000206008018360ff1660098110610dc957610dc8613293565b5b0181905550600a6000848152602001908152602001600020601201600081819054906101000a900460ff1680929190610e0190613bc5565b91906101000a81548160ff021916908360ff16021790555050610e7581600a6000868152602001908152602001600020600801600980602002604051908101604052809291908260098015610e6b576020028201915b815481526020019060010190808311610e57575b5050505050612346565b15610e9f57610e9a83600a600086815260200190815260200160002060040154611e36565b611185565b6009600a600085815260200190815260200160002060120160009054906101000a900460ff1660ff160361114157610eee6040518060800160405280605e815260200161473b605e9139611d9d565b6000600a600085815260200190815260200160002060050160006101000a81548160ff0219169083151502179055506003600a600085815260200190815260200160002060120160016101000a81548160ff02191690836003811115610f5757610f56612f86565b5b021790555060008054906101000a900473ffffffffffffffffffffffffffffffffffffffff1673ffffffffffffffffffffffffffffffffffffffff1663a9059cbb600a6000868152602001908152602001600020600001600060028110610fc157610fc0613293565b5b6002020160000160009054906101000a900473ffffffffffffffffffffffffffffffffffffffff1660646040518363ffffffff1660e01b8152600401611008929190613c21565b6020604051808303816000875af1158015611027573d6000803e3d6000fd5b505050506040513d601f19601f8201168201806040525081019061104b9190613c76565b5060008054906101000a900473ffffffffffffffffffffffffffffffffffffffff1673ffffffffffffffffffffffffffffffffffffffff1663a9059cbb600a60008681526020019081526020016000206000016001600281106110b1576110b0613293565b5b6002020160000160009054906101000a900473ffffffffffffffffffffffffffffffffffffffff1660646040518363ffffffff1660e01b81526004016110f8929190613c21565b6020604051808303816000875af1158015611117573d6000803e3d6000fd5b505050506040513d601f19601f8201168201806040525081019061113b9190613c76565b50611184565b60028161114e9190613b94565b600a60008581526020019081526020016000206004018190555042600a6000858152602001908152602001600020601101819055505b5b827fac4bcfc5cf080dbca93d01cd2269f1df18ff969aebbe657f4268eb63ba39d98b836040516111b59190613cd4565b60405180910390a26111c68361206b565b505b5050565b6000600a600083815260200190815260200160002060050160009054906101000a900460ff169050919050565b611201612d10565b600073ffffffffffffffffffffffffffffffffffffffff16600a600084815260200190815260200160002060000160006002811061124257611241613293565b5b6002020160000160009054906101000a900473ffffffffffffffffffffffffffffffffffffffff1673ffffffffffffffffffffffffffffffffffffffff16036112c0576040517f08c379a00000000000000000000000000000000000000000000000000000000081526004016112b790613d3b565b60405180910390fd5b600a600083815260200190815260200160002060080160098060200260405190810160405280929190826009801561130d576020028201915b8154815260200190600101908083116112f9575b50505050509050919050565b606081600b541015611345576040518060800160405280604d8152602001614799604d9139905061155d565b600a600083815260200190815260200160002060050160009054906101000a900460ff16156114c3576001600381111561138257611381612f86565b5b600a600084815260200190815260200160002060120160019054906101000a900460ff1660038111156113b8576113b7612f86565b5b036113fa576040518060400160405280601081526020017f47616d65206973206f6e2d676f696e6700000000000000000000000000000000815250905061155d565b6002600381111561140e5761140d612f86565b5b600a600084815260200190815260200160002060120160019054906101000a900460ff16600381111561144457611443612f86565b5b03611486576040518060400160405280600c81526020017f47616d65206973206f7665720000000000000000000000000000000000000000815250905061155d565b6040518060400160405280600b81526020017f4974277320612064726177000000000000000000000000000000000000000000815250905061155d565b600060038111156114d7576114d6612f86565b5b600a600084815260200190815260200160002060120160019054906101000a900460ff16600381111561150d5761150c612f86565b5b03611532576040518060600160405280603b8152602001614668603b9139905061155d565b61153b826107a8565b60405160200161154b9190613e09565b60405160208183030381529060405290505b919050565b606081600b5410156115a9576040517f08c379a00000000000000000000000000000000000000000000000000000000081526004016115a09061383d565b60405180910390fd5b600060038111156115bd576115bc612f86565b5b600a600084815260200190815260200160002060120160019054906101000a900460ff1660038111156115f3576115f2612f86565b5b03611633576040517f08c379a000000000000000000000000000000000000000000000000000000000815260040161162a90613e77565b60405180910390fd5b600a6000838152602001908152602001600020600001600a6000848152602001908152602001600020600401546002811061167157611670613293565b5b60020201600101805461168390613473565b80601f01602080910402602001604051908101604052809291908181526020018280546116af90613473565b80156116fc5780601f106116d1576101008083540402835291602001916116fc565b820191906000526020600020905b8154815290600101906020018083116116df57829003601f168201915b50505050509050919050565b60008060009054906101000a900473ffffffffffffffffffffffffffffffffffffffff1673ffffffffffffffffffffffffffffffffffffffff166370a08231306040518263ffffffff1660e01b81526004016117649190613eb8565b602060405180830381865afa158015611781573d6000803e3d6000fd5b505050506040513d601f19601f820116820180604052508101906117a59190613ee8565b905090565b60006078600a6000848152602001908152602001600020601101546117cf9190613b31565b421180156118245750600160038111156117ec576117eb612f86565b5b600a600084815260200190815260200160002060120160019054906101000a900460ff16600381111561182257611821612f86565b5b145b15611862576118618260026001600a6000878152602001908152602001600020600401546118529190613b31565b61185c9190613b94565b611e36565b5b600a600083815260200190815260200160002060120160019054906101000a900460ff169050919050565b6118cb6040518060400160405280600b81526020017f4c6561646572426f617264000000000000000000000000000000000000000000815250611d9d565b60005b600b54811015611b21576118f960405180606001604052806025815260200161471660259139611d9d565b6119d96040518060400160405280600c81526020017f2573207c202573207c20257300000000000000000000000000000000000000008152506040518060400160405280600781526020017f47616d65204944000000000000000000000000000000000000000000000000008152506040518060400160405280600681526020017f57696e6e657200000000000000000000000000000000000000000000000000008152506040518060400160405280600e81526020017f576173206974206120647261773f0000000000000000000000000000000000008152506124b7565b6119fa60405180606001604052806025815260200161471660259139611d9d565b611b0e6040518060400160405280600c81526020017f2573207c202573207c2025730000000000000000000000000000000000000000815250600183611a409190613b31565b611a49846107a8565b600380811115611a5c57611a5b612f86565b5b600a600087815260200190815260200160002060120160019054906101000a900460ff166003811115611a9257611a91612f86565b5b14611ad2576040518060400160405280600281526020017f6e6f000000000000000000000000000000000000000000000000000000000000815250611b09565b6040518060400160405280600381526020017f79657300000000000000000000000000000000000000000000000000000000008152505b612559565b8080611b19906137a9565b9150506118ce565b50565b8060008054906101000a900473ffffffffffffffffffffffffffffffffffffffff1673ffffffffffffffffffffffffffffffffffffffff1663dd62ed3e84306040518363ffffffff1660e01b8152600401611b80929190613f15565b602060405180830381865afa158015611b9d573d6000803e3d6000fd5b505050506040513d601f19601f82011682018060405250810190611bc19190613ee8565b1015611c02576040517f08c379a0000000000000000000000000000000000000000000000000000000008152600401611bf990613ffc565b60405180910390fd5b60008054906101000a900473ffffffffffffffffffffffffffffffffffffffff1673ffffffffffffffffffffffffffffffffffffffff166323b872dd8330846040518463ffffffff1660e01b8152600401611c5f9392919061401c565b6020604051808303816000875af1158015611c7e573d6000803e3d6000fd5b505050506040513d601f19601f82011682018060405250810190611ca29190613c76565b505050565b60024233600b54604051602001611cc0939291906140bc565b6040516020818303038152906040528051906020012060001c611ce39190613b94565b600a6000600b54815260200190815260200160002060040181905550565b611d998282604051602401611d179291906140f9565b6040516020818303038152906040527f4b5c4277000000000000000000000000000000000000000000000000000000007bffffffffffffffffffffffffffffffffffffffffffffffffffffffff19166020820180517bffffffffffffffffffffffffffffffffffffffffffffffffffffffff83818316178352505050506125fb565b5050565b611e3381604051602401611db191906130af565b6040516020818303038152906040527f41304fac000000000000000000000000000000000000000000000000000000007bffffffffffffffffffffffffffffffffffffffffffffffffffffffff19166020820180517bffffffffffffffffffffffffffffffffffffffffffffffffffffffff83818316178352505050506125fb565b50565b6000600a600084815260200190815260200160002060050160006101000a81548160ff021916908315150217905550600a60008381526020019081526020016000206000018160028110611e8d57611e8c613293565b5b60020201600a60008481526020019081526020016000206006016000820160009054906101000a900473ffffffffffffffffffffffffffffffffffffffff168160000160006101000a81548173ffffffffffffffffffffffffffffffffffffffff021916908373ffffffffffffffffffffffffffffffffffffffff16021790555060018201816001019081611f229190614146565b509050506002600a600084815260200190815260200160002060120160016101000a81548160ff02191690836003811115611f6057611f5f612f86565b5b0217905550611f6e82612624565b611f77826128cc565b817fce24807f7e4b60b4e641462f13029fa5e5f79075bbc3f8e5cd43ecd19661d76060405160405180910390a261206760405180606001604052806028815260200161483a60289139600a60008581526020019081526020016000206006016001018054611fe490613473565b80601f016020809104026020016040519081016040528092919081815260200182805461201090613473565b801561205d5780601f106120325761010080835404028352916020019161205d565b820191906000526020600020905b81548152906001019060200180831161204057829003601f168201915b5050505050611d01565b5050565b61208d6040518060600160405280602e81526020016146a3602e913982612b0b565b6000600a60008381526020019081526020016000206008016009806020026040519081016040528092919082600980156120dc576020028201915b8154815260200190600101908083116120c8575b505050505090506121846040518060400160405280600c81526020017f2573207c202573207c202573000000000000000000000000000000000000000081525061213d8360006009811061213357612132613293565b5b6020020151612ba7565b61215e8460016009811061215457612153613293565b5b6020020151612ba7565b61217f8560026009811061217557612174613293565b5b6020020151612ba7565b6124b7565b6121c26040518060400160405280600981526020017f2d2d2d2d2d2d2d2d2d0000000000000000000000000000000000000000000000815250611d9d565b6122636040518060400160405280600c81526020017f2573207c202573207c202573000000000000000000000000000000000000000081525061221c8360036009811061221257612211613293565b5b6020020151612ba7565b61223d8460046009811061223357612232613293565b5b6020020151612ba7565b61225e8560056009811061225457612253613293565b5b6020020151612ba7565b6124b7565b6122a16040518060400160405280600981526020017f2d2d2d2d2d2d2d2d2d0000000000000000000000000000000000000000000000815250611d9d565b6123426040518060400160405280600c81526020017f2573207c202573207c20257300000000000000000000000000000000000000008152506122fb836006600981106122f1576122f0613293565b5b6020020151612ba7565b61231c8460076009811061231257612311613293565b5b6020020151612ba7565b61233d8560086009811061233357612332613293565b5b6020020151612ba7565b6124b7565b5050565b600080600090505b60088160ff1610156124ab57600060028260ff166008811061237357612372613293565b5b016003806020026040519081016040528092919082600380156123d1576020028201916000905b82829054906101000a900460ff1660ff168152602001906001019060208260000104928301926001038202915080841161239a5790505b505050505090508484826000600381106123ee576123ed613293565b5b602002015160ff166009811061240757612406613293565b5b602002015114801561244a575084848260016003811061242a57612429613293565b5b602002015160ff166009811061244357612442613293565b5b6020020151145b8015612487575084848260026003811061246757612466613293565b5b602002015160ff16600981106124805761247f613293565b5b6020020151145b15612497576001925050506124b1565b5080806124a390613bc5565b91505061234e565b50600090505b92915050565b612553848484846040516024016124d1949392919061422e565b6040516020818303038152906040527fde68f20a000000000000000000000000000000000000000000000000000000007bffffffffffffffffffffffffffffffffffffffffffffffffffffffff19166020820180517bffffffffffffffffffffffffffffffffffffffffffffffffffffffff83818316178352505050506125fb565b50505050565b6125f584848484604051602401612573949392919061428f565b6040516020818303038152906040527f5ab84e1f000000000000000000000000000000000000000000000000000000007bffffffffffffffffffffffffffffffffffffffffffffffffffffffff19166020820180517bffffffffffffffffffffffffffffffffffffffffffffffffffffffff83818316178352505050506125fb565b50505050565b60008151905060006a636f6e736f6c652e6c6f679050602083016000808483855afa5050505050565b600073ffffffffffffffffffffffffffffffffffffffff16600a600083815260200190815260200160002060060160000160009054906101000a900473ffffffffffffffffffffffffffffffffffffffff1673ffffffffffffffffffffffffffffffffffffffff16036126cc576040517f08c379a00000000000000000000000000000000000000000000000000000000081526004016126c390614335565b60405180910390fd5b600260646126da9190614355565b60008054906101000a900473ffffffffffffffffffffffffffffffffffffffff1673ffffffffffffffffffffffffffffffffffffffff166370a08231306040518263ffffffff1660e01b81526004016127339190613eb8565b602060405180830381865afa158015612750573d6000803e3d6000fd5b505050506040513d601f19601f820116820180604052508101906127749190613ee8565b10156127b5576040517f08c379a00000000000000000000000000000000000000000000000000000000081526004016127ac90614409565b60405180910390fd5b60008054906101000a900473ffffffffffffffffffffffffffffffffffffffff1673ffffffffffffffffffffffffffffffffffffffff1663a9059cbb600a600084815260200190815260200160002060060160000160009054906101000a900473ffffffffffffffffffffffffffffffffffffffff16600260646128399190614355565b6040518363ffffffff1660e01b8152600401612856929190613c21565b6020604051808303816000875af1158015612875573d6000803e3d6000fd5b505050506040513d601f19601f820116820180604052508101906128999190613c76565b506128c96040518060600160405280602481526020016147e660249139600260646128c49190614355565b612b0b565b50565b600073ffffffffffffffffffffffffffffffffffffffff16600a600083815260200190815260200160002060060160000160009054906101000a900473ffffffffffffffffffffffffffffffffffffffff1673ffffffffffffffffffffffffffffffffffffffff1603612974576040517f08c379a000000000000000000000000000000000000000000000000000000000815260040161296b90614335565b60405180910390fd5b6000600160009054906101000a900473ffffffffffffffffffffffffffffffffffffffff1673ffffffffffffffffffffffffffffffffffffffff166340d097c3600a600085815260200190815260200160002060060160000160009054906101000a900473ffffffffffffffffffffffffffffffffffffffff166040518263ffffffff1660e01b8152600401612a0a9190614429565b6020604051808303816000875af1158015612a29573d6000803e3d6000fd5b505050506040513d601f19601f82011682018060405250810190612a4d9190613ee8565b9050612b0760405180606001604052806027815260200161464160279139600160009054906101000a900473ffffffffffffffffffffffffffffffffffffffff1673ffffffffffffffffffffffffffffffffffffffff166306fdde036040518163ffffffff1660e01b8152600401600060405180830381865afa158015612ad8573d6000803e3d6000fd5b505050506040513d6000823e3d601f19601f82011682018060405250810190612b01919061453b565b83612c71565b5050565b612ba38282604051602401612b21929190614584565b6040516020818303038152906040527fb60e72cc000000000000000000000000000000000000000000000000000000007bffffffffffffffffffffffffffffffffffffffffffffffffffffffff19166020820180517bffffffffffffffffffffffffffffffffffffffffffffffffffffffff83818316178352505050506125fb565b5050565b606060018203612bee576040518060400160405280600181526020017f58000000000000000000000000000000000000000000000000000000000000008152509050612c6c565b60028203612c33576040518060400160405280600181526020017f30000000000000000000000000000000000000000000000000000000000000008152509050612c6c565b6040518060400160405280600181526020017f2d0000000000000000000000000000000000000000000000000000000000000081525090505b919050565b612d0b838383604051602401612c89939291906145b4565b6040516020818303038152906040527f5821efa1000000000000000000000000000000000000000000000000000000007bffffffffffffffffffffffffffffffffffffffffffffffffffffffff19166020820180517bffffffffffffffffffffffffffffffffffffffffffffffffffffffff83818316178352505050506125fb565b505050565b604051806101200160405280600990602082028036833780820191505090505090565b6000819050919050565b612d4681612d33565b82525050565b6000602082019050612d616000830184612d3d565b92915050565b6000604051905090565b600080fd5b600080fd5b600080fd5b600060408284031215612d9657612d95612d7b565b5b81905092915050565b600060208284031215612db557612db4612d71565b5b600082013567ffffffffffffffff811115612dd357612dd2612d76565b5b612ddf84828501612d80565b91505092915050565b612df181612d33565b8114612dfc57600080fd5b50565b600081359050612e0e81612de8565b92915050565b600060208284031215612e2a57612e29612d71565b5b6000612e3884828501612dff565b91505092915050565b60008115159050919050565b612e5681612e41565b82525050565b600073ffffffffffffffffffffffffffffffffffffffff82169050919050565b6000612e8782612e5c565b9050919050565b612e9781612e7c565b82525050565b600081519050919050565b600082825260208201905092915050565b60005b83811015612ed7578082015181840152602081019050612ebc565b60008484015250505050565b6000601f19601f8301169050919050565b6000612eff82612e9d565b612f098185612ea8565b9350612f19818560208601612eb9565b612f2281612ee3565b840191505092915050565b6000604083016000830151612f456000860182612e8e565b5060208301518482036020860152612f5d8282612ef4565b9150508091505092915050565b600060ff82169050919050565b612f8081612f6a565b82525050565b7f4e487b7100000000000000000000000000000000000000000000000000000000600052602160045260246000fd5b60048110612fc657612fc5612f86565b5b50565b6000819050612fd782612fb5565b919050565b6000612fe782612fc9565b9050919050565b612ff781612fdc565b82525050565b600060c0820190506130126000830189612d3d565b61301f6020830188612e4d565b81810360408301526130318187612f2d565b90506130406060830186612d3d565b61304d6080830185612f77565b61305a60a0830184612fee565b979650505050505050565b600082825260208201905092915050565b600061308182612e9d565b61308b8185613065565b935061309b818560208601612eb9565b6130a481612ee3565b840191505092915050565b600060208201905081810360008301526130c98184613076565b905092915050565b6130da81612f6a565b81146130e557600080fd5b50565b6000813590506130f7816130d1565b92915050565b6000806040838503121561311457613113612d71565b5b600061312285828601612dff565b9250506020613133858286016130e8565b9150509250929050565b60006020820190506131526000830184612e4d565b92915050565b600060099050919050565b600081905092915050565b6000819050919050565b61318181612d33565b82525050565b60006131938383613178565b60208301905092915050565b6000602082019050919050565b6131b581613158565b6131bf8184613163565b92506131ca8261316e565b8060005b838110156131fb5781516131e28782613187565b96506131ed8361319f565b9250506001810190506131ce565b505050505050565b60006101208201905061321960008301846131ac565b92915050565b60006020820190506132346000830184612fee565b92915050565b61324381612e7c565b811461324e57600080fd5b50565b6000813590506132608161323a565b92915050565b60006020828403121561327c5761327b612d71565b5b600061328a84828501613251565b91505092915050565b7f4e487b7100000000000000000000000000000000000000000000000000000000600052603260045260246000fd5b600081356132cf8161323a565b80915050919050565b60008160001b9050919050565b600073ffffffffffffffffffffffffffffffffffffffff613305846132d8565b9350801983169250808416831791505092915050565b6000819050919050565b600061334061333b61333684612e5c565b61331b565b612e5c565b9050919050565b600061335282613325565b9050919050565b600061336482613347565b9050919050565b6000819050919050565b61337e82613359565b61339161338a8261336b565b83546132e5565b8255505050565b600080fd5b600080fd5b600080fd5b600080833560016020038436030381126133c4576133c3613398565b5b80840192508235915067ffffffffffffffff8211156133e6576133e561339d565b5b602083019250600182023603831315613402576134016133a2565b5b509250929050565b600082905092915050565b7f4e487b7100000000000000000000000000000000000000000000000000000000600052604160045260246000fd5b7f4e487b7100000000000000000000000000000000000000000000000000000000600052602260045260246000fd5b6000600282049050600182168061348b57607f821691505b60208210810361349e5761349d613444565b5b50919050565b60008190508160005260206000209050919050565b60006020601f8301049050919050565b600082821b905092915050565b6000600883026135067fffffffffffffffffffffffffffffffffffffffffffffffffffffffffffffffff826134c9565b61351086836134c9565b95508019841693508086168417925050509392505050565b600061354361353e61353984612d33565b61331b565b612d33565b9050919050565b6000819050919050565b61355d83613528565b6135716135698261354a565b8484546134d6565b825550505050565b600090565b613586613579565b613591818484613554565b505050565b5b818110156135b5576135aa60008261357e565b600181019050613597565b5050565b601f8211156135fa576135cb816134a4565b6135d4846134b9565b810160208510156135e3578190505b6135f76135ef856134b9565b830182613596565b50505b505050565b600082821c905092915050565b600061361d600019846008026135ff565b1980831691505092915050565b6000613636838361360c565b9150826002028217905092915050565b613650838361340a565b67ffffffffffffffff81111561366957613668613415565b5b6136738254613473565b61367e8282856135b9565b6000601f8311600181146136ad576000841561369b578287013590505b6136a5858261362a565b86555061370d565b601f1984166136bb866134a4565b60005b828110156136e3578489013582556001820191506020850194506020810190506136be565b8683101561370057848901356136fc601f89168261360c565b8355505b6001600288020188555050505b50505050505050565b613721838383613646565b505050565b600081016000830180613738816132c2565b90506137448184613375565b505050600181016020830161375981856133a7565b613764818386613716565b505050505050565b6137768282613726565b5050565b7f4e487b7100000000000000000000000000000000000000000000000000000000600052601160045260246000fd5b60006137b482612d33565b91507fffffffffffffffffffffffffffffffffffffffffffffffffffffffffffffffff82036137e6576137e561377a565b5b600182019050919050565b7f496e76616c69642067616d650000000000000000000000000000000000000000600082015250565b6000613827600c83613065565b9150613832826137f1565b602082019050919050565b600060208201905081810360008301526138568161381a565b9050919050565b7f526f6f6d20646f6573206e6f7420657869737400000000000000000000000000600082015250565b6000613893601383613065565b915061389e8261385d565b602082019050919050565b600060208201905081810360008301526138c281613886565b9050919050565b7f496e76616c6964206d6f76652e20506c6561736520656e74657220696e20746860008201527f6520626f6172642e000000000000000000000000000000000000000000000000602082015250565b6000613925602883613065565b9150613930826138c9565b604082019050919050565b6000602082019050818103600083015261395481613918565b9050919050565b7f556e6b6e6f776e20706c61796572000000000000000000000000000000000000600082015250565b6000613991600e83613065565b915061399c8261395b565b602082019050919050565b600060208201905081810360008301526139c081613984565b9050919050565b7f47616d65206973204f7665720000000000000000000000000000000000000000600082015250565b60006139fd600c83613065565b9150613a08826139c7565b602082019050919050565b60006020820190508181036000830152613a2c816139f0565b9050919050565b7f416e6f7468657220506c6179657220616c726561647920706c6179656420746860008201527f6973206d6f76652e2054727920616e6f74686572000000000000000000000000602082015250565b6000613a8f603483613065565b9150613a9a82613a33565b604082019050919050565b60006020820190508181036000830152613abe81613a82565b9050919050565b7f49742773206e6f7420796f7572207475726e2e20506c65617365207761697400600082015250565b6000613afb601f83613065565b9150613b0682613ac5565b602082019050919050565b60006020820190508181036000830152613b2a81613aee565b9050919050565b6000613b3c82612d33565b9150613b4783612d33565b9250828201905080821115613b5f57613b5e61377a565b5b92915050565b7f4e487b7100000000000000000000000000000000000000000000000000000000600052601260045260246000fd5b6000613b9f82612d33565b9150613baa83612d33565b925082613bba57613bb9613b65565b5b828206905092915050565b6000613bd082612f6a565b915060ff8203613be357613be261377a565b5b600182019050919050565b6000613bf982613325565b9050919050565b6000613c0b82613bee565b9050919050565b613c1b81613c00565b82525050565b6000604082019050613c366000830185613c12565b613c436020830184612d3d565b9392505050565b613c5381612e41565b8114613c5e57600080fd5b50565b600081519050613c7081613c4a565b92915050565b600060208284031215613c8c57613c8b612d71565b5b6000613c9a84828501613c61565b91505092915050565b6000613cbe613cb9613cb484612f6a565b61331b565b612d33565b9050919050565b613cce81613ca3565b82525050565b6000602082019050613ce96000830184613cc5565b92915050565b7f47616d6520646f6573206e6f7420657869737400000000000000000000000000600082015250565b6000613d25601383613065565b9150613d3082613cef565b602082019050919050565b60006020820190508181036000830152613d5481613d18565b9050919050565b600081905092915050565b7f47616d65206973206f7665722e20416e642077696e6e657220666f722074686560008201527f20726f756e642077617320000000000000000000000000000000000000000000602082015250565b6000613dc2602b83613d5b565b9150613dcd82613d66565b602b82019050919050565b6000613de382612e9d565b613ded8185613d5b565b9350613dfd818560208601612eb9565b80840191505092915050565b6000613e1482613db5565b9150613e208284613dd8565b915081905092915050565b7f4e6f2061637469766520706c6179657220617420746869732074696d65000000600082015250565b6000613e61601d83613065565b9150613e6c82613e2b565b602082019050919050565b60006020820190508181036000830152613e9081613e54565b9050919050565b6000613ea282612e5c565b9050919050565b613eb281613e97565b82525050565b6000602082019050613ecd6000830184613ea9565b92915050565b600081519050613ee281612de8565b92915050565b600060208284031215613efe57613efd612d71565b5b6000613f0c84828501613ed3565b91505092915050565b6000604082019050613f2a6000830185613ea9565b613f376020830184613ea9565b9392505050565b7f506c6179657220686173206e6f7420676976656e20617574686f72697479207460008201527f6f207472616e7366657220746f6b656e2066726f6d20686973206163636f756e60208201527f742e20506c656173652061736b2068696d20746f20617070726f76652074686560408201527f207472616e736665722e00000000000000000000000000000000000000000000606082015250565b6000613fe6606a83613065565b9150613ff182613f3e565b608082019050919050565b6000602082019050818103600083015261401581613fd9565b9050919050565b60006060820190506140316000830186613ea9565b61403e6020830185613ea9565b61404b6040830184612d3d565b949350505050565b6000819050919050565b61406e61406982612d33565b614053565b82525050565b60008160601b9050919050565b600061408c82614074565b9050919050565b600061409e82614081565b9050919050565b6140b66140b182613e97565b614093565b82525050565b60006140c8828661405d565b6020820191506140d882856140a5565b6014820191506140e8828461405d565b602082019150819050949350505050565b600060408201905081810360008301526141138185613076565b905081810360208301526141278184613076565b90509392505050565b60008154905061413f81613473565b9050919050565b81810361415457505061422c565b61415d82614130565b67ffffffffffffffff81111561417657614175613415565b5b6141808254613473565b61418b8282856135b9565b6000601f8311600181146141ba57600084156141a8578287015490505b6141b2858261362a565b865550614225565b601f1984166141c8876134a4565b96506141d3866134a4565b60005b828110156141fb578489015482556001820191506001850194506020810190506141d6565b868310156142185784890154614214601f89168261360c565b8355505b6001600288020188555050505b5050505050505b565b600060808201905081810360008301526142488187613076565b9050818103602083015261425c8186613076565b905081810360408301526142708185613076565b905081810360608301526142848184613076565b905095945050505050565b600060808201905081810360008301526142a98187613076565b90506142b86020830186612d3d565b81810360408301526142ca8185613076565b905081810360608301526142de8184613076565b905095945050505050565b7f5468657265206973206e6f2077696e6e65722079657400000000000000000000600082015250565b600061431f601683613065565b915061432a826142e9565b602082019050919050565b6000602082019050818103600083015261434e81614312565b9050919050565b600061436082612d33565b915061436b83612d33565b925082820261437981612d33565b915082820484148315176143905761438f61377a565b5b5092915050565b7f596f7520646f206e6f742068617665207375666669656e742062616c616e636560008201527f20746f2072657761726400000000000000000000000000000000000000000000602082015250565b60006143f3602a83613065565b91506143fe82614397565b604082019050919050565b60006020820190508181036000830152614422816143e6565b9050919050565b600060208201905061443e6000830184613c12565b92915050565b600080fd5b600080fd5b61445782612ee3565b810181811067ffffffffffffffff8211171561447657614475613415565b5b80604052505050565b6000614489612d67565b9050614495828261444e565b919050565b600067ffffffffffffffff8211156144b5576144b4613415565b5b6144be82612ee3565b9050602081019050919050565b60006144de6144d98461449a565b61447f565b9050828152602081018484840111156144fa576144f9614449565b5b614505848285612eb9565b509392505050565b600082601f83011261452257614521614444565b5b81516145328482602086016144cb565b91505092915050565b60006020828403121561455157614550612d71565b5b600082015167ffffffffffffffff81111561456f5761456e612d76565b5b61457b8482850161450d565b91505092915050565b6000604082019050818103600083015261459e8185613076565b90506145ad6020830184612d3d565b9392505050565b600060608201905081810360008301526145ce8186613076565b905081810360208301526145e28185613076565b90506145f16040830184612d3d565b94935050505056fe25732c207361646c7920796f7520686176652065786365656465642074696d6520746f207265636f72642061206d6f7665203a282e20596f75206c6f7374207468652067616d65596f752061726520726577617264656420776974682025732e20546f6b656e204944202d20257347616d65206973206e6f742073746172746564207965742e2057616974696e6720666f7220616e6f7468657220706c6179657220746f206a6f696e48657265206973207468652063757272656e74207374617465206f6620626f61726420666f722047616d65202573506c61796572203220616c736f20656e746572656420696e746f2067616d652c204c6574277320626567696e212120616e6420746865207475726e20697320666f722025732d2d2d2d2d2d2d2d2d2d2d2d2d2d2d2d2d2d2d2d2d2d2d2d2d2d2d2d2d2d2d2d2d2d2d2d2d416c69617321212049742773206120647261772e204e6f2070726f626c656d2c2072657475726e696e6720796f75722068617264206561726e656420746f6b656e73206261636b20746f20796f752e20566973697420757320736f6f6e2147616d6520646f6573206e6f74206578697374732e20496620796f752077616e7420746f20706c61792c20706c6561736520676f7420746f20686f6d65207061676520616e642073746172742e596f75206172652072657761726465642077697468202573204852505020636f696e732e506c61796572203120656e746572656420696e746f2067616d652c2077616974696e6720666f7220706c617965722032436f6e67726174756c6174696f6e7320257320666f722077696e6e696e67207468652067616d652ea2646970667358221220899a97e1239f130e21afa5d2db37f48d21f0c0a781ee5b58693ecb7b3059ceb364736f6c63430008110033",
  "linkReferences": {},
  "deployedLinkReferences": {}
}