{
  "_format": "hh-sol-artifact-1",
  "contractName": "TicTacToe",
  "sourceName": "contracts/TicTacToe.sol",
  "abi": [
    {
      "anonymous": false,
      "inputs": [
        {
          "indexed": true,
          "internalType": "uint256",
          "name": "gameId",
          "type": "uint256"
        },
        {
          "components": [
            {
              "components": [
                {
                  "internalType": "address payable",
                  "name": "playerAddress",
                  "type": "address"
                },
                {
                  "internalType": "string",
                  "name": "playerName",
                  "type": "string"
                }
              ],
              "internalType": "struct TicTacToe.Player[2]",
              "name": "players",
              "type": "tuple[2]"
            },
            {
              "internalType": "uint256",
              "name": "activePlayer",
              "type": "uint256"
            },
            {
              "internalType": "bool",
              "name": "isRoomActive",
              "type": "bool"
            },
            {
              "components": [
                {
                  "internalType": "address payable",
                  "name": "playerAddress",
                  "type": "address"
                },
                {
                  "internalType": "string",
                  "name": "playerName",
                  "type": "string"
                }
              ],
              "internalType": "struct TicTacToe.Player",
              "name": "winnerPlayer",
              "type": "tuple"
            },
            {
              "internalType": "uint256[9]",
              "name": "board",
              "type": "uint256[9]"
            },
            {
              "internalType": "uint256",
              "name": "lastPlayedTime",
              "type": "uint256"
            },
            {
              "internalType": "uint8",
              "name": "movedRecorded",
              "type": "uint8"
            },
            {
              "internalType": "enum TicTacToe.GameState",
              "name": "state",
              "type": "uint8"
            }
          ],
          "indexed": false,
          "internalType": "struct TicTacToe.Room",
          "name": "room",
          "type": "tuple"
        }
      ],
      "name": "GameEnded",
      "type": "event"
    },
    {
      "anonymous": false,
      "inputs": [
        {
          "indexed": true,
          "internalType": "uint256",
          "name": "gameId",
          "type": "uint256"
        },
        {
          "components": [
            {
              "components": [
                {
                  "internalType": "address payable",
                  "name": "playerAddress",
                  "type": "address"
                },
                {
                  "internalType": "string",
                  "name": "playerName",
                  "type": "string"
                }
              ],
              "internalType": "struct TicTacToe.Player[2]",
              "name": "players",
              "type": "tuple[2]"
            },
            {
              "internalType": "uint256",
              "name": "activePlayer",
              "type": "uint256"
            },
            {
              "internalType": "bool",
              "name": "isRoomActive",
              "type": "bool"
            },
            {
              "components": [
                {
                  "internalType": "address payable",
                  "name": "playerAddress",
                  "type": "address"
                },
                {
                  "internalType": "string",
                  "name": "playerName",
                  "type": "string"
                }
              ],
              "internalType": "struct TicTacToe.Player",
              "name": "winnerPlayer",
              "type": "tuple"
            },
            {
              "internalType": "uint256[9]",
              "name": "board",
              "type": "uint256[9]"
            },
            {
              "internalType": "uint256",
              "name": "lastPlayedTime",
              "type": "uint256"
            },
            {
              "internalType": "uint8",
              "name": "movedRecorded",
              "type": "uint8"
            },
            {
              "internalType": "enum TicTacToe.GameState",
              "name": "state",
              "type": "uint8"
            }
          ],
          "indexed": false,
          "internalType": "struct TicTacToe.Room",
          "name": "room",
          "type": "tuple"
        }
      ],
      "name": "GameInitiated",
      "type": "event"
    },
    {
      "anonymous": false,
      "inputs": [
        {
          "indexed": true,
          "internalType": "uint256",
          "name": "gameId",
          "type": "uint256"
        },
        {
          "components": [
            {
              "components": [
                {
                  "internalType": "address payable",
                  "name": "playerAddress",
                  "type": "address"
                },
                {
                  "internalType": "string",
                  "name": "playerName",
                  "type": "string"
                }
              ],
              "internalType": "struct TicTacToe.Player[2]",
              "name": "players",
              "type": "tuple[2]"
            },
            {
              "internalType": "uint256",
              "name": "activePlayer",
              "type": "uint256"
            },
            {
              "internalType": "bool",
              "name": "isRoomActive",
              "type": "bool"
            },
            {
              "components": [
                {
                  "internalType": "address payable",
                  "name": "playerAddress",
                  "type": "address"
                },
                {
                  "internalType": "string",
                  "name": "playerName",
                  "type": "string"
                }
              ],
              "internalType": "struct TicTacToe.Player",
              "name": "winnerPlayer",
              "type": "tuple"
            },
            {
              "internalType": "uint256[9]",
              "name": "board",
              "type": "uint256[9]"
            },
            {
              "internalType": "uint256",
              "name": "lastPlayedTime",
              "type": "uint256"
            },
            {
              "internalType": "uint8",
              "name": "movedRecorded",
              "type": "uint8"
            },
            {
              "internalType": "enum TicTacToe.GameState",
              "name": "state",
              "type": "uint8"
            }
          ],
          "indexed": false,
          "internalType": "struct TicTacToe.Room",
          "name": "room",
          "type": "tuple"
        }
      ],
      "name": "GameStarted",
      "type": "event"
    },
    {
      "anonymous": false,
      "inputs": [
        {
          "indexed": true,
          "internalType": "uint256",
          "name": "gameId",
          "type": "uint256"
        },
        {
          "components": [
            {
              "components": [
                {
                  "internalType": "address payable",
                  "name": "playerAddress",
                  "type": "address"
                },
                {
                  "internalType": "string",
                  "name": "playerName",
                  "type": "string"
                }
              ],
              "internalType": "struct TicTacToe.Player[2]",
              "name": "players",
              "type": "tuple[2]"
            },
            {
              "internalType": "uint256",
              "name": "activePlayer",
              "type": "uint256"
            },
            {
              "internalType": "bool",
              "name": "isRoomActive",
              "type": "bool"
            },
            {
              "components": [
                {
                  "internalType": "address payable",
                  "name": "playerAddress",
                  "type": "address"
                },
                {
                  "internalType": "string",
                  "name": "playerName",
                  "type": "string"
                }
              ],
              "internalType": "struct TicTacToe.Player",
              "name": "winnerPlayer",
              "type": "tuple"
            },
            {
              "internalType": "uint256[9]",
              "name": "board",
              "type": "uint256[9]"
            },
            {
              "internalType": "uint256",
              "name": "lastPlayedTime",
              "type": "uint256"
            },
            {
              "internalType": "uint8",
              "name": "movedRecorded",
              "type": "uint8"
            },
            {
              "internalType": "enum TicTacToe.GameState",
              "name": "state",
              "type": "uint8"
            }
          ],
          "indexed": false,
          "internalType": "struct TicTacToe.Room",
          "name": "room",
          "type": "tuple"
        }
      ],
      "name": "PlayedMoved",
      "type": "event"
    },
    {
      "inputs": [],
      "name": "GAME_TIMEOUT",
      "outputs": [
        {
          "internalType": "uint256",
          "name": "",
          "type": "uint256"
        }
      ],
      "stateMutability": "view",
      "type": "function"
    },
    {
      "inputs": [],
      "name": "STAKE",
      "outputs": [
        {
          "internalType": "uint256",
          "name": "",
          "type": "uint256"
        }
      ],
      "stateMutability": "view",
      "type": "function"
    },
    {
      "inputs": [],
      "name": "contractBalance",
      "outputs": [
        {
          "internalType": "uint256",
          "name": "",
          "type": "uint256"
        }
      ],
      "stateMutability": "view",
      "type": "function"
    },
    {
      "inputs": [
        {
          "internalType": "uint256",
          "name": "gameId",
          "type": "uint256"
        }
      ],
      "name": "getBoardForRoom",
      "outputs": [
        {
          "internalType": "uint256[9]",
          "name": "",
          "type": "uint256[9]"
        }
      ],
      "stateMutability": "view",
      "type": "function"
    },
    {
      "inputs": [
        {
          "internalType": "uint256",
          "name": "gameId",
          "type": "uint256"
        }
      ],
      "name": "isGameRunning",
      "outputs": [
        {
          "internalType": "bool",
          "name": "",
          "type": "bool"
        }
      ],
      "stateMutability": "view",
      "type": "function"
    },
    {
      "inputs": [
        {
          "components": [
            {
              "internalType": "address payable",
              "name": "playerAddress",
              "type": "address"
            },
            {
              "internalType": "string",
              "name": "playerName",
              "type": "string"
            }
          ],
          "internalType": "struct TicTacToe.Player",
          "name": "player",
          "type": "tuple"
        }
      ],
      "name": "joinRoom",
      "outputs": [],
      "stateMutability": "nonpayable",
      "type": "function"
    },
    {
      "inputs": [
        {
          "internalType": "uint256",
          "name": "gameId",
          "type": "uint256"
        },
        {
          "internalType": "uint8",
          "name": "boardIndex",
          "type": "uint8"
        }
      ],
      "name": "move",
      "outputs": [],
      "stateMutability": "nonpayable",
      "type": "function"
    },
    {
      "inputs": [
        {
          "internalType": "uint256",
          "name": "gameId",
          "type": "uint256"
        }
      ],
      "name": "updateRoomIfExpired",
      "outputs": [
        {
          "internalType": "enum TicTacToe.GameState",
          "name": "",
          "type": "uint8"
        }
      ],
      "stateMutability": "nonpayable",
      "type": "function"
    }
  ],
  "bytecode": "0x6080604052730498b7c793d7432cd9db27fb02fc9cfdbafa1fd36000806101000a81548173ffffffffffffffffffffffffffffffffffffffff021916908373ffffffffffffffffffffffffffffffffffffffff16021790555073a72d8d4c4611c702de430124a240e54fc78fa905600160006101000a81548173ffffffffffffffffffffffffffffffffffffffff021916908373ffffffffffffffffffffffffffffffffffffffff1602179055506040518061010001604052806040518060600160405280600060ff168152602001600160ff168152602001600260ff1681525081526020016040518060600160405280600360ff168152602001600460ff168152602001600560ff1681525081526020016040518060600160405280600660ff168152602001600760ff168152602001600860ff1681525081526020016040518060600160405280600060ff168152602001600460ff168152602001600860ff1681525081526020016040518060600160405280600260ff168152602001600460ff168152602001600660ff1681525081526020016040518060600160405280600060ff168152602001600360ff168152602001600660ff1681525081526020016040518060600160405280600160ff168152602001600460ff168152602001600760ff1681525081526020016040518060600160405280600260ff168152602001600560ff168152602001600860ff168152508152506002906008620002299291906200025e565b506000600b556000600c60006101000a81548160ff0219169083151502179055503480156200025757600080fd5b50620003a2565b8260088101928215620002a0579160200282015b828111156200029f578251829060036200028e929190620002b3565b509160200191906001019062000272565b5b509050620002af919062000354565b5090565b826003601f01602090048101928215620003415791602002820160005b838211156200031057835183826101000a81548160ff021916908360ff1602179055509260200192600101602081600001049283019260010302620002d0565b80156200033f5782816101000a81549060ff021916905560010160208160000104928301926001030262000310565b505b5090506200035091906200037c565b5090565b5b808211156200037857600081816200036e91906200039b565b5060010162000355565b5090565b5b80821115620003975760008160009055506001016200037d565b5090565b5060009055565b613e9e80620003b26000396000f3fe608060405234801561001057600080fd5b50600436106100885760003560e01c8063440b27ac1161005b578063440b27ac146101015780637b939a1f146101315780638b7afe2e14610161578063e4ac619c1461017f57610088565b8063099420b61461008d5780630a888461146100ab578063125fdbbc146100c75780632d3e0851146100e5575b600080fd5b6100956101af565b6040516100a291906122f6565b60405180910390f35b6100c560048036038101906100c09190612349565b6101b5565b005b6100cf61053e565b6040516100dc91906122f6565b60405180910390f35b6100ff60048036038101906100fa91906123f7565b610543565b005b61011b60048036038101906101169190612437565b610e80565b604051610128919061247f565b60405180910390f35b61014b60048036038101906101469190612437565b610ead565b6040516101589190612545565b60405180910390f35b610169610fcd565b60405161017691906122f6565b60405180910390f35b61019960048036038101906101949190612437565b61106f565b6040516101a691906125d8565b60405180910390f35b61012c81565b6101d28160000160208101906101cb9190612651565b6064611153565b600c60009054906101000a900460ff161561041e5780600a6000600b5481526020019081526020016000206000016001600281106102135761021261267e565b5b6002020181816102239190612b57565b9050506001600a6000600b54815260200190815260200160002060050160006101000a81548160ff0219169083151502179055506001600a6000600b54815260200190815260200160002060120160016101000a81548160ff0219169083600381111561029357610292612561565b5b021790555042600a6000600b548152602001908152602001600020601101819055506000600c60006101000a81548160ff0219169083151502179055506102d86112d6565b600b547f13e9a86b2c91defa4e9dedde156974e3d4a6781c6b4387f4fd1eeec183b7ad0e600a6000600b54815260200190815260200160002060405161031e9190612fa8565b60405180910390a2610419604051806080016040528060458152602001613d4a60459139600a6000600b548152602001908152602001600020600001600a6000600b54815260200190815260200160002060040154600281106103845761038361267e565b5b6002020160010180546103969061285e565b80601f01602080910402602001604051908101604052809291908181526020018280546103c29061285e565b801561040f5780601f106103e45761010080835404028352916020019161040f565b820191906000526020600020905b8154815290600101906020018083116103f257829003601f168201915b5050505050611330565b61053b565b80600a6000600b6000815461043290612ff9565b919050819055815260200190815260200160002060000160006002811061045c5761045b61267e565b5b60020201818161046c9190612b57565b9050506001600c60006101000a81548160ff0219169083151502179055506104ab604051806060016040528060308152602001613e11603091396113cc565b6000600a6000600b54815260200190815260200160002060120160016101000a81548160ff021916908360038111156104e7576104e6612561565b5b0217905550600b547f1b87306467904d6cd2ca6d383fee89dc7e4124fc61149c8a946271e661734f23600a6000600b5481526020019081526020016000206040516105329190612fa8565b60405180910390a25b50565b606481565b81600b541015610588576040517f08c379a000000000000000000000000000000000000000000000000000000000815260040161057f9061309e565b60405180910390fd5b60088160ff1611156105cf576040517f08c379a00000000000000000000000000000000000000000000000000000000081526004016105c690613130565b60405180910390fd5b600a60008381526020019081526020016000206000016000600281106105f8576105f761267e565b5b6002020160000160009054906101000a900473ffffffffffffffffffffffffffffffffffffffff1673ffffffffffffffffffffffffffffffffffffffff163373ffffffffffffffffffffffffffffffffffffffff1614806106d45750600a600083815260200190815260200160002060000160016002811061067d5761067c61267e565b5b6002020160000160009054906101000a900473ffffffffffffffffffffffffffffffffffffffff1673ffffffffffffffffffffffffffffffffffffffff163373ffffffffffffffffffffffffffffffffffffffff16145b610713576040517f08c379a000000000000000000000000000000000000000000000000000000000815260040161070a9061319c565b60405180910390fd5b600a600083815260200190815260200160002060050160009054906101000a900460ff16610776576040517f08c379a000000000000000000000000000000000000000000000000000000000815260040161076d90613208565b60405180910390fd5b6000600a60008481526020019081526020016000206008018260ff16600981106107a3576107a261267e565b5b0154146107e5576040517f08c379a00000000000000000000000000000000000000000000000000000000081526004016107dc9061329a565b60405180910390fd5b600a6000838152602001908152602001600020600001600a600084815260200190815260200160002060040154600281106108235761082261267e565b5b6002020160000160009054906101000a900473ffffffffffffffffffffffffffffffffffffffff1673ffffffffffffffffffffffffffffffffffffffff163373ffffffffffffffffffffffffffffffffffffffff16146108b8576040517f08c379a00000000000000000000000000000000000000000000000000000000081526004016108af90613306565b60405180910390fd5b61012c600a6000848152602001908152602001600020601101546108dc9190613326565b421115610a18576109d2604051806080016040528060478152602001613cae60479139600a6000858152602001908152602001600020600001600a6000868152602001908152602001600020600401546002811061093d5761093c61267e565b5b60020201600101805461094f9061285e565b80601f016020809104026020016040519081016040528092919081815260200182805461097b9061285e565b80156109c85780601f1061099d576101008083540402835291602001916109c8565b820191906000526020600020905b8154815290600101906020018083116109ab57829003601f168201915b5050505050611330565b610a0a8260026001600a6000878152602001908152602001600020600401546109fb9190613326565b610a059190613389565b611465565b610a13826116b7565b610e7c565b60006001600a600085815260200190815260200160002060040154610a3d9190613326565b905080600a60008581526020019081526020016000206008018360ff1660098110610a6b57610a6a61267e565b5b0181905550600a6000848152602001908152602001600020601201600081819054906101000a900460ff1680929190610aa3906133ba565b91906101000a81548160ff021916908360ff16021790555050610b1781600a6000868152602001908152602001600020600801600980602002604051908101604052809291908260098015610b0d576020028201915b815481526020019060010190808311610af9575b5050505050611992565b15610b4157610b3c83600a600086815260200190815260200160002060040154611465565b610e27565b6009600a600085815260200190815260200160002060120160009054906101000a900460ff1660ff1603610de357610b906040518060800160405280605e8152602001613d8f605e91396113cc565b6000600a600085815260200190815260200160002060050160006101000a81548160ff0219169083151502179055506003600a600085815260200190815260200160002060120160016101000a81548160ff02191690836003811115610bf957610bf8612561565b5b021790555060008054906101000a900473ffffffffffffffffffffffffffffffffffffffff1673ffffffffffffffffffffffffffffffffffffffff1663a9059cbb600a6000868152602001908152602001600020600001600060028110610c6357610c6261267e565b5b6002020160000160009054906101000a900473ffffffffffffffffffffffffffffffffffffffff1660646040518363ffffffff1660e01b8152600401610caa929190613416565b6020604051808303816000875af1158015610cc9573d6000803e3d6000fd5b505050506040513d601f19601f82011682018060405250810190610ced919061346b565b5060008054906101000a900473ffffffffffffffffffffffffffffffffffffffff1673ffffffffffffffffffffffffffffffffffffffff1663a9059cbb600a6000868152602001908152602001600020600001600160028110610d5357610d5261267e565b5b6002020160000160009054906101000a900473ffffffffffffffffffffffffffffffffffffffff1660646040518363ffffffff1660e01b8152600401610d9a929190613416565b6020604051808303816000875af1158015610db9573d6000803e3d6000fd5b505050506040513d601f19601f82011682018060405250810190610ddd919061346b565b50610e26565b600281610df09190613389565b600a60008581526020019081526020016000206004018190555042600a6000858152602001908152602001600020601101819055505b5b827f8a1ee5a5b0c34938fe56585b13c19dff9025cc9250ff659ca61ddfc2be45eb84600a6000868152602001908152602001600020604051610e699190612fa8565b60405180910390a2610e7a836116b7565b505b5050565b6000600a600083815260200190815260200160002060050160009054906101000a900460ff169050919050565b610eb56122ba565b600073ffffffffffffffffffffffffffffffffffffffff16600a6000848152602001908152602001600020600001600060028110610ef657610ef561267e565b5b6002020160000160009054906101000a900473ffffffffffffffffffffffffffffffffffffffff1673ffffffffffffffffffffffffffffffffffffffff1603610f74576040517f08c379a0000000000000000000000000000000000000000000000000000000008152600401610f6b906134e4565b60405180910390fd5b600a6000838152602001908152602001600020600801600980602002604051908101604052809291908260098015610fc1576020028201915b815481526020019060010190808311610fad575b50505050509050919050565b60008060009054906101000a900473ffffffffffffffffffffffffffffffffffffffff1673ffffffffffffffffffffffffffffffffffffffff166370a08231306040518263ffffffff1660e01b81526004016110299190613525565b602060405180830381865afa158015611046573d6000803e3d6000fd5b505050506040513d601f19601f8201168201806040525081019061106a9190613555565b905090565b600061012c600a6000848152602001908152602001600020601101546110959190613326565b421180156110ea5750600160038111156110b2576110b1612561565b5b600a600084815260200190815260200160002060120160019054906101000a900460ff1660038111156110e8576110e7612561565b5b145b15611128576111278260026001600a6000878152602001908152602001600020600401546111189190613326565b6111229190613389565b611465565b5b600a600083815260200190815260200160002060120160019054906101000a900460ff169050919050565b8060008054906101000a900473ffffffffffffffffffffffffffffffffffffffff1673ffffffffffffffffffffffffffffffffffffffff1663dd62ed3e84306040518363ffffffff1660e01b81526004016111af929190613582565b602060405180830381865afa1580156111cc573d6000803e3d6000fd5b505050506040513d601f19601f820116820180604052508101906111f09190613555565b1015611231576040517f08c379a000000000000000000000000000000000000000000000000000000000815260040161122890613669565b60405180910390fd5b60008054906101000a900473ffffffffffffffffffffffffffffffffffffffff1673ffffffffffffffffffffffffffffffffffffffff166323b872dd8330846040518463ffffffff1660e01b815260040161128e93929190613689565b6020604051808303816000875af11580156112ad573d6000803e3d6000fd5b505050506040513d601f19601f820116820180604052508101906112d1919061346b565b505050565b60024233600b546040516020016112ef93929190613729565b6040516020818303038152906040528051906020012060001c6113129190613389565b600a6000600b54815260200190815260200160002060040181905550565b6113c882826040516024016113469291906137e5565b6040516020818303038152906040527f4b5c4277000000000000000000000000000000000000000000000000000000007bffffffffffffffffffffffffffffffffffffffffffffffffffffffff19166020820180517bffffffffffffffffffffffffffffffffffffffffffffffffffffffff8381831617835250505050611b03565b5050565b611462816040516024016113e0919061381c565b6040516020818303038152906040527f41304fac000000000000000000000000000000000000000000000000000000007bffffffffffffffffffffffffffffffffffffffffffffffffffffffff19166020820180517bffffffffffffffffffffffffffffffffffffffffffffffffffffffff8381831617835250505050611b03565b50565b6000600a600084815260200190815260200160002060050160006101000a81548160ff021916908315150217905550600a600083815260200190815260200160002060000181600281106114bc576114bb61267e565b5b60020201600a60008481526020019081526020016000206006016000820160009054906101000a900473ffffffffffffffffffffffffffffffffffffffff168160000160006101000a81548173ffffffffffffffffffffffffffffffffffffffff021916908373ffffffffffffffffffffffffffffffffffffffff160217905550600182018160010190816115519190613854565b509050506002600a600084815260200190815260200160002060120160016101000a81548160ff0219169083600381111561158f5761158e612561565b5b021790555061159d82611b2c565b6115a682611dd4565b817f01a43d39372b50813cdabbc04ebdd28227552f4913ef9b0283bb56bfa516f8a7600a60008581526020019081526020016000206040516115e89190612fa8565b60405180910390a26116b3604051806060016040528060288152602001613e4160289139600a600085815260200190815260200160002060060160010180546116309061285e565b80601f016020809104026020016040519081016040528092919081815260200182805461165c9061285e565b80156116a95780601f1061167e576101008083540402835291602001916116a9565b820191906000526020600020905b81548152906001019060200180831161168c57829003601f168201915b5050505050611330565b5050565b6116d96040518060600160405280602e8152602001613d1c602e913982612013565b6000600a6000838152602001908152602001600020600801600980602002604051908101604052809291908260098015611728576020028201915b815481526020019060010190808311611714575b505050505090506117d06040518060400160405280600c81526020017f2573207c202573207c20257300000000000000000000000000000000000000008152506117898360006009811061177f5761177e61267e565b5b60200201516120af565b6117aa846001600981106117a05761179f61267e565b5b60200201516120af565b6117cb856002600981106117c1576117c061267e565b5b60200201516120af565b612179565b61180e6040518060400160405280600981526020017f2d2d2d2d2d2d2d2d2d00000000000000000000000000000000000000000000008152506113cc565b6118af6040518060400160405280600c81526020017f2573207c202573207c20257300000000000000000000000000000000000000008152506118688360036009811061185e5761185d61267e565b5b60200201516120af565b6118898460046009811061187f5761187e61267e565b5b60200201516120af565b6118aa856005600981106118a05761189f61267e565b5b60200201516120af565b612179565b6118ed6040518060400160405280600981526020017f2d2d2d2d2d2d2d2d2d00000000000000000000000000000000000000000000008152506113cc565b61198e6040518060400160405280600c81526020017f2573207c202573207c20257300000000000000000000000000000000000000008152506119478360066009811061193d5761193c61267e565b5b60200201516120af565b6119688460076009811061195e5761195d61267e565b5b60200201516120af565b6119898560086009811061197f5761197e61267e565b5b60200201516120af565b612179565b5050565b600080600090505b60088160ff161015611af757600060028260ff16600881106119bf576119be61267e565b5b01600380602002604051908101604052809291908260038015611a1d576020028201916000905b82829054906101000a900460ff1660ff16815260200190600101906020826000010492830192600103820291508084116119e65790505b50505050509050848482600060038110611a3a57611a3961267e565b5b602002015160ff1660098110611a5357611a5261267e565b5b6020020151148015611a965750848482600160038110611a7657611a7561267e565b5b602002015160ff1660098110611a8f57611a8e61267e565b5b6020020151145b8015611ad35750848482600260038110611ab357611ab261267e565b5b602002015160ff1660098110611acc57611acb61267e565b5b6020020151145b15611ae357600192505050611afd565b508080611aef906133ba565b91505061199a565b50600090505b92915050565b60008151905060006a636f6e736f6c652e6c6f679050602083016000808483855afa5050505050565b600073ffffffffffffffffffffffffffffffffffffffff16600a600083815260200190815260200160002060060160000160009054906101000a900473ffffffffffffffffffffffffffffffffffffffff1673ffffffffffffffffffffffffffffffffffffffff1603611bd4576040517f08c379a0000000000000000000000000000000000000000000000000000000008152600401611bcb90613988565b60405180910390fd5b60026064611be291906139a8565b60008054906101000a900473ffffffffffffffffffffffffffffffffffffffff1673ffffffffffffffffffffffffffffffffffffffff166370a08231306040518263ffffffff1660e01b8152600401611c3b9190613525565b602060405180830381865afa158015611c58573d6000803e3d6000fd5b505050506040513d601f19601f82011682018060405250810190611c7c9190613555565b1015611cbd576040517f08c379a0000000000000000000000000000000000000000000000000000000008152600401611cb490613a5c565b60405180910390fd5b60008054906101000a900473ffffffffffffffffffffffffffffffffffffffff1673ffffffffffffffffffffffffffffffffffffffff1663a9059cbb600a600084815260200190815260200160002060060160000160009054906101000a900473ffffffffffffffffffffffffffffffffffffffff1660026064611d4191906139a8565b6040518363ffffffff1660e01b8152600401611d5e929190613416565b6020604051808303816000875af1158015611d7d573d6000803e3d6000fd5b505050506040513d601f19601f82011682018060405250810190611da1919061346b565b50611dd1604051806060016040528060248152602001613ded6024913960026064611dcc91906139a8565b612013565b50565b600073ffffffffffffffffffffffffffffffffffffffff16600a600083815260200190815260200160002060060160000160009054906101000a900473ffffffffffffffffffffffffffffffffffffffff1673ffffffffffffffffffffffffffffffffffffffff1603611e7c576040517f08c379a0000000000000000000000000000000000000000000000000000000008152600401611e7390613988565b60405180910390fd5b6000600160009054906101000a900473ffffffffffffffffffffffffffffffffffffffff1673ffffffffffffffffffffffffffffffffffffffff166340d097c3600a600085815260200190815260200160002060060160000160009054906101000a900473ffffffffffffffffffffffffffffffffffffffff166040518263ffffffff1660e01b8152600401611f129190613a7c565b6020604051808303816000875af1158015611f31573d6000803e3d6000fd5b505050506040513d601f19601f82011682018060405250810190611f559190613555565b905061200f604051806060016040528060278152602001613cf560279139600160009054906101000a900473ffffffffffffffffffffffffffffffffffffffff1673ffffffffffffffffffffffffffffffffffffffff166306fdde036040518163ffffffff1660e01b8152600401600060405180830381865afa158015611fe0573d6000803e3d6000fd5b505050506040513d6000823e3d601f19601f820116820180604052508101906120099190613b8e565b8361221b565b5050565b6120ab8282604051602401612029929190613bd7565b6040516020818303038152906040527fb60e72cc000000000000000000000000000000000000000000000000000000007bffffffffffffffffffffffffffffffffffffffffffffffffffffffff19166020820180517bffffffffffffffffffffffffffffffffffffffffffffffffffffffff8381831617835250505050611b03565b5050565b6060600182036120f6576040518060400160405280600181526020017f58000000000000000000000000000000000000000000000000000000000000008152509050612174565b6002820361213b576040518060400160405280600181526020017f30000000000000000000000000000000000000000000000000000000000000008152509050612174565b6040518060400160405280600181526020017f2d0000000000000000000000000000000000000000000000000000000000000081525090505b919050565b612215848484846040516024016121939493929190613c07565b6040516020818303038152906040527fde68f20a000000000000000000000000000000000000000000000000000000007bffffffffffffffffffffffffffffffffffffffffffffffffffffffff19166020820180517bffffffffffffffffffffffffffffffffffffffffffffffffffffffff8381831617835250505050611b03565b50505050565b6122b583838360405160240161223393929190613c68565b6040516020818303038152906040527f5821efa1000000000000000000000000000000000000000000000000000000007bffffffffffffffffffffffffffffffffffffffffffffffffffffffff19166020820180517bffffffffffffffffffffffffffffffffffffffffffffffffffffffff8381831617835250505050611b03565b505050565b604051806101200160405280600990602082028036833780820191505090505090565b6000819050919050565b6122f0816122dd565b82525050565b600060208201905061230b60008301846122e7565b92915050565b6000604051905090565b600080fd5b600080fd5b600080fd5b6000604082840312156123405761233f612325565b5b81905092915050565b60006020828403121561235f5761235e61231b565b5b600082013567ffffffffffffffff81111561237d5761237c612320565b5b6123898482850161232a565b91505092915050565b61239b816122dd565b81146123a657600080fd5b50565b6000813590506123b881612392565b92915050565b600060ff82169050919050565b6123d4816123be565b81146123df57600080fd5b50565b6000813590506123f1816123cb565b92915050565b6000806040838503121561240e5761240d61231b565b5b600061241c858286016123a9565b925050602061242d858286016123e2565b9150509250929050565b60006020828403121561244d5761244c61231b565b5b600061245b848285016123a9565b91505092915050565b60008115159050919050565b61247981612464565b82525050565b60006020820190506124946000830184612470565b92915050565b600060099050919050565b600081905092915050565b6000819050919050565b6124c3816122dd565b82525050565b60006124d583836124ba565b60208301905092915050565b6000602082019050919050565b6124f78161249a565b61250181846124a5565b925061250c826124b0565b8060005b8381101561253d57815161252487826124c9565b965061252f836124e1565b925050600181019050612510565b505050505050565b60006101208201905061255b60008301846124ee565b92915050565b7f4e487b7100000000000000000000000000000000000000000000000000000000600052602160045260246000fd5b600481106125a1576125a0612561565b5b50565b60008190506125b282612590565b919050565b60006125c2826125a4565b9050919050565b6125d2816125b7565b82525050565b60006020820190506125ed60008301846125c9565b92915050565b600073ffffffffffffffffffffffffffffffffffffffff82169050919050565b600061261e826125f3565b9050919050565b61262e81612613565b811461263957600080fd5b50565b60008135905061264b81612625565b92915050565b6000602082840312156126675761266661231b565b5b60006126758482850161263c565b91505092915050565b7f4e487b7100000000000000000000000000000000000000000000000000000000600052603260045260246000fd5b600081356126ba81612625565b80915050919050565b60008160001b9050919050565b600073ffffffffffffffffffffffffffffffffffffffff6126f0846126c3565b9350801983169250808416831791505092915050565b6000819050919050565b600061272b612726612721846125f3565b612706565b6125f3565b9050919050565b600061273d82612710565b9050919050565b600061274f82612732565b9050919050565b6000819050919050565b61276982612744565b61277c61277582612756565b83546126d0565b8255505050565b600080fd5b600080fd5b600080fd5b600080833560016020038436030381126127af576127ae612783565b5b80840192508235915067ffffffffffffffff8211156127d1576127d0612788565b5b6020830192506001820236038313156127ed576127ec61278d565b5b509250929050565b600082905092915050565b7f4e487b7100000000000000000000000000000000000000000000000000000000600052604160045260246000fd5b7f4e487b7100000000000000000000000000000000000000000000000000000000600052602260045260246000fd5b6000600282049050600182168061287657607f821691505b6020821081036128895761288861282f565b5b50919050565b60008190508160005260206000209050919050565b60006020601f8301049050919050565b600082821b905092915050565b6000600883026128f17fffffffffffffffffffffffffffffffffffffffffffffffffffffffffffffffff826128b4565b6128fb86836128b4565b95508019841693508086168417925050509392505050565b600061292e612929612924846122dd565b612706565b6122dd565b9050919050565b6000819050919050565b61294883612913565b61295c61295482612935565b8484546128c1565b825550505050565b600090565b612971612964565b61297c81848461293f565b505050565b5b818110156129a057612995600082612969565b600181019050612982565b5050565b601f8211156129e5576129b68161288f565b6129bf846128a4565b810160208510156129ce578190505b6129e26129da856128a4565b830182612981565b50505b505050565b600082821c905092915050565b6000612a08600019846008026129ea565b1980831691505092915050565b6000612a2183836129f7565b9150826002028217905092915050565b612a3b83836127f5565b67ffffffffffffffff811115612a5457612a53612800565b5b612a5e825461285e565b612a698282856129a4565b6000601f831160018114612a985760008415612a86578287013590505b612a908582612a15565b865550612af8565b601f198416612aa68661288f565b60005b82811015612ace57848901358255600182019150602085019450602081019050612aa9565b86831015612aeb5784890135612ae7601f8916826129f7565b8355505b6001600288020188555050505b50505050505050565b612b0c838383612a31565b505050565b600081016000830180612b23816126ad565b9050612b2f8184612760565b5050506001810160208301612b448185612792565b612b4f818386612b01565b505050505050565b612b618282612b11565b5050565b600060029050919050565b600081905092915050565b6000819050919050565b60008160001c9050919050565b600073ffffffffffffffffffffffffffffffffffffffff82169050919050565b6000612bc5612bc083612b85565b612b92565b9050919050565b612bd581612613565b82525050565b600082825260208201905092915050565b60008154612bf98161285e565b612c038186612bdb565b94506001821660008114612c1e5760018114612c3457612c67565b60ff198316865281151560200286019350612c67565b612c3d8561288f565b60005b83811015612c5f57815481890152600182019150602081019050612c40565b808801955050505b50505092915050565b6000604083016000808401549050612c8781612bb2565b612c946000870182612bcc565b50600184018583036020870152612cab8382612bec565b925050819250505092915050565b6000612cc58383612c70565b905092915050565b6000600282019050919050565b6000612ce582612b65565b612cef8185612b70565b935083602082028501612d0185612b7b565b8060005b85811015612d3c57848403895281612d1d8582612cb9565b9450612d2883612ccd565b925060208a01995050600181019050612d05565b50829750879550505050505092915050565b6000819050919050565b6000612d6b612d6683612b85565b612d4e565b9050919050565b600060ff82169050919050565b6000612d92612d8d83612b85565b612d72565b9050919050565b612da281612464565b82525050565b600060099050919050565b600081905092915050565b6000819050919050565b6000612dd48254612d58565b9050919050565b6000600182019050919050565b612df181612da8565b612dfb8184612db3565b9250612e0682612dbe565b8060005b83811015612e3e57612e1b82612dc8565b612e2587826124c9565b9650612e3083612ddb565b925050600181019050612e0a565b505050505050565b600060ff82169050919050565b6000612e66612e6183612b85565b612e46565b9050919050565b612e76816123be565b82525050565b60008160081c9050919050565b600060ff82169050919050565b6000612ea9612ea483612e7c565b612e89565b9050919050565b612eb9816125b7565b82525050565b6000610200830160008084018583036000870152612edd8382612cda565b92505060048401549050612ef081612d58565b612efd60208701826124ba565b5060058401549050612f0e81612d7f565b612f1b6040870182612d99565b50600684018583036060870152612f328382612c70565b92505060088401612f466080870182612de8565b5060118401549050612f5781612d58565b612f656101a08701826124ba565b5060128401549050612f7681612e53565b612f846101c0870182612e6d565b50612f8e81612e96565b612f9c6101e0870182612eb0565b50819250505092915050565b60006020820190508181036000830152612fc28184612ebf565b905092915050565b7f4e487b7100000000000000000000000000000000000000000000000000000000600052601160045260246000fd5b6000613004826122dd565b91507fffffffffffffffffffffffffffffffffffffffffffffffffffffffffffffffff820361303657613035612fca565b5b600182019050919050565b600082825260208201905092915050565b7f526f6f6d20646f6573206e6f7420657869737400000000000000000000000000600082015250565b6000613088601383613041565b915061309382613052565b602082019050919050565b600060208201905081810360008301526130b78161307b565b9050919050565b7f496e76616c6964206d6f76652e20506c6561736520656e74657220696e20746860008201527f6520626f6172642e000000000000000000000000000000000000000000000000602082015250565b600061311a602883613041565b9150613125826130be565b604082019050919050565b600060208201905081810360008301526131498161310d565b9050919050565b7f556e6b6e6f776e20706c61796572000000000000000000000000000000000000600082015250565b6000613186600e83613041565b915061319182613150565b602082019050919050565b600060208201905081810360008301526131b581613179565b9050919050565b7f47616d65206973204f7665720000000000000000000000000000000000000000600082015250565b60006131f2600c83613041565b91506131fd826131bc565b602082019050919050565b60006020820190508181036000830152613221816131e5565b9050919050565b7f416e6f7468657220506c6179657220616c726561647920706c6179656420746860008201527f6973206d6f76652e2054727920616e6f74686572000000000000000000000000602082015250565b6000613284603483613041565b915061328f82613228565b604082019050919050565b600060208201905081810360008301526132b381613277565b9050919050565b7f49742773206e6f7420796f7572207475726e2e20506c65617365207761697400600082015250565b60006132f0601f83613041565b91506132fb826132ba565b602082019050919050565b6000602082019050818103600083015261331f816132e3565b9050919050565b6000613331826122dd565b915061333c836122dd565b925082820190508082111561335457613353612fca565b5b92915050565b7f4e487b7100000000000000000000000000000000000000000000000000000000600052601260045260246000fd5b6000613394826122dd565b915061339f836122dd565b9250826133af576133ae61335a565b5b828206905092915050565b60006133c5826123be565b915060ff82036133d8576133d7612fca565b5b600182019050919050565b60006133ee82612710565b9050919050565b6000613400826133e3565b9050919050565b613410816133f5565b82525050565b600060408201905061342b6000830185613407565b61343860208301846122e7565b9392505050565b61344881612464565b811461345357600080fd5b50565b6000815190506134658161343f565b92915050565b6000602082840312156134815761348061231b565b5b600061348f84828501613456565b91505092915050565b7f47616d6520646f6573206e6f7420657869737400000000000000000000000000600082015250565b60006134ce601383613041565b91506134d982613498565b602082019050919050565b600060208201905081810360008301526134fd816134c1565b9050919050565b600061350f826125f3565b9050919050565b61351f81613504565b82525050565b600060208201905061353a6000830184613516565b92915050565b60008151905061354f81612392565b92915050565b60006020828403121561356b5761356a61231b565b5b600061357984828501613540565b91505092915050565b60006040820190506135976000830185613516565b6135a46020830184613516565b9392505050565b7f506c6179657220686173206e6f7420676976656e20617574686f72697479207460008201527f6f207472616e7366657220746f6b656e2066726f6d20686973206163636f756e60208201527f742e20506c656173652061736b2068696d20746f20617070726f76652074686560408201527f207472616e736665722e00000000000000000000000000000000000000000000606082015250565b6000613653606a83613041565b915061365e826135ab565b608082019050919050565b6000602082019050818103600083015261368281613646565b9050919050565b600060608201905061369e6000830186613516565b6136ab6020830185613516565b6136b860408301846122e7565b949350505050565b6000819050919050565b6136db6136d6826122dd565b6136c0565b82525050565b60008160601b9050919050565b60006136f9826136e1565b9050919050565b600061370b826136ee565b9050919050565b61372361371e82613504565b613700565b82525050565b600061373582866136ca565b6020820191506137458285613712565b60148201915061375582846136ca565b602082019150819050949350505050565b600081519050919050565b60005b8381101561378f578082015181840152602081019050613774565b60008484015250505050565b6000601f19601f8301169050919050565b60006137b782613766565b6137c18185613041565b93506137d1818560208601613771565b6137da8161379b565b840191505092915050565b600060408201905081810360008301526137ff81856137ac565b9050818103602083015261381381846137ac565b90509392505050565b6000602082019050818103600083015261383681846137ac565b905092915050565b60008154905061384d8161285e565b9050919050565b81810361386257505061393a565b61386b8261383e565b67ffffffffffffffff81111561388457613883612800565b5b61388e825461285e565b6138998282856129a4565b6000601f8311600181146138c857600084156138b6578287015490505b6138c08582612a15565b865550613933565b601f1984166138d68761288f565b96506138e18661288f565b60005b82811015613909578489015482556001820191506001850194506020810190506138e4565b868310156139265784890154613922601f8916826129f7565b8355505b6001600288020188555050505b5050505050505b565b7f5468657265206973206e6f2077696e6e65722079657400000000000000000000600082015250565b6000613972601683613041565b915061397d8261393c565b602082019050919050565b600060208201905081810360008301526139a181613965565b9050919050565b60006139b3826122dd565b91506139be836122dd565b92508282026139cc816122dd565b915082820484148315176139e3576139e2612fca565b5b5092915050565b7f596f7520646f206e6f742068617665207375666669656e742062616c616e636560008201527f20746f2072657761726400000000000000000000000000000000000000000000602082015250565b6000613a46602a83613041565b9150613a51826139ea565b604082019050919050565b60006020820190508181036000830152613a7581613a39565b9050919050565b6000602082019050613a916000830184613407565b92915050565b600080fd5b600080fd5b613aaa8261379b565b810181811067ffffffffffffffff82111715613ac957613ac8612800565b5b80604052505050565b6000613adc612311565b9050613ae88282613aa1565b919050565b600067ffffffffffffffff821115613b0857613b07612800565b5b613b118261379b565b9050602081019050919050565b6000613b31613b2c84613aed565b613ad2565b905082815260208101848484011115613b4d57613b4c613a9c565b5b613b58848285613771565b509392505050565b600082601f830112613b7557613b74613a97565b5b8151613b85848260208601613b1e565b91505092915050565b600060208284031215613ba457613ba361231b565b5b600082015167ffffffffffffffff811115613bc257613bc1612320565b5b613bce84828501613b60565b91505092915050565b60006040820190508181036000830152613bf181856137ac565b9050613c0060208301846122e7565b9392505050565b60006080820190508181036000830152613c2181876137ac565b90508181036020830152613c3581866137ac565b90508181036040830152613c4981856137ac565b90508181036060830152613c5d81846137ac565b905095945050505050565b60006060820190508181036000830152613c8281866137ac565b90508181036020830152613c9681856137ac565b9050613ca560408301846122e7565b94935050505056fe25732c207361646c7920796f7520686176652065786365656465642074696d6520746f207265636f72642061206d6f7665203a282e20596f75206c6f7374207468652067616d65596f752061726520726577617264656420776974682025732e20546f6b656e204944202d20257348657265206973207468652063757272656e74207374617465206f6620626f61726420666f722047616d65202573506c61796572203220616c736f20656e746572656420696e746f2067616d652c204c6574277320626567696e212120616e6420746865207475726e20697320666f72202573416c69617321212049742773206120647261772e204e6f2070726f626c656d2c2072657475726e696e6720796f75722068617264206561726e656420746f6b656e73206261636b20746f20796f752e20566973697420757320736f6f6e21596f75206172652072657761726465642077697468202573204852505020636f696e732e506c61796572203120656e746572656420696e746f2067616d652c2077616974696e6720666f7220706c617965722032436f6e67726174756c6174696f6e7320257320666f722077696e6e696e67207468652067616d652ea264697066735822122071139dd87c589e0ea9567156657e71a6b11bda3818eb0e5eecdb958b3f2bf48364736f6c63430008110033",
  "linkReferences": {},
  "deployedLinkReferences": {}
}