{
  "_format": "hh-sol-artifact-1",
  "contractName": "TicTacToe",
  "sourceName": "contracts/TicTacToe.sol",
  "abi": [
    {
      "anonymous": false,
      "inputs": [
        {
          "indexed": true,
          "internalType": "uint256",
          "name": "gameId",
          "type": "uint256"
        },
        {
          "components": [
            {
              "components": [
                {
                  "internalType": "address payable",
                  "name": "playerAddress",
                  "type": "address"
                },
                {
                  "internalType": "string",
                  "name": "playerName",
                  "type": "string"
                }
              ],
              "internalType": "struct TicTacToe.Player[2]",
              "name": "players",
              "type": "tuple[2]"
            },
            {
              "internalType": "uint256",
              "name": "activePlayer",
              "type": "uint256"
            },
            {
              "internalType": "bool",
              "name": "isRoomActive",
              "type": "bool"
            },
            {
              "components": [
                {
                  "internalType": "address payable",
                  "name": "playerAddress",
                  "type": "address"
                },
                {
                  "internalType": "string",
                  "name": "playerName",
                  "type": "string"
                }
              ],
              "internalType": "struct TicTacToe.Player",
              "name": "winnerPlayer",
              "type": "tuple"
            },
            {
              "internalType": "uint256[9]",
              "name": "board",
              "type": "uint256[9]"
            },
            {
              "internalType": "uint256",
              "name": "lastPlayedTime",
              "type": "uint256"
            },
            {
              "internalType": "uint8",
              "name": "movedRecorded",
              "type": "uint8"
            },
            {
              "internalType": "enum TicTacToe.GameState",
              "name": "state",
              "type": "uint8"
            }
          ],
          "indexed": false,
          "internalType": "struct TicTacToe.Room",
          "name": "room",
          "type": "tuple"
        }
      ],
      "name": "GameEnded",
      "type": "event"
    },
    {
      "anonymous": false,
      "inputs": [
        {
          "indexed": true,
          "internalType": "uint256",
          "name": "gameId",
          "type": "uint256"
        },
        {
          "components": [
            {
              "components": [
                {
                  "internalType": "address payable",
                  "name": "playerAddress",
                  "type": "address"
                },
                {
                  "internalType": "string",
                  "name": "playerName",
                  "type": "string"
                }
              ],
              "internalType": "struct TicTacToe.Player[2]",
              "name": "players",
              "type": "tuple[2]"
            },
            {
              "internalType": "uint256",
              "name": "activePlayer",
              "type": "uint256"
            },
            {
              "internalType": "bool",
              "name": "isRoomActive",
              "type": "bool"
            },
            {
              "components": [
                {
                  "internalType": "address payable",
                  "name": "playerAddress",
                  "type": "address"
                },
                {
                  "internalType": "string",
                  "name": "playerName",
                  "type": "string"
                }
              ],
              "internalType": "struct TicTacToe.Player",
              "name": "winnerPlayer",
              "type": "tuple"
            },
            {
              "internalType": "uint256[9]",
              "name": "board",
              "type": "uint256[9]"
            },
            {
              "internalType": "uint256",
              "name": "lastPlayedTime",
              "type": "uint256"
            },
            {
              "internalType": "uint8",
              "name": "movedRecorded",
              "type": "uint8"
            },
            {
              "internalType": "enum TicTacToe.GameState",
              "name": "state",
              "type": "uint8"
            }
          ],
          "indexed": false,
          "internalType": "struct TicTacToe.Room",
          "name": "room",
          "type": "tuple"
        }
      ],
      "name": "GameInitiated",
      "type": "event"
    },
    {
      "anonymous": false,
      "inputs": [
        {
          "indexed": true,
          "internalType": "uint256",
          "name": "gameId",
          "type": "uint256"
        },
        {
          "components": [
            {
              "components": [
                {
                  "internalType": "address payable",
                  "name": "playerAddress",
                  "type": "address"
                },
                {
                  "internalType": "string",
                  "name": "playerName",
                  "type": "string"
                }
              ],
              "internalType": "struct TicTacToe.Player[2]",
              "name": "players",
              "type": "tuple[2]"
            },
            {
              "internalType": "uint256",
              "name": "activePlayer",
              "type": "uint256"
            },
            {
              "internalType": "bool",
              "name": "isRoomActive",
              "type": "bool"
            },
            {
              "components": [
                {
                  "internalType": "address payable",
                  "name": "playerAddress",
                  "type": "address"
                },
                {
                  "internalType": "string",
                  "name": "playerName",
                  "type": "string"
                }
              ],
              "internalType": "struct TicTacToe.Player",
              "name": "winnerPlayer",
              "type": "tuple"
            },
            {
              "internalType": "uint256[9]",
              "name": "board",
              "type": "uint256[9]"
            },
            {
              "internalType": "uint256",
              "name": "lastPlayedTime",
              "type": "uint256"
            },
            {
              "internalType": "uint8",
              "name": "movedRecorded",
              "type": "uint8"
            },
            {
              "internalType": "enum TicTacToe.GameState",
              "name": "state",
              "type": "uint8"
            }
          ],
          "indexed": false,
          "internalType": "struct TicTacToe.Room",
          "name": "room",
          "type": "tuple"
        }
      ],
      "name": "GameStarted",
      "type": "event"
    },
    {
      "anonymous": false,
      "inputs": [
        {
          "indexed": true,
          "internalType": "uint256",
          "name": "gameId",
          "type": "uint256"
        },
        {
          "components": [
            {
              "components": [
                {
                  "internalType": "address payable",
                  "name": "playerAddress",
                  "type": "address"
                },
                {
                  "internalType": "string",
                  "name": "playerName",
                  "type": "string"
                }
              ],
              "internalType": "struct TicTacToe.Player[2]",
              "name": "players",
              "type": "tuple[2]"
            },
            {
              "internalType": "uint256",
              "name": "activePlayer",
              "type": "uint256"
            },
            {
              "internalType": "bool",
              "name": "isRoomActive",
              "type": "bool"
            },
            {
              "components": [
                {
                  "internalType": "address payable",
                  "name": "playerAddress",
                  "type": "address"
                },
                {
                  "internalType": "string",
                  "name": "playerName",
                  "type": "string"
                }
              ],
              "internalType": "struct TicTacToe.Player",
              "name": "winnerPlayer",
              "type": "tuple"
            },
            {
              "internalType": "uint256[9]",
              "name": "board",
              "type": "uint256[9]"
            },
            {
              "internalType": "uint256",
              "name": "lastPlayedTime",
              "type": "uint256"
            },
            {
              "internalType": "uint8",
              "name": "movedRecorded",
              "type": "uint8"
            },
            {
              "internalType": "enum TicTacToe.GameState",
              "name": "state",
              "type": "uint8"
            }
          ],
          "indexed": false,
          "internalType": "struct TicTacToe.Room",
          "name": "room",
          "type": "tuple"
        },
        {
          "indexed": false,
          "internalType": "uint256",
          "name": "moveIndex",
          "type": "uint256"
        }
      ],
      "name": "PlayerMoved",
      "type": "event"
    },
    {
      "inputs": [],
      "name": "GAME_TIMEOUT",
      "outputs": [
        {
          "internalType": "uint256",
          "name": "",
          "type": "uint256"
        }
      ],
      "stateMutability": "view",
      "type": "function"
    },
    {
      "inputs": [],
      "name": "STAKE",
      "outputs": [
        {
          "internalType": "uint256",
          "name": "",
          "type": "uint256"
        }
      ],
      "stateMutability": "view",
      "type": "function"
    },
    {
      "inputs": [],
      "name": "contractBalance",
      "outputs": [
        {
          "internalType": "uint256",
          "name": "",
          "type": "uint256"
        }
      ],
      "stateMutability": "view",
      "type": "function"
    },
    {
      "inputs": [
        {
          "internalType": "uint256",
          "name": "gameId",
          "type": "uint256"
        }
      ],
      "name": "getBoardForRoom",
      "outputs": [
        {
          "internalType": "uint256[9]",
          "name": "",
          "type": "uint256[9]"
        }
      ],
      "stateMutability": "view",
      "type": "function"
    },
    {
      "inputs": [
        {
          "internalType": "uint256",
          "name": "gameId",
          "type": "uint256"
        }
      ],
      "name": "isGameRunning",
      "outputs": [
        {
          "internalType": "bool",
          "name": "",
          "type": "bool"
        }
      ],
      "stateMutability": "view",
      "type": "function"
    },
    {
      "inputs": [
        {
          "components": [
            {
              "internalType": "address payable",
              "name": "playerAddress",
              "type": "address"
            },
            {
              "internalType": "string",
              "name": "playerName",
              "type": "string"
            }
          ],
          "internalType": "struct TicTacToe.Player",
          "name": "player",
          "type": "tuple"
        }
      ],
      "name": "joinRoom",
      "outputs": [],
      "stateMutability": "nonpayable",
      "type": "function"
    },
    {
      "inputs": [
        {
          "internalType": "uint256",
          "name": "gameId",
          "type": "uint256"
        },
        {
          "internalType": "uint8",
          "name": "boardIndex",
          "type": "uint8"
        }
      ],
      "name": "move",
      "outputs": [],
      "stateMutability": "nonpayable",
      "type": "function"
    },
    {
      "inputs": [
        {
          "internalType": "uint256",
          "name": "",
          "type": "uint256"
        }
      ],
      "name": "rooms",
      "outputs": [
        {
          "internalType": "uint256",
          "name": "activePlayer",
          "type": "uint256"
        },
        {
          "internalType": "bool",
          "name": "isRoomActive",
          "type": "bool"
        },
        {
          "components": [
            {
              "internalType": "address payable",
              "name": "playerAddress",
              "type": "address"
            },
            {
              "internalType": "string",
              "name": "playerName",
              "type": "string"
            }
          ],
          "internalType": "struct TicTacToe.Player",
          "name": "winnerPlayer",
          "type": "tuple"
        },
        {
          "internalType": "uint256",
          "name": "lastPlayedTime",
          "type": "uint256"
        },
        {
          "internalType": "uint8",
          "name": "movedRecorded",
          "type": "uint8"
        },
        {
          "internalType": "enum TicTacToe.GameState",
          "name": "state",
          "type": "uint8"
        }
      ],
      "stateMutability": "view",
      "type": "function"
    },
    {
      "inputs": [],
      "name": "totalGames",
      "outputs": [
        {
          "internalType": "uint256",
          "name": "",
          "type": "uint256"
        }
      ],
      "stateMutability": "view",
      "type": "function"
    },
    {
      "inputs": [
        {
          "internalType": "uint256",
          "name": "gameId",
          "type": "uint256"
        }
      ],
      "name": "updateRoomIfExpired",
      "outputs": [
        {
          "internalType": "enum TicTacToe.GameState",
          "name": "",
          "type": "uint8"
        }
      ],
      "stateMutability": "nonpayable",
      "type": "function"
    }
  ],
  "bytecode": "0x6080604052730498b7c793d7432cd9db27fb02fc9cfdbafa1fd36000806101000a81548173ffffffffffffffffffffffffffffffffffffffff021916908373ffffffffffffffffffffffffffffffffffffffff16021790555073a72d8d4c4611c702de430124a240e54fc78fa905600160006101000a81548173ffffffffffffffffffffffffffffffffffffffff021916908373ffffffffffffffffffffffffffffffffffffffff1602179055506040518061010001604052806040518060600160405280600060ff168152602001600160ff168152602001600260ff1681525081526020016040518060600160405280600360ff168152602001600460ff168152602001600560ff1681525081526020016040518060600160405280600660ff168152602001600760ff168152602001600860ff1681525081526020016040518060600160405280600060ff168152602001600460ff168152602001600860ff1681525081526020016040518060600160405280600260ff168152602001600460ff168152602001600660ff1681525081526020016040518060600160405280600060ff168152602001600360ff168152602001600660ff1681525081526020016040518060600160405280600160ff168152602001600460ff168152602001600760ff1681525081526020016040518060600160405280600260ff168152602001600560ff168152602001600860ff168152508152506002906008620002299291906200025e565b506000600b556000600c60006101000a81548160ff0219169083151502179055503480156200025757600080fd5b50620003a2565b8260088101928215620002a0579160200282015b828111156200029f578251829060036200028e929190620002b3565b509160200191906001019062000272565b5b509050620002af919062000354565b5090565b826003601f01602090048101928215620003415791602002820160005b838211156200031057835183826101000a81548160ff021916908360ff1602179055509260200192600101602081600001049283019260010302620002d0565b80156200033f5782816101000a81549060ff021916905560010160208160000104928301926001030262000310565b505b5090506200035091906200037c565b5090565b5b808211156200037857600081816200036e91906200039b565b5060010162000355565b5090565b5b80821115620003975760008160009055506001016200037d565b5090565b5060009055565b6141b380620003b26000396000f3fe608060405234801561001057600080fd5b506004361061009e5760003560e01c80632d3e0851116100665780632d3e08511461014e578063440b27ac1461016a5780637b939a1f1461019a5780638b7afe2e146101ca578063e4ac619c146101e85761009e565b8063099420b6146100a35780630a888461146100c1578063125fdbbc146100dd5780631bae0ac8146100fb5780632c4e591b14610130575b600080fd5b6100ab610218565b6040516100b891906124bd565b60405180910390f35b6100db60048036038101906100d69190612510565b61021d565b005b6100e56105a6565b6040516100f291906124bd565b60405180910390f35b61011560048036038101906101109190612585565b6105ab565b6040516101279695949392919061276e565b60405180910390f35b610138610700565b60405161014591906124bd565b60405180910390f35b61016860048036038101906101639190612802565b61070a565b005b610184600480360381019061017f9190612585565b611048565b6040516101919190612842565b60405180910390f35b6101b460048036038101906101af9190612585565b611075565b6040516101c19190612908565b60405180910390f35b6101d2611195565b6040516101df91906124bd565b60405180910390f35b61020260048036038101906101fd9190612585565b611237565b60405161020f9190612924565b60405180910390f35b607881565b61023a816000016020810190610233919061296b565b606461131a565b600c60009054906101000a900460ff16156104865780600a6000600b54815260200190815260200160002060000160016002811061027b5761027a612998565b5b60020201818161028b9190612e71565b9050506001600a6000600b54815260200190815260200160002060050160006101000a81548160ff0219169083151502179055506001600a6000600b54815260200190815260200160002060120160016101000a81548160ff021916908360038111156102fb576102fa6126f7565b5b021790555042600a6000600b548152602001908152602001600020601101819055506000600c60006101000a81548160ff02191690831515021790555061034061149d565b600b547f13e9a86b2c91defa4e9dedde156974e3d4a6781c6b4387f4fd1eeec183b7ad0e600a6000600b54815260200190815260200160002060405161038691906132a2565b60405180910390a261048160405180608001604052806045815260200161405f60459139600a6000600b548152602001908152602001600020600001600a6000600b54815260200190815260200160002060040154600281106103ec576103eb612998565b5b6002020160010180546103fe90612b78565b80601f016020809104026020016040519081016040528092919081815260200182805461042a90612b78565b80156104775780601f1061044c57610100808354040283529160200191610477565b820191906000526020600020905b81548152906001019060200180831161045a57829003601f168201915b50505050506114f7565b6105a3565b80600a6000600b6000815461049a906132f3565b91905081905581526020019081526020016000206000016000600281106104c4576104c3612998565b5b6002020181816104d49190612e71565b9050506001600c60006101000a81548160ff02191690831515021790555061051360405180606001604052806030815260200161412660309139611593565b6000600a6000600b54815260200190815260200160002060120160016101000a81548160ff0219169083600381111561054f5761054e6126f7565b5b0217905550600b547f1b87306467904d6cd2ca6d383fee89dc7e4124fc61149c8a946271e661734f23600a6000600b54815260200190815260200160002060405161059a91906132a2565b60405180910390a25b50565b606481565b600a6020528060005260406000206000915090508060040154908060050160009054906101000a900460ff1690806006016040518060400160405290816000820160009054906101000a900473ffffffffffffffffffffffffffffffffffffffff1673ffffffffffffffffffffffffffffffffffffffff1673ffffffffffffffffffffffffffffffffffffffff16815260200160018201805461064d90612b78565b80601f016020809104026020016040519081016040528092919081815260200182805461067990612b78565b80156106c65780601f1061069b576101008083540402835291602001916106c6565b820191906000526020600020905b8154815290600101906020018083116106a957829003601f168201915b505050505081525050908060110154908060120160009054906101000a900460ff16908060120160019054906101000a900460ff16905086565b6000600b54905090565b81600b54101561074f576040517f08c379a000000000000000000000000000000000000000000000000000000000815260040161074690613398565b60405180910390fd5b60088160ff161115610796576040517f08c379a000000000000000000000000000000000000000000000000000000000815260040161078d9061342a565b60405180910390fd5b600a60008381526020019081526020016000206000016000600281106107bf576107be612998565b5b6002020160000160009054906101000a900473ffffffffffffffffffffffffffffffffffffffff1673ffffffffffffffffffffffffffffffffffffffff163373ffffffffffffffffffffffffffffffffffffffff16148061089b5750600a600083815260200190815260200160002060000160016002811061084457610843612998565b5b6002020160000160009054906101000a900473ffffffffffffffffffffffffffffffffffffffff1673ffffffffffffffffffffffffffffffffffffffff163373ffffffffffffffffffffffffffffffffffffffff16145b6108da576040517f08c379a00000000000000000000000000000000000000000000000000000000081526004016108d190613496565b60405180910390fd5b600a600083815260200190815260200160002060050160009054906101000a900460ff1661093d576040517f08c379a000000000000000000000000000000000000000000000000000000000815260040161093490613502565b60405180910390fd5b6000600a60008481526020019081526020016000206008018260ff166009811061096a57610969612998565b5b0154146109ac576040517f08c379a00000000000000000000000000000000000000000000000000000000081526004016109a390613594565b60405180910390fd5b600a6000838152602001908152602001600020600001600a600084815260200190815260200160002060040154600281106109ea576109e9612998565b5b6002020160000160009054906101000a900473ffffffffffffffffffffffffffffffffffffffff1673ffffffffffffffffffffffffffffffffffffffff163373ffffffffffffffffffffffffffffffffffffffff1614610a7f576040517f08c379a0000000000000000000000000000000000000000000000000000000008152600401610a7690613600565b60405180910390fd5b6078600a600084815260200190815260200160002060110154610aa29190613620565b421115610bde57610b98604051806080016040528060478152602001613fc360479139600a6000858152602001908152602001600020600001600a60008681526020019081526020016000206004015460028110610b0357610b02612998565b5b600202016001018054610b1590612b78565b80601f0160208091040260200160405190810160405280929190818152602001828054610b4190612b78565b8015610b8e5780601f10610b6357610100808354040283529160200191610b8e565b820191906000526020600020905b815481529060010190602001808311610b7157829003601f168201915b50505050506114f7565b610bd08260026001600a600087815260200190815260200160002060040154610bc19190613620565b610bcb9190613683565b61162c565b610bd98261187e565b611044565b60006001600a600085815260200190815260200160002060040154610c039190613620565b905080600a60008581526020019081526020016000206008018360ff1660098110610c3157610c30612998565b5b0181905550600a6000848152602001908152602001600020601201600081819054906101000a900460ff1680929190610c69906136b4565b91906101000a81548160ff021916908360ff16021790555050610cdd81600a6000868152602001908152602001600020600801600980602002604051908101604052809291908260098015610cd3576020028201915b815481526020019060010190808311610cbf575b5050505050611b59565b15610d0757610d0283600a60008681526020019081526020016000206004015461162c565b610fed565b6009600a600085815260200190815260200160002060120160009054906101000a900460ff1660ff1603610fa957610d566040518060800160405280605e81526020016140a4605e9139611593565b6000600a600085815260200190815260200160002060050160006101000a81548160ff0219169083151502179055506003600a600085815260200190815260200160002060120160016101000a81548160ff02191690836003811115610dbf57610dbe6126f7565b5b021790555060008054906101000a900473ffffffffffffffffffffffffffffffffffffffff1673ffffffffffffffffffffffffffffffffffffffff1663a9059cbb600a6000868152602001908152602001600020600001600060028110610e2957610e28612998565b5b6002020160000160009054906101000a900473ffffffffffffffffffffffffffffffffffffffff1660646040518363ffffffff1660e01b8152600401610e70929190613710565b6020604051808303816000875af1158015610e8f573d6000803e3d6000fd5b505050506040513d601f19601f82011682018060405250810190610eb39190613765565b5060008054906101000a900473ffffffffffffffffffffffffffffffffffffffff1673ffffffffffffffffffffffffffffffffffffffff1663a9059cbb600a6000868152602001908152602001600020600001600160028110610f1957610f18612998565b5b6002020160000160009054906101000a900473ffffffffffffffffffffffffffffffffffffffff1660646040518363ffffffff1660e01b8152600401610f60929190613710565b6020604051808303816000875af1158015610f7f573d6000803e3d6000fd5b505050506040513d601f19601f82011682018060405250810190610fa39190613765565b50610fec565b600281610fb69190613683565b600a60008581526020019081526020016000206004018190555042600a6000858152602001908152602001600020601101819055505b5b827f14f7431384076ff6174f1c1165aac00285467615174f513d2119a7f6f08cf689600a6000868152602001908152602001600020846040516110319291906137c3565b60405180910390a26110428361187e565b505b5050565b6000600a600083815260200190815260200160002060050160009054906101000a900460ff169050919050565b61107d612481565b600073ffffffffffffffffffffffffffffffffffffffff16600a60008481526020019081526020016000206000016000600281106110be576110bd612998565b5b6002020160000160009054906101000a900473ffffffffffffffffffffffffffffffffffffffff1673ffffffffffffffffffffffffffffffffffffffff160361113c576040517f08c379a00000000000000000000000000000000000000000000000000000000081526004016111339061383f565b60405180910390fd5b600a6000838152602001908152602001600020600801600980602002604051908101604052809291908260098015611189576020028201915b815481526020019060010190808311611175575b50505050509050919050565b60008060009054906101000a900473ffffffffffffffffffffffffffffffffffffffff1673ffffffffffffffffffffffffffffffffffffffff166370a08231306040518263ffffffff1660e01b81526004016111f19190613880565b602060405180830381865afa15801561120e573d6000803e3d6000fd5b505050506040513d601f19601f8201168201806040525081019061123291906138b0565b905090565b60006078600a60008481526020019081526020016000206011015461125c9190613620565b421180156112b1575060016003811115611279576112786126f7565b5b600a600084815260200190815260200160002060120160019054906101000a900460ff1660038111156112af576112ae6126f7565b5b145b156112ef576112ee8260026001600a6000878152602001908152602001600020600401546112df9190613620565b6112e99190613683565b61162c565b5b600a600083815260200190815260200160002060120160019054906101000a900460ff169050919050565b8060008054906101000a900473ffffffffffffffffffffffffffffffffffffffff1673ffffffffffffffffffffffffffffffffffffffff1663dd62ed3e84306040518363ffffffff1660e01b81526004016113769291906138dd565b602060405180830381865afa158015611393573d6000803e3d6000fd5b505050506040513d601f19601f820116820180604052508101906113b791906138b0565b10156113f8576040517f08c379a00000000000000000000000000000000000000000000000000000000081526004016113ef906139c4565b60405180910390fd5b60008054906101000a900473ffffffffffffffffffffffffffffffffffffffff1673ffffffffffffffffffffffffffffffffffffffff166323b872dd8330846040518463ffffffff1660e01b8152600401611455939291906139e4565b6020604051808303816000875af1158015611474573d6000803e3d6000fd5b505050506040513d601f19601f820116820180604052508101906114989190613765565b505050565b60024233600b546040516020016114b693929190613a84565b6040516020818303038152906040528051906020012060001c6114d99190613683565b600a6000600b54815260200190815260200160002060040181905550565b61158f828260405160240161150d929190613afa565b6040516020818303038152906040527f4b5c4277000000000000000000000000000000000000000000000000000000007bffffffffffffffffffffffffffffffffffffffffffffffffffffffff19166020820180517bffffffffffffffffffffffffffffffffffffffffffffffffffffffff8381831617835250505050611cca565b5050565b611629816040516024016115a79190613b31565b6040516020818303038152906040527f41304fac000000000000000000000000000000000000000000000000000000007bffffffffffffffffffffffffffffffffffffffffffffffffffffffff19166020820180517bffffffffffffffffffffffffffffffffffffffffffffffffffffffff8381831617835250505050611cca565b50565b6000600a600084815260200190815260200160002060050160006101000a81548160ff021916908315150217905550600a6000838152602001908152602001600020600001816002811061168357611682612998565b5b60020201600a60008481526020019081526020016000206006016000820160009054906101000a900473ffffffffffffffffffffffffffffffffffffffff168160000160006101000a81548173ffffffffffffffffffffffffffffffffffffffff021916908373ffffffffffffffffffffffffffffffffffffffff160217905550600182018160010190816117189190613b69565b509050506002600a600084815260200190815260200160002060120160016101000a81548160ff02191690836003811115611756576117556126f7565b5b021790555061176482611cf3565b61176d82611f9b565b817f01a43d39372b50813cdabbc04ebdd28227552f4913ef9b0283bb56bfa516f8a7600a60008581526020019081526020016000206040516117af91906132a2565b60405180910390a261187a60405180606001604052806028815260200161415660289139600a600085815260200190815260200160002060060160010180546117f790612b78565b80601f016020809104026020016040519081016040528092919081815260200182805461182390612b78565b80156118705780601f1061184557610100808354040283529160200191611870565b820191906000526020600020905b81548152906001019060200180831161185357829003601f168201915b50505050506114f7565b5050565b6118a06040518060600160405280602e8152602001614031602e9139826121da565b6000600a60008381526020019081526020016000206008016009806020026040519081016040528092919082600980156118ef576020028201915b8154815260200190600101908083116118db575b505050505090506119976040518060400160405280600c81526020017f2573207c202573207c20257300000000000000000000000000000000000000008152506119508360006009811061194657611945612998565b5b6020020151612276565b6119718460016009811061196757611966612998565b5b6020020151612276565b6119928560026009811061198857611987612998565b5b6020020151612276565b612340565b6119d56040518060400160405280600981526020017f2d2d2d2d2d2d2d2d2d0000000000000000000000000000000000000000000000815250611593565b611a766040518060400160405280600c81526020017f2573207c202573207c2025730000000000000000000000000000000000000000815250611a2f83600360098110611a2557611a24612998565b5b6020020151612276565b611a5084600460098110611a4657611a45612998565b5b6020020151612276565b611a7185600560098110611a6757611a66612998565b5b6020020151612276565b612340565b611ab46040518060400160405280600981526020017f2d2d2d2d2d2d2d2d2d0000000000000000000000000000000000000000000000815250611593565b611b556040518060400160405280600c81526020017f2573207c202573207c2025730000000000000000000000000000000000000000815250611b0e83600660098110611b0457611b03612998565b5b6020020151612276565b611b2f84600760098110611b2557611b24612998565b5b6020020151612276565b611b5085600860098110611b4657611b45612998565b5b6020020151612276565b612340565b5050565b600080600090505b60088160ff161015611cbe57600060028260ff1660088110611b8657611b85612998565b5b01600380602002604051908101604052809291908260038015611be4576020028201916000905b82829054906101000a900460ff1660ff1681526020019060010190602082600001049283019260010382029150808411611bad5790505b50505050509050848482600060038110611c0157611c00612998565b5b602002015160ff1660098110611c1a57611c19612998565b5b6020020151148015611c5d5750848482600160038110611c3d57611c3c612998565b5b602002015160ff1660098110611c5657611c55612998565b5b6020020151145b8015611c9a5750848482600260038110611c7a57611c79612998565b5b602002015160ff1660098110611c9357611c92612998565b5b6020020151145b15611caa57600192505050611cc4565b508080611cb6906136b4565b915050611b61565b50600090505b92915050565b60008151905060006a636f6e736f6c652e6c6f679050602083016000808483855afa5050505050565b600073ffffffffffffffffffffffffffffffffffffffff16600a600083815260200190815260200160002060060160000160009054906101000a900473ffffffffffffffffffffffffffffffffffffffff1673ffffffffffffffffffffffffffffffffffffffff1603611d9b576040517f08c379a0000000000000000000000000000000000000000000000000000000008152600401611d9290613c9d565b60405180910390fd5b60026064611da99190613cbd565b60008054906101000a900473ffffffffffffffffffffffffffffffffffffffff1673ffffffffffffffffffffffffffffffffffffffff166370a08231306040518263ffffffff1660e01b8152600401611e029190613880565b602060405180830381865afa158015611e1f573d6000803e3d6000fd5b505050506040513d601f19601f82011682018060405250810190611e4391906138b0565b1015611e84576040517f08c379a0000000000000000000000000000000000000000000000000000000008152600401611e7b90613d71565b60405180910390fd5b60008054906101000a900473ffffffffffffffffffffffffffffffffffffffff1673ffffffffffffffffffffffffffffffffffffffff1663a9059cbb600a600084815260200190815260200160002060060160000160009054906101000a900473ffffffffffffffffffffffffffffffffffffffff1660026064611f089190613cbd565b6040518363ffffffff1660e01b8152600401611f25929190613710565b6020604051808303816000875af1158015611f44573d6000803e3d6000fd5b505050506040513d601f19601f82011682018060405250810190611f689190613765565b50611f986040518060600160405280602481526020016141026024913960026064611f939190613cbd565b6121da565b50565b600073ffffffffffffffffffffffffffffffffffffffff16600a600083815260200190815260200160002060060160000160009054906101000a900473ffffffffffffffffffffffffffffffffffffffff1673ffffffffffffffffffffffffffffffffffffffff1603612043576040517f08c379a000000000000000000000000000000000000000000000000000000000815260040161203a90613c9d565b60405180910390fd5b6000600160009054906101000a900473ffffffffffffffffffffffffffffffffffffffff1673ffffffffffffffffffffffffffffffffffffffff166340d097c3600a600085815260200190815260200160002060060160000160009054906101000a900473ffffffffffffffffffffffffffffffffffffffff166040518263ffffffff1660e01b81526004016120d99190613d91565b6020604051808303816000875af11580156120f8573d6000803e3d6000fd5b505050506040513d601f19601f8201168201806040525081019061211c91906138b0565b90506121d660405180606001604052806027815260200161400a60279139600160009054906101000a900473ffffffffffffffffffffffffffffffffffffffff1673ffffffffffffffffffffffffffffffffffffffff166306fdde036040518163ffffffff1660e01b8152600401600060405180830381865afa1580156121a7573d6000803e3d6000fd5b505050506040513d6000823e3d601f19601f820116820180604052508101906121d09190613ea3565b836123e2565b5050565b61227282826040516024016121f0929190613eec565b6040516020818303038152906040527fb60e72cc000000000000000000000000000000000000000000000000000000007bffffffffffffffffffffffffffffffffffffffffffffffffffffffff19166020820180517bffffffffffffffffffffffffffffffffffffffffffffffffffffffff8381831617835250505050611cca565b5050565b6060600182036122bd576040518060400160405280600181526020017f5800000000000000000000000000000000000000000000000000000000000000815250905061233b565b60028203612302576040518060400160405280600181526020017f3000000000000000000000000000000000000000000000000000000000000000815250905061233b565b6040518060400160405280600181526020017f2d0000000000000000000000000000000000000000000000000000000000000081525090505b919050565b6123dc8484848460405160240161235a9493929190613f1c565b6040516020818303038152906040527fde68f20a000000000000000000000000000000000000000000000000000000007bffffffffffffffffffffffffffffffffffffffffffffffffffffffff19166020820180517bffffffffffffffffffffffffffffffffffffffffffffffffffffffff8381831617835250505050611cca565b50505050565b61247c8383836040516024016123fa93929190613f7d565b6040516020818303038152906040527f5821efa1000000000000000000000000000000000000000000000000000000007bffffffffffffffffffffffffffffffffffffffffffffffffffffffff19166020820180517bffffffffffffffffffffffffffffffffffffffffffffffffffffffff8381831617835250505050611cca565b505050565b604051806101200160405280600990602082028036833780820191505090505090565b6000819050919050565b6124b7816124a4565b82525050565b60006020820190506124d260008301846124ae565b92915050565b6000604051905090565b600080fd5b600080fd5b600080fd5b600060408284031215612507576125066124ec565b5b81905092915050565b600060208284031215612526576125256124e2565b5b600082013567ffffffffffffffff811115612544576125436124e7565b5b612550848285016124f1565b91505092915050565b612562816124a4565b811461256d57600080fd5b50565b60008135905061257f81612559565b92915050565b60006020828403121561259b5761259a6124e2565b5b60006125a984828501612570565b91505092915050565b60008115159050919050565b6125c7816125b2565b82525050565b600073ffffffffffffffffffffffffffffffffffffffff82169050919050565b60006125f8826125cd565b9050919050565b612608816125ed565b82525050565b600081519050919050565b600082825260208201905092915050565b60005b8381101561264857808201518184015260208101905061262d565b60008484015250505050565b6000601f19601f8301169050919050565b60006126708261260e565b61267a8185612619565b935061268a81856020860161262a565b61269381612654565b840191505092915050565b60006040830160008301516126b660008601826125ff565b50602083015184820360208601526126ce8282612665565b9150508091505092915050565b600060ff82169050919050565b6126f1816126db565b82525050565b7f4e487b7100000000000000000000000000000000000000000000000000000000600052602160045260246000fd5b60048110612737576127366126f7565b5b50565b600081905061274882612726565b919050565b60006127588261273a565b9050919050565b6127688161274d565b82525050565b600060c08201905061278360008301896124ae565b61279060208301886125be565b81810360408301526127a2818761269e565b90506127b160608301866124ae565b6127be60808301856126e8565b6127cb60a083018461275f565b979650505050505050565b6127df816126db565b81146127ea57600080fd5b50565b6000813590506127fc816127d6565b92915050565b60008060408385031215612819576128186124e2565b5b600061282785828601612570565b9250506020612838858286016127ed565b9150509250929050565b600060208201905061285760008301846125be565b92915050565b600060099050919050565b600081905092915050565b6000819050919050565b612886816124a4565b82525050565b6000612898838361287d565b60208301905092915050565b6000602082019050919050565b6128ba8161285d565b6128c48184612868565b92506128cf82612873565b8060005b838110156129005781516128e7878261288c565b96506128f2836128a4565b9250506001810190506128d3565b505050505050565b60006101208201905061291e60008301846128b1565b92915050565b6000602082019050612939600083018461275f565b92915050565b612948816125ed565b811461295357600080fd5b50565b6000813590506129658161293f565b92915050565b600060208284031215612981576129806124e2565b5b600061298f84828501612956565b91505092915050565b7f4e487b7100000000000000000000000000000000000000000000000000000000600052603260045260246000fd5b600081356129d48161293f565b80915050919050565b60008160001b9050919050565b600073ffffffffffffffffffffffffffffffffffffffff612a0a846129dd565b9350801983169250808416831791505092915050565b6000819050919050565b6000612a45612a40612a3b846125cd565b612a20565b6125cd565b9050919050565b6000612a5782612a2a565b9050919050565b6000612a6982612a4c565b9050919050565b6000819050919050565b612a8382612a5e565b612a96612a8f82612a70565b83546129ea565b8255505050565b600080fd5b600080fd5b600080fd5b60008083356001602003843603038112612ac957612ac8612a9d565b5b80840192508235915067ffffffffffffffff821115612aeb57612aea612aa2565b5b602083019250600182023603831315612b0757612b06612aa7565b5b509250929050565b600082905092915050565b7f4e487b7100000000000000000000000000000000000000000000000000000000600052604160045260246000fd5b7f4e487b7100000000000000000000000000000000000000000000000000000000600052602260045260246000fd5b60006002820490506001821680612b9057607f821691505b602082108103612ba357612ba2612b49565b5b50919050565b60008190508160005260206000209050919050565b60006020601f8301049050919050565b600082821b905092915050565b600060088302612c0b7fffffffffffffffffffffffffffffffffffffffffffffffffffffffffffffffff82612bce565b612c158683612bce565b95508019841693508086168417925050509392505050565b6000612c48612c43612c3e846124a4565b612a20565b6124a4565b9050919050565b6000819050919050565b612c6283612c2d565b612c76612c6e82612c4f565b848454612bdb565b825550505050565b600090565b612c8b612c7e565b612c96818484612c59565b505050565b5b81811015612cba57612caf600082612c83565b600181019050612c9c565b5050565b601f821115612cff57612cd081612ba9565b612cd984612bbe565b81016020851015612ce8578190505b612cfc612cf485612bbe565b830182612c9b565b50505b505050565b600082821c905092915050565b6000612d2260001984600802612d04565b1980831691505092915050565b6000612d3b8383612d11565b9150826002028217905092915050565b612d558383612b0f565b67ffffffffffffffff811115612d6e57612d6d612b1a565b5b612d788254612b78565b612d83828285612cbe565b6000601f831160018114612db25760008415612da0578287013590505b612daa8582612d2f565b865550612e12565b601f198416612dc086612ba9565b60005b82811015612de857848901358255600182019150602085019450602081019050612dc3565b86831015612e055784890135612e01601f891682612d11565b8355505b6001600288020188555050505b50505050505050565b612e26838383612d4b565b505050565b600081016000830180612e3d816129c7565b9050612e498184612a7a565b5050506001810160208301612e5e8185612aac565b612e69818386612e1b565b505050505050565b612e7b8282612e2b565b5050565b600060029050919050565b600081905092915050565b6000819050919050565b60008160001c9050919050565b600073ffffffffffffffffffffffffffffffffffffffff82169050919050565b6000612edf612eda83612e9f565b612eac565b9050919050565b60008154612ef381612b78565b612efd8186612619565b94506001821660008114612f185760018114612f2e57612f61565b60ff198316865281151560200286019350612f61565b612f3785612ba9565b60005b83811015612f5957815481890152600182019150602081019050612f3a565b808801955050505b50505092915050565b6000604083016000808401549050612f8181612ecc565b612f8e60008701826125ff565b50600184018583036020870152612fa58382612ee6565b925050819250505092915050565b6000612fbf8383612f6a565b905092915050565b6000600282019050919050565b6000612fdf82612e7f565b612fe98185612e8a565b935083602082028501612ffb85612e95565b8060005b85811015613036578484038952816130178582612fb3565b945061302283612fc7565b925060208a01995050600181019050612fff565b50829750879550505050505092915050565b6000819050919050565b600061306561306083612e9f565b613048565b9050919050565b600060ff82169050919050565b600061308c61308783612e9f565b61306c565b9050919050565b61309c816125b2565b82525050565b600060099050919050565b600081905092915050565b6000819050919050565b60006130ce8254613052565b9050919050565b6000600182019050919050565b6130eb816130a2565b6130f581846130ad565b9250613100826130b8565b8060005b8381101561313857613115826130c2565b61311f878261288c565b965061312a836130d5565b925050600181019050613104565b505050505050565b600060ff82169050919050565b600061316061315b83612e9f565b613140565b9050919050565b613170816126db565b82525050565b60008160081c9050919050565b600060ff82169050919050565b60006131a361319e83613176565b613183565b9050919050565b6131b38161274d565b82525050565b60006102008301600080840185830360008701526131d78382612fd4565b925050600484015490506131ea81613052565b6131f7602087018261287d565b506005840154905061320881613079565b6132156040870182613093565b5060068401858303606087015261322c8382612f6a565b9250506008840161324060808701826130e2565b506011840154905061325181613052565b61325f6101a087018261287d565b50601284015490506132708161314d565b61327e6101c0870182613167565b5061328881613190565b6132966101e08701826131aa565b50819250505092915050565b600060208201905081810360008301526132bc81846131b9565b905092915050565b7f4e487b7100000000000000000000000000000000000000000000000000000000600052601160045260246000fd5b60006132fe826124a4565b91507fffffffffffffffffffffffffffffffffffffffffffffffffffffffffffffffff82036133305761332f6132c4565b5b600182019050919050565b600082825260208201905092915050565b7f526f6f6d20646f6573206e6f7420657869737400000000000000000000000000600082015250565b600061338260138361333b565b915061338d8261334c565b602082019050919050565b600060208201905081810360008301526133b181613375565b9050919050565b7f496e76616c6964206d6f76652e20506c6561736520656e74657220696e20746860008201527f6520626f6172642e000000000000000000000000000000000000000000000000602082015250565b600061341460288361333b565b915061341f826133b8565b604082019050919050565b6000602082019050818103600083015261344381613407565b9050919050565b7f556e6b6e6f776e20706c61796572000000000000000000000000000000000000600082015250565b6000613480600e8361333b565b915061348b8261344a565b602082019050919050565b600060208201905081810360008301526134af81613473565b9050919050565b7f47616d65206973204f7665720000000000000000000000000000000000000000600082015250565b60006134ec600c8361333b565b91506134f7826134b6565b602082019050919050565b6000602082019050818103600083015261351b816134df565b9050919050565b7f416e6f7468657220506c6179657220616c726561647920706c6179656420746860008201527f6973206d6f76652e2054727920616e6f74686572000000000000000000000000602082015250565b600061357e60348361333b565b915061358982613522565b604082019050919050565b600060208201905081810360008301526135ad81613571565b9050919050565b7f49742773206e6f7420796f7572207475726e2e20506c65617365207761697400600082015250565b60006135ea601f8361333b565b91506135f5826135b4565b602082019050919050565b60006020820190508181036000830152613619816135dd565b9050919050565b600061362b826124a4565b9150613636836124a4565b925082820190508082111561364e5761364d6132c4565b5b92915050565b7f4e487b7100000000000000000000000000000000000000000000000000000000600052601260045260246000fd5b600061368e826124a4565b9150613699836124a4565b9250826136a9576136a8613654565b5b828206905092915050565b60006136bf826126db565b915060ff82036136d2576136d16132c4565b5b600182019050919050565b60006136e882612a2a565b9050919050565b60006136fa826136dd565b9050919050565b61370a816136ef565b82525050565b60006040820190506137256000830185613701565b61373260208301846124ae565b9392505050565b613742816125b2565b811461374d57600080fd5b50565b60008151905061375f81613739565b92915050565b60006020828403121561377b5761377a6124e2565b5b600061378984828501613750565b91505092915050565b60006137ad6137a86137a3846126db565b612a20565b6124a4565b9050919050565b6137bd81613792565b82525050565b600060408201905081810360008301526137dd81856131b9565b90506137ec60208301846137b4565b9392505050565b7f47616d6520646f6573206e6f7420657869737400000000000000000000000000600082015250565b600061382960138361333b565b9150613834826137f3565b602082019050919050565b600060208201905081810360008301526138588161381c565b9050919050565b600061386a826125cd565b9050919050565b61387a8161385f565b82525050565b60006020820190506138956000830184613871565b92915050565b6000815190506138aa81612559565b92915050565b6000602082840312156138c6576138c56124e2565b5b60006138d48482850161389b565b91505092915050565b60006040820190506138f26000830185613871565b6138ff6020830184613871565b9392505050565b7f506c6179657220686173206e6f7420676976656e20617574686f72697479207460008201527f6f207472616e7366657220746f6b656e2066726f6d20686973206163636f756e60208201527f742e20506c656173652061736b2068696d20746f20617070726f76652074686560408201527f207472616e736665722e00000000000000000000000000000000000000000000606082015250565b60006139ae606a8361333b565b91506139b982613906565b608082019050919050565b600060208201905081810360008301526139dd816139a1565b9050919050565b60006060820190506139f96000830186613871565b613a066020830185613871565b613a1360408301846124ae565b949350505050565b6000819050919050565b613a36613a31826124a4565b613a1b565b82525050565b60008160601b9050919050565b6000613a5482613a3c565b9050919050565b6000613a6682613a49565b9050919050565b613a7e613a798261385f565b613a5b565b82525050565b6000613a908286613a25565b602082019150613aa08285613a6d565b601482019150613ab08284613a25565b602082019150819050949350505050565b6000613acc8261260e565b613ad6818561333b565b9350613ae681856020860161262a565b613aef81612654565b840191505092915050565b60006040820190508181036000830152613b148185613ac1565b90508181036020830152613b288184613ac1565b90509392505050565b60006020820190508181036000830152613b4b8184613ac1565b905092915050565b600081549050613b6281612b78565b9050919050565b818103613b77575050613c4f565b613b8082613b53565b67ffffffffffffffff811115613b9957613b98612b1a565b5b613ba38254612b78565b613bae828285612cbe565b6000601f831160018114613bdd5760008415613bcb578287015490505b613bd58582612d2f565b865550613c48565b601f198416613beb87612ba9565b9650613bf686612ba9565b60005b82811015613c1e57848901548255600182019150600185019450602081019050613bf9565b86831015613c3b5784890154613c37601f891682612d11565b8355505b6001600288020188555050505b5050505050505b565b7f5468657265206973206e6f2077696e6e65722079657400000000000000000000600082015250565b6000613c8760168361333b565b9150613c9282613c51565b602082019050919050565b60006020820190508181036000830152613cb681613c7a565b9050919050565b6000613cc8826124a4565b9150613cd3836124a4565b9250828202613ce1816124a4565b91508282048414831517613cf857613cf76132c4565b5b5092915050565b7f596f7520646f206e6f742068617665207375666669656e742062616c616e636560008201527f20746f2072657761726400000000000000000000000000000000000000000000602082015250565b6000613d5b602a8361333b565b9150613d6682613cff565b604082019050919050565b60006020820190508181036000830152613d8a81613d4e565b9050919050565b6000602082019050613da66000830184613701565b92915050565b600080fd5b600080fd5b613dbf82612654565b810181811067ffffffffffffffff82111715613dde57613ddd612b1a565b5b80604052505050565b6000613df16124d8565b9050613dfd8282613db6565b919050565b600067ffffffffffffffff821115613e1d57613e1c612b1a565b5b613e2682612654565b9050602081019050919050565b6000613e46613e4184613e02565b613de7565b905082815260208101848484011115613e6257613e61613db1565b5b613e6d84828561262a565b509392505050565b600082601f830112613e8a57613e89613dac565b5b8151613e9a848260208601613e33565b91505092915050565b600060208284031215613eb957613eb86124e2565b5b600082015167ffffffffffffffff811115613ed757613ed66124e7565b5b613ee384828501613e75565b91505092915050565b60006040820190508181036000830152613f068185613ac1565b9050613f1560208301846124ae565b9392505050565b60006080820190508181036000830152613f368187613ac1565b90508181036020830152613f4a8186613ac1565b90508181036040830152613f5e8185613ac1565b90508181036060830152613f728184613ac1565b905095945050505050565b60006060820190508181036000830152613f978186613ac1565b90508181036020830152613fab8185613ac1565b9050613fba60408301846124ae565b94935050505056fe25732c207361646c7920796f7520686176652065786365656465642074696d6520746f207265636f72642061206d6f7665203a282e20596f75206c6f7374207468652067616d65596f752061726520726577617264656420776974682025732e20546f6b656e204944202d20257348657265206973207468652063757272656e74207374617465206f6620626f61726420666f722047616d65202573506c61796572203220616c736f20656e746572656420696e746f2067616d652c204c6574277320626567696e212120616e6420746865207475726e20697320666f72202573416c69617321212049742773206120647261772e204e6f2070726f626c656d2c2072657475726e696e6720796f75722068617264206561726e656420746f6b656e73206261636b20746f20796f752e20566973697420757320736f6f6e21596f75206172652072657761726465642077697468202573204852505020636f696e732e506c61796572203120656e746572656420696e746f2067616d652c2077616974696e6720666f7220706c617965722032436f6e67726174756c6174696f6e7320257320666f722077696e6e696e67207468652067616d652ea2646970667358221220e121b18545ebd9dc842dcc398300b9dcd0487c8043008e43f3b1dbf4704b192964736f6c63430008110033",
  "linkReferences": {},
  "deployedLinkReferences": {}
}