{
  "_format": "hh-sol-artifact-1",
  "contractName": "TicTacToe",
  "sourceName": "contracts/TicTacToe.sol",
  "abi": [
    {
      "anonymous": false,
      "inputs": [
        {
          "indexed": true,
          "internalType": "uint256",
          "name": "gameId",
          "type": "uint256"
        }
      ],
      "name": "GameEnded",
      "type": "event"
    },
    {
      "anonymous": false,
      "inputs": [
        {
          "indexed": true,
          "internalType": "uint256",
          "name": "gameId",
          "type": "uint256"
        }
      ],
      "name": "GameInitiated",
      "type": "event"
    },
    {
      "anonymous": false,
      "inputs": [
        {
          "indexed": true,
          "internalType": "uint256",
          "name": "gameId",
          "type": "uint256"
        }
      ],
      "name": "GameStarted",
      "type": "event"
    },
    {
      "anonymous": false,
      "inputs": [
        {
          "indexed": true,
          "internalType": "uint256",
          "name": "gameId",
          "type": "uint256"
        },
        {
          "indexed": false,
          "internalType": "uint256",
          "name": "index",
          "type": "uint256"
        }
      ],
      "name": "PlayerMoved",
      "type": "event"
    },
    {
      "inputs": [],
      "name": "GAME_TIMEOUT",
      "outputs": [
        {
          "internalType": "uint256",
          "name": "",
          "type": "uint256"
        }
      ],
      "stateMutability": "view",
      "type": "function"
    },
    {
      "inputs": [],
      "name": "STAKE",
      "outputs": [
        {
          "internalType": "uint256",
          "name": "",
          "type": "uint256"
        }
      ],
      "stateMutability": "view",
      "type": "function"
    },
    {
      "inputs": [],
      "name": "contractBalance",
      "outputs": [
        {
          "internalType": "uint256",
          "name": "",
          "type": "uint256"
        }
      ],
      "stateMutability": "view",
      "type": "function"
    },
    {
      "inputs": [
        {
          "internalType": "uint256",
          "name": "gameId",
          "type": "uint256"
        }
      ],
      "name": "currentActivePlayer",
      "outputs": [
        {
          "internalType": "string",
          "name": "",
          "type": "string"
        }
      ],
      "stateMutability": "view",
      "type": "function"
    },
    {
      "inputs": [
        {
          "internalType": "uint256",
          "name": "gameId",
          "type": "uint256"
        }
      ],
      "name": "gameState",
      "outputs": [
        {
          "internalType": "string",
          "name": "",
          "type": "string"
        }
      ],
      "stateMutability": "view",
      "type": "function"
    },
    {
      "inputs": [
        {
          "internalType": "uint256",
          "name": "gameId",
          "type": "uint256"
        }
      ],
      "name": "getBoard",
      "outputs": [
        {
          "internalType": "uint256[9]",
          "name": "",
          "type": "uint256[9]"
        }
      ],
      "stateMutability": "view",
      "type": "function"
    },
    {
      "inputs": [
        {
          "internalType": "uint256",
          "name": "gameId",
          "type": "uint256"
        }
      ],
      "name": "isGameRunning",
      "outputs": [
        {
          "internalType": "bool",
          "name": "",
          "type": "bool"
        }
      ],
      "stateMutability": "view",
      "type": "function"
    },
    {
      "inputs": [
        {
          "components": [
            {
              "internalType": "address payable",
              "name": "playerAddress",
              "type": "address"
            },
            {
              "internalType": "string",
              "name": "playerName",
              "type": "string"
            }
          ],
          "internalType": "struct TicTacToe.Player",
          "name": "player",
          "type": "tuple"
        }
      ],
      "name": "joinRoom",
      "outputs": [],
      "stateMutability": "nonpayable",
      "type": "function"
    },
    {
      "inputs": [],
      "name": "leaderboard",
      "outputs": [],
      "stateMutability": "view",
      "type": "function"
    },
    {
      "inputs": [
        {
          "internalType": "uint256",
          "name": "gameId",
          "type": "uint256"
        },
        {
          "internalType": "uint8",
          "name": "index",
          "type": "uint8"
        }
      ],
      "name": "move",
      "outputs": [],
      "stateMutability": "nonpayable",
      "type": "function"
    },
    {
      "inputs": [
        {
          "internalType": "uint256",
          "name": "",
          "type": "uint256"
        }
      ],
      "name": "rooms",
      "outputs": [
        {
          "internalType": "uint256",
          "name": "activePlayer",
          "type": "uint256"
        },
        {
          "internalType": "bool",
          "name": "isRoomActive",
          "type": "bool"
        },
        {
          "components": [
            {
              "internalType": "address payable",
              "name": "playerAddress",
              "type": "address"
            },
            {
              "internalType": "string",
              "name": "playerName",
              "type": "string"
            }
          ],
          "internalType": "struct TicTacToe.Player",
          "name": "winnerPlayer",
          "type": "tuple"
        },
        {
          "internalType": "uint256",
          "name": "lastPlayedTime",
          "type": "uint256"
        },
        {
          "internalType": "uint8",
          "name": "movedRecorded",
          "type": "uint8"
        },
        {
          "internalType": "enum TicTacToe.GameState",
          "name": "state",
          "type": "uint8"
        }
      ],
      "stateMutability": "view",
      "type": "function"
    },
    {
      "inputs": [],
      "name": "totalGames",
      "outputs": [
        {
          "internalType": "uint256",
          "name": "",
          "type": "uint256"
        }
      ],
      "stateMutability": "view",
      "type": "function"
    },
    {
      "inputs": [
        {
          "internalType": "uint256",
          "name": "gameId",
          "type": "uint256"
        }
      ],
      "name": "updateRoomIfExpired",
      "outputs": [
        {
          "internalType": "enum TicTacToe.GameState",
          "name": "",
          "type": "uint8"
        }
      ],
      "stateMutability": "nonpayable",
      "type": "function"
    },
    {
      "inputs": [
        {
          "internalType": "uint256",
          "name": "gameId",
          "type": "uint256"
        }
      ],
      "name": "winnerName",
      "outputs": [
        {
          "internalType": "string",
          "name": "",
          "type": "string"
        }
      ],
      "stateMutability": "view",
      "type": "function"
    }
  ],
  "bytecode": "0x608060405272af5cf1a775b0597f96a253f79663bd9a5bd1066000806101000a81548173ffffffffffffffffffffffffffffffffffffffff021916908373ffffffffffffffffffffffffffffffffffffffff160217905550736a47766e87cb800cc4c9cb46ab505fc2b99e5a23600160006101000a81548173ffffffffffffffffffffffffffffffffffffffff021916908373ffffffffffffffffffffffffffffffffffffffff1602179055506040518061010001604052806040518060600160405280600060ff168152602001600160ff168152602001600260ff1681525081526020016040518060600160405280600360ff168152602001600460ff168152602001600560ff1681525081526020016040518060600160405280600660ff168152602001600760ff168152602001600860ff1681525081526020016040518060600160405280600060ff168152602001600460ff168152602001600860ff1681525081526020016040518060600160405280600260ff168152602001600460ff168152602001600660ff1681525081526020016040518060600160405280600060ff168152602001600360ff168152602001600660ff1681525081526020016040518060600160405280600160ff168152602001600460ff168152602001600760ff1681525081526020016040518060600160405280600260ff168152602001600560ff168152602001600860ff168152508152506002906008620002289291906200025d565b506000600b556000600c60006101000a81548160ff0219169083151502179055503480156200025657600080fd5b50620003a1565b82600881019282156200029f579160200282015b828111156200029e578251829060036200028d929190620002b2565b509160200191906001019062000271565b5b509050620002ae919062000353565b5090565b826003601f01602090048101928215620003405791602002820160005b838211156200030f57835183826101000a81548160ff021916908360ff1602179055509260200192600101602081600001049283019260010302620002cf565b80156200033e5782816101000a81549060ff02191690556001016020816000010492830192600103026200030f565b505b5090506200034f91906200037b565b5090565b5b808211156200037757600081816200036d91906200039a565b5060010162000354565b5090565b5b80821115620003965760008160009055506001016200037c565b5090565b5060009055565b61492280620003b16000396000f3fe608060405234801561001057600080fd5b50600436106100ea5760003560e01c8063440b27ac1161008c57806361098ebd1161006657806361098ebd146102765780638b7afe2e146102a6578063e4ac619c146102c4578063eb56b740146102f4576100ea565b8063440b27ac146101e657806345e09e54146102165780634e0e1a3e14610246576100ea565b80631bae0ac8116100c85780631bae0ac814610147578063205758ba1461017c5780632c4e591b146101ac5780632d3e0851146101ca576100ea565b8063099420b6146100ef5780630a8884611461010d578063125fdbbc14610129575b600080fd5b6100f76102fe565b6040516101049190612dd7565b60405180910390f35b61012760048036038101906101229190612e2a565b610303565b005b61013161064e565b60405161013e9190612dd7565b60405180910390f35b610161600480360381019061015c9190612e9f565b610653565b60405161017396959493929190613088565b60405180910390f35b61019660048036038101906101919190612e9f565b6107a8565b6040516101a3919061313a565b60405180910390f35b6101b4610898565b6040516101c19190612dd7565b60405180910390f35b6101e460048036038101906101df9190613188565b6108a2565b005b61020060048036038101906101fb9190612e9f565b6111cc565b60405161020d91906131c8565b60405180910390f35b610230600480360381019061022b9190612e9f565b6111f9565b60405161023d919061328e565b60405180910390f35b610260600480360381019061025b9190612e9f565b611319565b60405161026d919061313a565b60405180910390f35b610290600480360381019061028b9190612e9f565b6115ed565b60405161029d919061313a565b60405180910390f35b6102ae611793565b6040516102bb9190612dd7565b60405180910390f35b6102de60048036038101906102d99190612e9f565b611835565b6040516102eb91906132aa565b60405180910390f35b6102fc611918565b005b607881565b61032081600001602081019061031991906132f1565b6064611baf565b600c60009054906101000a900460ff161561054d5780600a6000600b5481526020019081526020016000206000016001600281106103615761036061331e565b5b60020201818161037191906137f7565b9050506001600a6000600b54815260200190815260200160002060050160006101000a81548160ff0219169083151502179055506001600a6000600b54815260200190815260200160002060120160016101000a81548160ff021916908360038111156103e1576103e0613011565b5b021790555042600a6000600b548152602001908152602001600020601101819055506000600c60006101000a81548160ff021916908315150217905550610426611d32565b600b547f50ad08f58a27f2851d7e3a1b3a6a46b290f2ce677e99642d30ff639721e7779060405160405180910390a261054860405180608001604052806045815260200161475c60459139600a6000600b548152602001908152602001600020600001600a6000600b54815260200190815260200160002060040154600281106104b3576104b261331e565b5b6002020160010180546104c5906134fe565b80601f01602080910402602001604051908101604052809291908181526020018280546104f1906134fe565b801561053e5780601f106105135761010080835404028352916020019161053e565b820191906000526020600020905b81548152906001019060200180831161052157829003601f168201915b5050505050611d8c565b61064b565b80600a6000600b6000815461056190613834565b919050819055815260200190815260200160002060000160006002811061058b5761058a61331e565b5b60020201818161059b91906137f7565b9050506001600c60006101000a81548160ff0219169083151502179055506105da60405180606001604052806030815260200161489560309139611e28565b6000600a6000600b54815260200190815260200160002060120160016101000a81548160ff0219169083600381111561061657610615613011565b5b0217905550600b547fbc2d273bf6a446c17317e512505ef0de7a7a83d71b235974bea95e9c31ae529f60405160405180910390a25b50565b606481565b600a6020528060005260406000206000915090508060040154908060050160009054906101000a900460ff1690806006016040518060400160405290816000820160009054906101000a900473ffffffffffffffffffffffffffffffffffffffff1673ffffffffffffffffffffffffffffffffffffffff1673ffffffffffffffffffffffffffffffffffffffff1681526020016001820180546106f5906134fe565b80601f0160208091040260200160405190810160405280929190818152602001828054610721906134fe565b801561076e5780601f106107435761010080835404028352916020019161076e565b820191906000526020600020905b81548152906001019060200180831161075157829003601f168201915b505050505081525050908060110154908060120160009054906101000a900460ff16908060120160019054906101000a900460ff16905086565b606081600b5410156107ef576040517f08c379a00000000000000000000000000000000000000000000000000000000081526004016107e6906138c8565b60405180910390fd5b600a60008381526020019081526020016000206006016001018054610813906134fe565b80601f016020809104026020016040519081016040528092919081815260200182805461083f906134fe565b801561088c5780601f106108615761010080835404028352916020019161088c565b820191906000526020600020905b81548152906001019060200180831161086f57829003601f168201915b50505050509050919050565b6000600b54905090565b81600b5410156108e7576040517f08c379a00000000000000000000000000000000000000000000000000000000081526004016108de90613934565b60405180910390fd5b60088160ff16111561092e576040517f08c379a0000000000000000000000000000000000000000000000000000000008152600401610925906139c6565b60405180910390fd5b600a60008381526020019081526020016000206000016000600281106109575761095661331e565b5b6002020160000160009054906101000a900473ffffffffffffffffffffffffffffffffffffffff1673ffffffffffffffffffffffffffffffffffffffff163373ffffffffffffffffffffffffffffffffffffffff161480610a335750600a60008381526020019081526020016000206000016001600281106109dc576109db61331e565b5b6002020160000160009054906101000a900473ffffffffffffffffffffffffffffffffffffffff1673ffffffffffffffffffffffffffffffffffffffff163373ffffffffffffffffffffffffffffffffffffffff16145b610a72576040517f08c379a0000000000000000000000000000000000000000000000000000000008152600401610a6990613a32565b60405180910390fd5b600a600083815260200190815260200160002060050160009054906101000a900460ff16610ad5576040517f08c379a0000000000000000000000000000000000000000000000000000000008152600401610acc90613a9e565b60405180910390fd5b6000600a60008481526020019081526020016000206008018260ff1660098110610b0257610b0161331e565b5b015414610b44576040517f08c379a0000000000000000000000000000000000000000000000000000000008152600401610b3b90613b30565b60405180910390fd5b600a6000838152602001908152602001600020600001600a60008481526020019081526020016000206004015460028110610b8257610b8161331e565b5b6002020160000160009054906101000a900473ffffffffffffffffffffffffffffffffffffffff1673ffffffffffffffffffffffffffffffffffffffff163373ffffffffffffffffffffffffffffffffffffffff1614610c17576040517f08c379a0000000000000000000000000000000000000000000000000000000008152600401610c0e90613b9c565b60405180910390fd5b6078600a600084815260200190815260200160002060110154610c3a9190613bbc565b421115610d7657610d3060405180608001604052806047815260200161468560479139600a6000858152602001908152602001600020600001600a60008681526020019081526020016000206004015460028110610c9b57610c9a61331e565b5b600202016001018054610cad906134fe565b80601f0160208091040260200160405190810160405280929190818152602001828054610cd9906134fe565b8015610d265780601f10610cfb57610100808354040283529160200191610d26565b820191906000526020600020905b815481529060010190602001808311610d0957829003601f168201915b5050505050611d8c565b610d688260026001600a600087815260200190815260200160002060040154610d599190613bbc565b610d639190613c1f565b611ec1565b610d71826120f6565b6111c8565b60006001600a600085815260200190815260200160002060040154610d9b9190613bbc565b905080600a60008581526020019081526020016000206008018360ff1660098110610dc957610dc861331e565b5b0181905550600a6000848152602001908152602001600020601201600081819054906101000a900460ff1680929190610e0190613c50565b91906101000a81548160ff021916908360ff16021790555050610e7581600a6000868152602001908152602001600020600801600980602002604051908101604052809291908260098015610e6b576020028201915b815481526020019060010190808311610e57575b50505050506123d1565b15610e9f57610e9a83600a600086815260200190815260200160002060040154611ec1565b611185565b6009600a600085815260200190815260200160002060120160009054906101000a900460ff1660ff160361114157610eee6040518060800160405280605e81526020016147c6605e9139611e28565b6000600a600085815260200190815260200160002060050160006101000a81548160ff0219169083151502179055506003600a600085815260200190815260200160002060120160016101000a81548160ff02191690836003811115610f5757610f56613011565b5b021790555060008054906101000a900473ffffffffffffffffffffffffffffffffffffffff1673ffffffffffffffffffffffffffffffffffffffff1663a9059cbb600a6000868152602001908152602001600020600001600060028110610fc157610fc061331e565b5b6002020160000160009054906101000a900473ffffffffffffffffffffffffffffffffffffffff1660646040518363ffffffff1660e01b8152600401611008929190613cac565b6020604051808303816000875af1158015611027573d6000803e3d6000fd5b505050506040513d601f19601f8201168201806040525081019061104b9190613d01565b5060008054906101000a900473ffffffffffffffffffffffffffffffffffffffff1673ffffffffffffffffffffffffffffffffffffffff1663a9059cbb600a60008681526020019081526020016000206000016001600281106110b1576110b061331e565b5b6002020160000160009054906101000a900473ffffffffffffffffffffffffffffffffffffffff1660646040518363ffffffff1660e01b81526004016110f8929190613cac565b6020604051808303816000875af1158015611117573d6000803e3d6000fd5b505050506040513d601f19601f8201168201806040525081019061113b9190613d01565b50611184565b60028161114e9190613c1f565b600a60008581526020019081526020016000206004018190555042600a6000858152602001908152602001600020601101819055505b5b827fac4bcfc5cf080dbca93d01cd2269f1df18ff969aebbe657f4268eb63ba39d98b836040516111b59190613d5f565b60405180910390a26111c6836120f6565b505b5050565b6000600a600083815260200190815260200160002060050160009054906101000a900460ff169050919050565b611201612d9b565b600073ffffffffffffffffffffffffffffffffffffffff16600a60008481526020019081526020016000206000016000600281106112425761124161331e565b5b6002020160000160009054906101000a900473ffffffffffffffffffffffffffffffffffffffff1673ffffffffffffffffffffffffffffffffffffffff16036112c0576040517f08c379a00000000000000000000000000000000000000000000000000000000081526004016112b790613dc6565b60405180910390fd5b600a600083815260200190815260200160002060080160098060200260405190810160405280929190826009801561130d576020028201915b8154815260200190600101908083116112f9575b50505050509050919050565b606081600b541015611345576040518060800160405280604d8152602001614824604d913990506115e8565b600a600083815260200190815260200160002060050160009054906101000a900460ff16156114c3576001600381111561138257611381613011565b5b600a600084815260200190815260200160002060120160019054906101000a900460ff1660038111156113b8576113b7613011565b5b036113fa576040518060400160405280601081526020017f47616d65206973206f6e2d676f696e670000000000000000000000000000000081525090506115e8565b6002600381111561140e5761140d613011565b5b600a600084815260200190815260200160002060120160019054906101000a900460ff16600381111561144457611443613011565b5b03611486576040518060400160405280600c81526020017f47616d65206973206f766572000000000000000000000000000000000000000081525090506115e8565b6040518060400160405280600b81526020017f497427732061206472617700000000000000000000000000000000000000000081525090506115e8565b600060038111156114d7576114d6613011565b5b600a600084815260200190815260200160002060120160019054906101000a900460ff16600381111561150d5761150c613011565b5b03611532576040518060600160405280603b81526020016146f3603b913990506115e8565b60038081111561154557611544613011565b5b600a600084815260200190815260200160002060120160019054906101000a900460ff16600381111561157b5761157a613011565b5b036115bd576040518060400160405280600e81526020017f497420776173206120647261772100000000000000000000000000000000000081525090506115e8565b6115c6826107a8565b6040516020016115d69190613e94565b60405160208183030381529060405290505b919050565b606081600b541015611634576040517f08c379a000000000000000000000000000000000000000000000000000000000815260040161162b906138c8565b60405180910390fd5b6000600381111561164857611647613011565b5b600a600084815260200190815260200160002060120160019054906101000a900460ff16600381111561167e5761167d613011565b5b036116be576040517f08c379a00000000000000000000000000000000000000000000000000000000081526004016116b590613f02565b60405180910390fd5b600a6000838152602001908152602001600020600001600a600084815260200190815260200160002060040154600281106116fc576116fb61331e565b5b60020201600101805461170e906134fe565b80601f016020809104026020016040519081016040528092919081815260200182805461173a906134fe565b80156117875780601f1061175c57610100808354040283529160200191611787565b820191906000526020600020905b81548152906001019060200180831161176a57829003601f168201915b50505050509050919050565b60008060009054906101000a900473ffffffffffffffffffffffffffffffffffffffff1673ffffffffffffffffffffffffffffffffffffffff166370a08231306040518263ffffffff1660e01b81526004016117ef9190613f43565b602060405180830381865afa15801561180c573d6000803e3d6000fd5b505050506040513d601f19601f820116820180604052508101906118309190613f73565b905090565b60006078600a60008481526020019081526020016000206011015461185a9190613bbc565b421180156118af57506001600381111561187757611876613011565b5b600a600084815260200190815260200160002060120160019054906101000a900460ff1660038111156118ad576118ac613011565b5b145b156118ed576118ec8260026001600a6000878152602001908152602001600020600401546118dd9190613bbc565b6118e79190613c1f565b611ec1565b5b600a600083815260200190815260200160002060120160019054906101000a900460ff169050919050565b6119566040518060400160405280600b81526020017f4c6561646572426f617264000000000000000000000000000000000000000000815250611e28565b60005b600b54811015611bac576119846040518060600160405280602581526020016147a160259139611e28565b611a646040518060400160405280600c81526020017f2573207c202573207c20257300000000000000000000000000000000000000008152506040518060400160405280600781526020017f47616d65204944000000000000000000000000000000000000000000000000008152506040518060400160405280600681526020017f57696e6e657200000000000000000000000000000000000000000000000000008152506040518060400160405280600e81526020017f576173206974206120647261773f000000000000000000000000000000000000815250612542565b611a856040518060600160405280602581526020016147a160259139611e28565b611b996040518060400160405280600c81526020017f2573207c202573207c2025730000000000000000000000000000000000000000815250600183611acb9190613bbc565b611ad4846107a8565b600380811115611ae757611ae6613011565b5b600a600087815260200190815260200160002060120160019054906101000a900460ff166003811115611b1d57611b1c613011565b5b14611b5d576040518060400160405280600281526020017f6e6f000000000000000000000000000000000000000000000000000000000000815250611b94565b6040518060400160405280600381526020017f79657300000000000000000000000000000000000000000000000000000000008152505b6125e4565b8080611ba490613834565b915050611959565b50565b8060008054906101000a900473ffffffffffffffffffffffffffffffffffffffff1673ffffffffffffffffffffffffffffffffffffffff1663dd62ed3e84306040518363ffffffff1660e01b8152600401611c0b929190613fa0565b602060405180830381865afa158015611c28573d6000803e3d6000fd5b505050506040513d601f19601f82011682018060405250810190611c4c9190613f73565b1015611c8d576040517f08c379a0000000000000000000000000000000000000000000000000000000008152600401611c8490614087565b60405180910390fd5b60008054906101000a900473ffffffffffffffffffffffffffffffffffffffff1673ffffffffffffffffffffffffffffffffffffffff166323b872dd8330846040518463ffffffff1660e01b8152600401611cea939291906140a7565b6020604051808303816000875af1158015611d09573d6000803e3d6000fd5b505050506040513d601f19601f82011682018060405250810190611d2d9190613d01565b505050565b60024233600b54604051602001611d4b93929190614147565b6040516020818303038152906040528051906020012060001c611d6e9190613c1f565b600a6000600b54815260200190815260200160002060040181905550565b611e248282604051602401611da2929190614184565b6040516020818303038152906040527f4b5c4277000000000000000000000000000000000000000000000000000000007bffffffffffffffffffffffffffffffffffffffffffffffffffffffff19166020820180517bffffffffffffffffffffffffffffffffffffffffffffffffffffffff8381831617835250505050612686565b5050565b611ebe81604051602401611e3c919061313a565b6040516020818303038152906040527f41304fac000000000000000000000000000000000000000000000000000000007bffffffffffffffffffffffffffffffffffffffffffffffffffffffff19166020820180517bffffffffffffffffffffffffffffffffffffffffffffffffffffffff8381831617835250505050612686565b50565b6000600a600084815260200190815260200160002060050160006101000a81548160ff021916908315150217905550600a60008381526020019081526020016000206000018160028110611f1857611f1761331e565b5b60020201600a60008481526020019081526020016000206006016000820160009054906101000a900473ffffffffffffffffffffffffffffffffffffffff168160000160006101000a81548173ffffffffffffffffffffffffffffffffffffffff021916908373ffffffffffffffffffffffffffffffffffffffff16021790555060018201816001019081611fad91906141d1565b509050506002600a600084815260200190815260200160002060120160016101000a81548160ff02191690836003811115611feb57611fea613011565b5b0217905550611ff9826126af565b61200282612957565b817fce24807f7e4b60b4e641462f13029fa5e5f79075bbc3f8e5cd43ecd19661d76060405160405180910390a26120f26040518060600160405280602881526020016148c560289139600a6000858152602001908152602001600020600601600101805461206f906134fe565b80601f016020809104026020016040519081016040528092919081815260200182805461209b906134fe565b80156120e85780601f106120bd576101008083540402835291602001916120e8565b820191906000526020600020905b8154815290600101906020018083116120cb57829003601f168201915b5050505050611d8c565b5050565b6121186040518060600160405280602e815260200161472e602e913982612b96565b6000600a6000838152602001908152602001600020600801600980602002604051908101604052809291908260098015612167576020028201915b815481526020019060010190808311612153575b5050505050905061220f6040518060400160405280600c81526020017f2573207c202573207c20257300000000000000000000000000000000000000008152506121c8836000600981106121be576121bd61331e565b5b6020020151612c32565b6121e9846001600981106121df576121de61331e565b5b6020020151612c32565b61220a85600260098110612200576121ff61331e565b5b6020020151612c32565b612542565b61224d6040518060400160405280600981526020017f2d2d2d2d2d2d2d2d2d0000000000000000000000000000000000000000000000815250611e28565b6122ee6040518060400160405280600c81526020017f2573207c202573207c20257300000000000000000000000000000000000000008152506122a78360036009811061229d5761229c61331e565b5b6020020151612c32565b6122c8846004600981106122be576122bd61331e565b5b6020020151612c32565b6122e9856005600981106122df576122de61331e565b5b6020020151612c32565b612542565b61232c6040518060400160405280600981526020017f2d2d2d2d2d2d2d2d2d0000000000000000000000000000000000000000000000815250611e28565b6123cd6040518060400160405280600c81526020017f2573207c202573207c20257300000000000000000000000000000000000000008152506123868360066009811061237c5761237b61331e565b5b6020020151612c32565b6123a78460076009811061239d5761239c61331e565b5b6020020151612c32565b6123c8856008600981106123be576123bd61331e565b5b6020020151612c32565b612542565b5050565b600080600090505b60088160ff16101561253657600060028260ff16600881106123fe576123fd61331e565b5b0160038060200260405190810160405280929190826003801561245c576020028201916000905b82829054906101000a900460ff1660ff16815260200190600101906020826000010492830192600103820291508084116124255790505b505050505090508484826000600381106124795761247861331e565b5b602002015160ff16600981106124925761249161331e565b5b60200201511480156124d557508484826001600381106124b5576124b461331e565b5b602002015160ff16600981106124ce576124cd61331e565b5b6020020151145b801561251257508484826002600381106124f2576124f161331e565b5b602002015160ff166009811061250b5761250a61331e565b5b6020020151145b156125225760019250505061253c565b50808061252e90613c50565b9150506123d9565b50600090505b92915050565b6125de8484848460405160240161255c94939291906142b9565b6040516020818303038152906040527fde68f20a000000000000000000000000000000000000000000000000000000007bffffffffffffffffffffffffffffffffffffffffffffffffffffffff19166020820180517bffffffffffffffffffffffffffffffffffffffffffffffffffffffff8381831617835250505050612686565b50505050565b612680848484846040516024016125fe949392919061431a565b6040516020818303038152906040527f5ab84e1f000000000000000000000000000000000000000000000000000000007bffffffffffffffffffffffffffffffffffffffffffffffffffffffff19166020820180517bffffffffffffffffffffffffffffffffffffffffffffffffffffffff8381831617835250505050612686565b50505050565b60008151905060006a636f6e736f6c652e6c6f679050602083016000808483855afa5050505050565b600073ffffffffffffffffffffffffffffffffffffffff16600a600083815260200190815260200160002060060160000160009054906101000a900473ffffffffffffffffffffffffffffffffffffffff1673ffffffffffffffffffffffffffffffffffffffff1603612757576040517f08c379a000000000000000000000000000000000000000000000000000000000815260040161274e906143c0565b60405180910390fd5b6002606461276591906143e0565b60008054906101000a900473ffffffffffffffffffffffffffffffffffffffff1673ffffffffffffffffffffffffffffffffffffffff166370a08231306040518263ffffffff1660e01b81526004016127be9190613f43565b602060405180830381865afa1580156127db573d6000803e3d6000fd5b505050506040513d601f19601f820116820180604052508101906127ff9190613f73565b1015612840576040517f08c379a000000000000000000000000000000000000000000000000000000000815260040161283790614494565b60405180910390fd5b60008054906101000a900473ffffffffffffffffffffffffffffffffffffffff1673ffffffffffffffffffffffffffffffffffffffff1663a9059cbb600a600084815260200190815260200160002060060160000160009054906101000a900473ffffffffffffffffffffffffffffffffffffffff16600260646128c491906143e0565b6040518363ffffffff1660e01b81526004016128e1929190613cac565b6020604051808303816000875af1158015612900573d6000803e3d6000fd5b505050506040513d601f19601f820116820180604052508101906129249190613d01565b50612954604051806060016040528060248152602001614871602491396002606461294f91906143e0565b612b96565b50565b600073ffffffffffffffffffffffffffffffffffffffff16600a600083815260200190815260200160002060060160000160009054906101000a900473ffffffffffffffffffffffffffffffffffffffff1673ffffffffffffffffffffffffffffffffffffffff16036129ff576040517f08c379a00000000000000000000000000000000000000000000000000000000081526004016129f6906143c0565b60405180910390fd5b6000600160009054906101000a900473ffffffffffffffffffffffffffffffffffffffff1673ffffffffffffffffffffffffffffffffffffffff166340d097c3600a600085815260200190815260200160002060060160000160009054906101000a900473ffffffffffffffffffffffffffffffffffffffff166040518263ffffffff1660e01b8152600401612a9591906144b4565b6020604051808303816000875af1158015612ab4573d6000803e3d6000fd5b505050506040513d601f19601f82011682018060405250810190612ad89190613f73565b9050612b926040518060600160405280602781526020016146cc60279139600160009054906101000a900473ffffffffffffffffffffffffffffffffffffffff1673ffffffffffffffffffffffffffffffffffffffff166306fdde036040518163ffffffff1660e01b8152600401600060405180830381865afa158015612b63573d6000803e3d6000fd5b505050506040513d6000823e3d601f19601f82011682018060405250810190612b8c91906145c6565b83612cfc565b5050565b612c2e8282604051602401612bac92919061460f565b6040516020818303038152906040527fb60e72cc000000000000000000000000000000000000000000000000000000007bffffffffffffffffffffffffffffffffffffffffffffffffffffffff19166020820180517bffffffffffffffffffffffffffffffffffffffffffffffffffffffff8381831617835250505050612686565b5050565b606060018203612c79576040518060400160405280600181526020017f58000000000000000000000000000000000000000000000000000000000000008152509050612cf7565b60028203612cbe576040518060400160405280600181526020017f30000000000000000000000000000000000000000000000000000000000000008152509050612cf7565b6040518060400160405280600181526020017f2d0000000000000000000000000000000000000000000000000000000000000081525090505b919050565b612d96838383604051602401612d149392919061463f565b6040516020818303038152906040527f5821efa1000000000000000000000000000000000000000000000000000000007bffffffffffffffffffffffffffffffffffffffffffffffffffffffff19166020820180517bffffffffffffffffffffffffffffffffffffffffffffffffffffffff8381831617835250505050612686565b505050565b604051806101200160405280600990602082028036833780820191505090505090565b6000819050919050565b612dd181612dbe565b82525050565b6000602082019050612dec6000830184612dc8565b92915050565b6000604051905090565b600080fd5b600080fd5b600080fd5b600060408284031215612e2157612e20612e06565b5b81905092915050565b600060208284031215612e4057612e3f612dfc565b5b600082013567ffffffffffffffff811115612e5e57612e5d612e01565b5b612e6a84828501612e0b565b91505092915050565b612e7c81612dbe565b8114612e8757600080fd5b50565b600081359050612e9981612e73565b92915050565b600060208284031215612eb557612eb4612dfc565b5b6000612ec384828501612e8a565b91505092915050565b60008115159050919050565b612ee181612ecc565b82525050565b600073ffffffffffffffffffffffffffffffffffffffff82169050919050565b6000612f1282612ee7565b9050919050565b612f2281612f07565b82525050565b600081519050919050565b600082825260208201905092915050565b60005b83811015612f62578082015181840152602081019050612f47565b60008484015250505050565b6000601f19601f8301169050919050565b6000612f8a82612f28565b612f948185612f33565b9350612fa4818560208601612f44565b612fad81612f6e565b840191505092915050565b6000604083016000830151612fd06000860182612f19565b5060208301518482036020860152612fe88282612f7f565b9150508091505092915050565b600060ff82169050919050565b61300b81612ff5565b82525050565b7f4e487b7100000000000000000000000000000000000000000000000000000000600052602160045260246000fd5b6004811061305157613050613011565b5b50565b600081905061306282613040565b919050565b600061307282613054565b9050919050565b61308281613067565b82525050565b600060c08201905061309d6000830189612dc8565b6130aa6020830188612ed8565b81810360408301526130bc8187612fb8565b90506130cb6060830186612dc8565b6130d86080830185613002565b6130e560a0830184613079565b979650505050505050565b600082825260208201905092915050565b600061310c82612f28565b61311681856130f0565b9350613126818560208601612f44565b61312f81612f6e565b840191505092915050565b600060208201905081810360008301526131548184613101565b905092915050565b61316581612ff5565b811461317057600080fd5b50565b6000813590506131828161315c565b92915050565b6000806040838503121561319f5761319e612dfc565b5b60006131ad85828601612e8a565b92505060206131be85828601613173565b9150509250929050565b60006020820190506131dd6000830184612ed8565b92915050565b600060099050919050565b600081905092915050565b6000819050919050565b61320c81612dbe565b82525050565b600061321e8383613203565b60208301905092915050565b6000602082019050919050565b613240816131e3565b61324a81846131ee565b9250613255826131f9565b8060005b8381101561328657815161326d8782613212565b96506132788361322a565b925050600181019050613259565b505050505050565b6000610120820190506132a46000830184613237565b92915050565b60006020820190506132bf6000830184613079565b92915050565b6132ce81612f07565b81146132d957600080fd5b50565b6000813590506132eb816132c5565b92915050565b60006020828403121561330757613306612dfc565b5b6000613315848285016132dc565b91505092915050565b7f4e487b7100000000000000000000000000000000000000000000000000000000600052603260045260246000fd5b6000813561335a816132c5565b80915050919050565b60008160001b9050919050565b600073ffffffffffffffffffffffffffffffffffffffff61339084613363565b9350801983169250808416831791505092915050565b6000819050919050565b60006133cb6133c66133c184612ee7565b6133a6565b612ee7565b9050919050565b60006133dd826133b0565b9050919050565b60006133ef826133d2565b9050919050565b6000819050919050565b613409826133e4565b61341c613415826133f6565b8354613370565b8255505050565b600080fd5b600080fd5b600080fd5b6000808335600160200384360303811261344f5761344e613423565b5b80840192508235915067ffffffffffffffff82111561347157613470613428565b5b60208301925060018202360383131561348d5761348c61342d565b5b509250929050565b600082905092915050565b7f4e487b7100000000000000000000000000000000000000000000000000000000600052604160045260246000fd5b7f4e487b7100000000000000000000000000000000000000000000000000000000600052602260045260246000fd5b6000600282049050600182168061351657607f821691505b602082108103613529576135286134cf565b5b50919050565b60008190508160005260206000209050919050565b60006020601f8301049050919050565b600082821b905092915050565b6000600883026135917fffffffffffffffffffffffffffffffffffffffffffffffffffffffffffffffff82613554565b61359b8683613554565b95508019841693508086168417925050509392505050565b60006135ce6135c96135c484612dbe565b6133a6565b612dbe565b9050919050565b6000819050919050565b6135e8836135b3565b6135fc6135f4826135d5565b848454613561565b825550505050565b600090565b613611613604565b61361c8184846135df565b505050565b5b8181101561364057613635600082613609565b600181019050613622565b5050565b601f821115613685576136568161352f565b61365f84613544565b8101602085101561366e578190505b61368261367a85613544565b830182613621565b50505b505050565b600082821c905092915050565b60006136a86000198460080261368a565b1980831691505092915050565b60006136c18383613697565b9150826002028217905092915050565b6136db8383613495565b67ffffffffffffffff8111156136f4576136f36134a0565b5b6136fe82546134fe565b613709828285613644565b6000601f8311600181146137385760008415613726578287013590505b61373085826136b5565b865550613798565b601f1984166137468661352f565b60005b8281101561376e57848901358255600182019150602085019450602081019050613749565b8683101561378b5784890135613787601f891682613697565b8355505b6001600288020188555050505b50505050505050565b6137ac8383836136d1565b505050565b6000810160008301806137c38161334d565b90506137cf8184613400565b50505060018101602083016137e48185613432565b6137ef8183866137a1565b505050505050565b61380182826137b1565b5050565b7f4e487b7100000000000000000000000000000000000000000000000000000000600052601160045260246000fd5b600061383f82612dbe565b91507fffffffffffffffffffffffffffffffffffffffffffffffffffffffffffffffff820361387157613870613805565b5b600182019050919050565b7f496e76616c69642067616d650000000000000000000000000000000000000000600082015250565b60006138b2600c836130f0565b91506138bd8261387c565b602082019050919050565b600060208201905081810360008301526138e1816138a5565b9050919050565b7f526f6f6d20646f6573206e6f7420657869737400000000000000000000000000600082015250565b600061391e6013836130f0565b9150613929826138e8565b602082019050919050565b6000602082019050818103600083015261394d81613911565b9050919050565b7f496e76616c6964206d6f76652e20506c6561736520656e74657220696e20746860008201527f6520626f6172642e000000000000000000000000000000000000000000000000602082015250565b60006139b06028836130f0565b91506139bb82613954565b604082019050919050565b600060208201905081810360008301526139df816139a3565b9050919050565b7f556e6b6e6f776e20706c61796572000000000000000000000000000000000000600082015250565b6000613a1c600e836130f0565b9150613a27826139e6565b602082019050919050565b60006020820190508181036000830152613a4b81613a0f565b9050919050565b7f47616d65206973204f7665720000000000000000000000000000000000000000600082015250565b6000613a88600c836130f0565b9150613a9382613a52565b602082019050919050565b60006020820190508181036000830152613ab781613a7b565b9050919050565b7f416e6f7468657220506c6179657220616c726561647920706c6179656420746860008201527f6973206d6f76652e2054727920616e6f74686572000000000000000000000000602082015250565b6000613b1a6034836130f0565b9150613b2582613abe565b604082019050919050565b60006020820190508181036000830152613b4981613b0d565b9050919050565b7f49742773206e6f7420796f7572207475726e2e20506c65617365207761697400600082015250565b6000613b86601f836130f0565b9150613b9182613b50565b602082019050919050565b60006020820190508181036000830152613bb581613b79565b9050919050565b6000613bc782612dbe565b9150613bd283612dbe565b9250828201905080821115613bea57613be9613805565b5b92915050565b7f4e487b7100000000000000000000000000000000000000000000000000000000600052601260045260246000fd5b6000613c2a82612dbe565b9150613c3583612dbe565b925082613c4557613c44613bf0565b5b828206905092915050565b6000613c5b82612ff5565b915060ff8203613c6e57613c6d613805565b5b600182019050919050565b6000613c84826133b0565b9050919050565b6000613c9682613c79565b9050919050565b613ca681613c8b565b82525050565b6000604082019050613cc16000830185613c9d565b613cce6020830184612dc8565b9392505050565b613cde81612ecc565b8114613ce957600080fd5b50565b600081519050613cfb81613cd5565b92915050565b600060208284031215613d1757613d16612dfc565b5b6000613d2584828501613cec565b91505092915050565b6000613d49613d44613d3f84612ff5565b6133a6565b612dbe565b9050919050565b613d5981613d2e565b82525050565b6000602082019050613d746000830184613d50565b92915050565b7f47616d6520646f6573206e6f7420657869737400000000000000000000000000600082015250565b6000613db06013836130f0565b9150613dbb82613d7a565b602082019050919050565b60006020820190508181036000830152613ddf81613da3565b9050919050565b600081905092915050565b7f47616d65206973206f7665722e20416e642077696e6e657220666f722074686560008201527f20726f756e642077617320000000000000000000000000000000000000000000602082015250565b6000613e4d602b83613de6565b9150613e5882613df1565b602b82019050919050565b6000613e6e82612f28565b613e788185613de6565b9350613e88818560208601612f44565b80840191505092915050565b6000613e9f82613e40565b9150613eab8284613e63565b915081905092915050565b7f4e6f2061637469766520706c6179657220617420746869732074696d65000000600082015250565b6000613eec601d836130f0565b9150613ef782613eb6565b602082019050919050565b60006020820190508181036000830152613f1b81613edf565b9050919050565b6000613f2d82612ee7565b9050919050565b613f3d81613f22565b82525050565b6000602082019050613f586000830184613f34565b92915050565b600081519050613f6d81612e73565b92915050565b600060208284031215613f8957613f88612dfc565b5b6000613f9784828501613f5e565b91505092915050565b6000604082019050613fb56000830185613f34565b613fc26020830184613f34565b9392505050565b7f506c6179657220686173206e6f7420676976656e20617574686f72697479207460008201527f6f207472616e7366657220746f6b656e2066726f6d20686973206163636f756e60208201527f742e20506c656173652061736b2068696d20746f20617070726f76652074686560408201527f207472616e736665722e00000000000000000000000000000000000000000000606082015250565b6000614071606a836130f0565b915061407c82613fc9565b608082019050919050565b600060208201905081810360008301526140a081614064565b9050919050565b60006060820190506140bc6000830186613f34565b6140c96020830185613f34565b6140d66040830184612dc8565b949350505050565b6000819050919050565b6140f96140f482612dbe565b6140de565b82525050565b60008160601b9050919050565b6000614117826140ff565b9050919050565b60006141298261410c565b9050919050565b61414161413c82613f22565b61411e565b82525050565b600061415382866140e8565b6020820191506141638285614130565b60148201915061417382846140e8565b602082019150819050949350505050565b6000604082019050818103600083015261419e8185613101565b905081810360208301526141b28184613101565b90509392505050565b6000815490506141ca816134fe565b9050919050565b8181036141df5750506142b7565b6141e8826141bb565b67ffffffffffffffff811115614201576142006134a0565b5b61420b82546134fe565b614216828285613644565b6000601f8311600181146142455760008415614233578287015490505b61423d85826136b5565b8655506142b0565b601f1984166142538761352f565b965061425e8661352f565b60005b8281101561428657848901548255600182019150600185019450602081019050614261565b868310156142a3578489015461429f601f891682613697565b8355505b6001600288020188555050505b5050505050505b565b600060808201905081810360008301526142d38187613101565b905081810360208301526142e78186613101565b905081810360408301526142fb8185613101565b9050818103606083015261430f8184613101565b905095945050505050565b600060808201905081810360008301526143348187613101565b90506143436020830186612dc8565b81810360408301526143558185613101565b905081810360608301526143698184613101565b905095945050505050565b7f5468657265206973206e6f2077696e6e65722079657400000000000000000000600082015250565b60006143aa6016836130f0565b91506143b582614374565b602082019050919050565b600060208201905081810360008301526143d98161439d565b9050919050565b60006143eb82612dbe565b91506143f683612dbe565b925082820261440481612dbe565b9150828204841483151761441b5761441a613805565b5b5092915050565b7f596f7520646f206e6f742068617665207375666669656e742062616c616e636560008201527f20746f2072657761726400000000000000000000000000000000000000000000602082015250565b600061447e602a836130f0565b915061448982614422565b604082019050919050565b600060208201905081810360008301526144ad81614471565b9050919050565b60006020820190506144c96000830184613c9d565b92915050565b600080fd5b600080fd5b6144e282612f6e565b810181811067ffffffffffffffff82111715614501576145006134a0565b5b80604052505050565b6000614514612df2565b905061452082826144d9565b919050565b600067ffffffffffffffff8211156145405761453f6134a0565b5b61454982612f6e565b9050602081019050919050565b600061456961456484614525565b61450a565b905082815260208101848484011115614585576145846144d4565b5b614590848285612f44565b509392505050565b600082601f8301126145ad576145ac6144cf565b5b81516145bd848260208601614556565b91505092915050565b6000602082840312156145dc576145db612dfc565b5b600082015167ffffffffffffffff8111156145fa576145f9612e01565b5b61460684828501614598565b91505092915050565b600060408201905081810360008301526146298185613101565b90506146386020830184612dc8565b9392505050565b600060608201905081810360008301526146598186613101565b9050818103602083015261466d8185613101565b905061467c6040830184612dc8565b94935050505056fe25732c207361646c7920796f7520686176652065786365656465642074696d6520746f207265636f72642061206d6f7665203a282e20596f75206c6f7374207468652067616d65596f752061726520726577617264656420776974682025732e20546f6b656e204944202d20257347616d65206973206e6f742073746172746564207965742e2057616974696e6720666f7220616e6f7468657220706c6179657220746f206a6f696e48657265206973207468652063757272656e74207374617465206f6620626f61726420666f722047616d65202573506c61796572203220616c736f20656e746572656420696e746f2067616d652c204c6574277320626567696e212120616e6420746865207475726e20697320666f722025732d2d2d2d2d2d2d2d2d2d2d2d2d2d2d2d2d2d2d2d2d2d2d2d2d2d2d2d2d2d2d2d2d2d2d2d2d416c69617321212049742773206120647261772e204e6f2070726f626c656d2c2072657475726e696e6720796f75722068617264206561726e656420746f6b656e73206261636b20746f20796f752e20566973697420757320736f6f6e2147616d6520646f6573206e6f74206578697374732e20496620796f752077616e7420746f20706c61792c20706c6561736520676f7420746f20686f6d65207061676520616e642073746172742e596f75206172652072657761726465642077697468202573204852505020636f696e732e506c61796572203120656e746572656420696e746f2067616d652c2077616974696e6720666f7220706c617965722032436f6e67726174756c6174696f6e7320257320666f722077696e6e696e67207468652067616d652ea2646970667358221220fe796af08b0a2cc382139616d834dd3997636d41620cbaa003c43dfe13b42d5e64736f6c63430008110033",
  "linkReferences": {},
  "deployedLinkReferences": {}
}